:020000040800F2
:1000000068150024AD02000831530008194E00089D
:1000100029530008710A000831640008000000003C
:100020000000000000000000000000000956000869
:10003000990E00080000000039530008F15800082C
:10004000C7020008C7020008C7020008C70200086C
:10005000C7020008C7020008C7020008C70200085C
:10006000C7020008C7020008C7020008790A000892
:10007000C7020008C7020008C7020008C70200083C
:10008000C7020008C7020008C7020008C70200082C
:10009000C7020008C7020008C7020008C70200081C
:1000A000C7020008C7020008C7020008C70200080C
:1000B000C7020008C7020008C7020008C7020008FC
:1000C000C7020008C7020008C7020008C7020008EC
:1000D000C7020008C7020008C70200082164000820
:1000E000C7020008C702000800000000C70200089D
:1000F000C7020008C7020008C7020008C7020008BC
:10010000C7020008C7020008C7020008C7020008AB
:10011000C7020008C7020008C7020008C70200089B
:10012000C7020008C7020008C7020008C70200088B
:10013000C7020008C7020008C7020008C70200087B
:1001400000000000000000000000000000000000AF
:10015000C7020008C7020008C7020008C70200085B
:10016000C7020008C7020008C7020008C70200084B
:10017000C7020008C7020008C7020008000000000C
:10018000C7020008C7020008C7020008C70200082B
:10019000C7020008C7020008C7020008C70200081B
:1001A000C7020008C7020008C7020008C70200080B
:1001B000C7020008C7020008C7020008C7020008FB
:1001C000C7020008C7020008C7020008C7020008EB
:1001D000C7020008C7020008C7020008C7020008DB
:1001E000C7020008C7020008C7020008C7020008CB
:1001F000C7020008C7020008C7020008C7020008BB
:10020000C7020008C7020008C7020008C7020008AA
:10021000C7020008C7020008C7020008C70200089A
:10022000C7020008C7020008C7020008000000005B
:10023000C7020008C702000800000000C70200084B
:10024000C7020008C7020008C7020008C70200086A
:10025000C7020008C7020008C7020008C70200085A
:10026000C7020008C7020008C7020008C70200084A
:10027000C7020008C7020008C7020008000000000B
:10028000C7020008C7020008C702000800000000FB
:1002900000000000C7020008DFF80CD000F090F862
:1002A000004800470165000868150024064880479B
:1002B00006480047FEE7FEE7FEE7FEE7FEE7FEE74B
:1002C000FEE7FEE7FEE7FEE7095A0008990200088C
:1002D0002DE9F05F0546002092469B46884606467B
:1002E000814640241BE0284641464746224600F00E
:1002F00057F853465A46C01A914110D31146184632
:10030000224600F03EF82D1A67EB01084F462246C0
:100310000120002100F035F817EB00094E41201EA6
:10032000A4F10104DFDC484631462A464346BDE8D5
:10033000F09FD2B201E000F8012B491EFBD27047BA
:100340000022F6E710B513460A4604461946FFF7A1
:10035000F0FF204610BD30B50B460146002020229C
:10036000012409E021FA02F59D4205D303FA02F5C2
:10037000491B04FA02F52844151EA2F10102F1DC22
:1003800030BD202A04DB203A00FA02F10020704739
:100390009140C2F1200320FA03F3194390407047C3
:1003A000202A04DB203A21FA02F00021704721FACA
:1003B00002F3D040C2F12002914008431946704731
:1003C0001CB509480090094801900546009C06E0CC
:1003D000E06840F0010394E8070098471034AC420D
:1003E000F6D3FFF75DFF0000706700089067000814
:1003F00070B58D1810F8014B14F0030201D110F8FC
:10040000012B231106D110F8013B03E010F8016B1A
:1004100001F8016B521EF9D1ABB110F8012B04F0B9
:100420000C048A1A0C2C03D0A2EB84129B1C08E04B
:1004300010F8014BA2EB0422F8E712F8014B01F887
:10044000014B5B1EF9D5A942D4D3002070BD00003A
:1004500070B541F600042021C5F6020401222046B1
:1004600002F0E2FB202100222046002502F0DCFB06
:1004700010210022204602F0D7FB0821002220464E
:1004800002F0D2FB04210022204602F0CDFB08211D
:100490000122204602F0C8FB08210022204602F07B
:1004A000C3FB072D05F10105ECD340F2080004263B
:1004B000C2F20040451E00BF15F8010F05F0E8FF2D
:1004C000013EF9D110210122204602F0ADFB10219E
:1004D0000022204602F0A8FB012005F0D9FF40F2DF
:1004E0000C000426C2F20040451E00BF15F8010FA3
:1004F00005F0CEFF013EF9D110210122204602F085
:1005000093FB10210022204602F08EFB022005F012
:10051000BFFF40F210000426C2F20040451E00BF9B
:1005200015F8010F05F0B4FF013EF9D110210122A9
:10053000204602F079FBA4F540644FF4004100220C
:10054000204602F071FB4FF400410122204602F0E8
:100550006BFB4FF4004100222046BDE8704002F0E2
:1005600063BB0000000000002DE9F04F81B02DEDCD
:10057000048B86B0B0EE409ABDEEC00AB0EE608A41
:100580000D468346012810EE101A08D1BCA006F0D3
:1005900003F8C1A0294605F0FFFFC5A003E0ACA009
:1005A00005F0FAFFB0A0BDEEC80A41F60009C5F695
:1005B000020910EE101A05F0EFFFBCEEC90A4FF069
:1005C00000404CF6CD43CCF6CC4310EE101A00EAB6
:1005D000412061F35E2040EAD152A2FB0376C90DAF
:1005E00026F0030707EB96074FF0CC36D21B801A94
:1005F000A0FB032761F1000100FB06704FF2BF373B
:1006000001FB03F6C0F25E1701FB0303BF1840EBCA
:1006100006013846FFF75CFEBF1A00213846002667
:1006200005F0A2F841F2240407EB8700C2F200446F
:10063000C00010210022206044F260000590C0201C
:10064000C0F2004003900020CFF6017002904846AF
:1006500002F0EAFA002005F01BFF0DF1140800BFBC
:1006600018F8060005F014FF0136042EF8D1102109
:100670000122484602F0D8FA0A2000F011FC94ED5D
:10068000000A9FED911AB8EE400A102129EE011AD6
:100690000022002480EE010ABCEEC00A10EE100A0F
:1006A00000BA000CADF80900484602F0BDFA0E2071
:1006B00005F0EEFE02AE00BF305D05F0E9FE01344C
:1006C000082CF9D1102100224846002402F0ACFA8F
:1006D000A9F540664FF400410022304602F0A4FA2A
:1006E0000A2000F0DDFB4FF400410122304602F009
:1006F0009BFA0A2000F0D4FB4FF400410022304660
:10070000019602F091FA00EE105A10219FED4A1B5B
:1007100000224846B8EEC00B80EE010B9FED481B4F
:1007200020EE010BBCEEC81ABDEEC00B11EE107A24
:1007300010EE105A02F078FA162005F0A9FEBEB2AB
:1007400040F21C0000EE106A41F21C099FED3E1BB6
:10075000C2F20040C2F20049B8EEC00BC7F6FF7704
:100760004FF6FF7ABBF1000F08BF814680EE018B88
:1007700016E000BF59F8240081B220EA0A0000EE1A
:10078000101AB8EE400B28EE000BBCEEC00B10EEBA
:10079000101A084405F050FE0134B4F5806F07D0FC
:1007A000BBF1010FE6D13846AC42B8BF3046F1E7A5
:1007B00041F600051021C5F602050122284602F087
:1007C00033FA102100222846002402F02DFA0020DE
:1007D00005F05EFE9DF8140040F080008DF81400D6
:1007E00018F8040005F054FE0134042CF8D110214F
:1007F0000122284602F018FA019C4FF40041002221
:10080000204602F011FA0A2000F04AFB4FF40041A2
:100810000122204602F008FA0A2000F041FB4FF4C2
:1008200000410022204606B0BDEC048B01B0BDE8BB
:10083000F04F02F0F9B900BF00000000000059407D
:10084000000000000000904000000000E0FFEF40CA
:1008500070616765312E74362E7478743D2225647C
:10086000487A22FFFFFF000070616765312E743700
:100870002E7478743D22256422FFFFFF00000000E3
:1008800070616765322E74362E7478743D2225644B
:10089000487A22FFFFFF000070616765322E7438CE
:1008A0002E7478743D222564252522FFFFFF000069
:1008B00070616765322E74372E7478743D2225641A
:1008C00022FFFFFF00000000000080450000000044
:1008D0002DE9F04F81B02DED048B41F2501041F223
:1008E0003002C2F20040C2F200424FF0FF3440F248
:1008F000180645784AF6AB20C2F6AA2040F2140B3F
:10090000A5FB00010020062D40F2040938BF01209C
:1009100001EB4101C2F200461070E807A5EB41016E
:10092000C2F2004B08BF01240129C2F2004946D897
:10093000B3EE048A00289FED4D9A41F23A07C2F2C5
:10094000004741F23F0A08FE090A41F23C08C2F2A0
:10095000004AC2F200480120387086ED000A00BF4C
:10096000B4EE480AF1EE10FA29DB3878012826D1D6
:10097000FFF76EFD41F2300096ED000AC2F2004032
:10098000DBF80010D9ED000A0078FFF7EDFD6420D8
:1009900002F062F84046062D38BF504696ED001A28
:1009A0000078604300EE100AB8EEC00A31EE000A8B
:1009B00086ED000AB4EE490AF1EE10FAD0DD41F2FC
:1009C0005010AB21C2F2004040784143890A01EB4C
:1009D0004101A0EB41006FF0030151FA80F10229BF
:1009E0001DD3C0B2023801282CD841F23C0141F29B
:1009F0003F00C2F20041C2F200400131062D38BF73
:100A0000411C99ED001A08786043800000EE100A3E
:100A1000B8EEC00A31EE000A89ED000A12E041F298
:100A20003C0141F23F00C2F20041C2F200400231FB
:100A3000062D38BF811C0878DBF8001004FB00107D
:100A4000CBF80000FFF704FD41F2300096ED000AFC
:100A5000C2F20040DBF80010D9ED000A0078BDECCE
:100A6000048B01B0BDE8F04FFFF77EBD00409C460F
:100A7000FEE700000000000041F24400C2F2004026
:100A800000F0D6BD0000000040F20F42D0F800C0D8
:100A9000C4F20202944510DC6F22C4F202029445B3
:100AA00020DC3F22C4F20202944536DC1022C4F25C
:100AB0000202944554D028224EE040F26F42C4F224
:100AC000020294451ADC40F23F42C4F2020294450D
:100AD0002ADC40F21042C4F20202944540D040F2B7
:100AE000284239E09F22C4F20202944525DC70229C
:100AF000C4F20202944533D088222DE040F29F4296
:100B0000C4F2020294451FDC40F27042C4F20202B9
:100B1000944525D040F288421EE04022C4F20202F1
:100B200094451DD0582217E040F24042C4F2020220
:100B3000944515D040F258420EE0A022C4F20202C1
:100B400094450DD0B82207E040F2B842C4F2020248
:100B5000944505D040F2A042C4F20202944517D158
:100B60000CF0F8024AF6AB23103ACAF6AA23A2FB0D
:100B7000033109A35F2AC1F302115B5C40F2FF312C
:100B80002CEA0101C36588BF0431816508467047BE
:100B90002CF0FF01F9E700BF000610160006101642
:100BA00070B540F26F44D0F800C0C4F20204D0F82F
:100BB00058E0A44519DC9F25C4F20205AC4531DCA0
:100BC0005725C4F20205AC4556DC1025C4F20205D7
:100BD000AC4500F092802825C4F20205AC4500F037
:100BE0008C804025C4F2020584E045F22F45C5F60D
:100BF0000205AC452BDC40F2B745C4F20205AC451A
:100C000048DC40F27045C4F20205AC4575D040F2B4
:100C10008845C4F20205AC456FD040F2A045C4F24D
:100C2000020567E040F22745C4F20205AC4540DC0E
:100C3000A025C4F20205AC455FD0B825C4F2020578
:100C4000AC455AD040F21045C4F2020552E045F2DC
:100C50006B45C5F60205AC453CDC45F23045C5F6B2
:100C60000205AC4549D045F24445C5F60205AC4500
:100C700043D045F258453BE05825C4F20205AC4547
:100C80003BD07025C4F20205AC4536D08825C4F2AD
:100C900002052FE040F2B845C4F20205AC452CD065
:100CA00045F20845C5F60205AC4526D045F21C457F
:100CB0001EE040F22845C4F20205AC451DD040F2CA
:100CC0004045C4F20205AC4517D040F25845C4F285
:100CD00002050FE045F26C45C5F60205AC450CD0A7
:100CE00045F29445C5F60205AC4506D045F280456F
:100CF000C5F60205AC4540F0CC80456EC66E002EB0
:100D0000866E6E601CBFD0E91C566E60A44515DC73
:100D10009F24C4F20204A4452BDC5724C4F202042D
:100D2000A4454EDC1024C4F20204A44576D0282445
:100D3000C4F20204A44571D040246BE045F22F4474
:100D4000C5F60204A44527DC40F2B744C4F202040D
:100D5000A44542DC40F27044C4F20204A4455DD0D4
:100D600040F28844C4F20204A44557D040F2A044A3
:100D700050E040F22744C4F20204A4453CDCA02425
:100D8000C4F20204A44549D0B824C4F20204A44524
:100D900044D040F210443DE045F26B44C5F60204F5
:100DA000A44553DC45F23044C5F60204A4455FD0A7
:100DB00045F24444C5F60204A44559D045F25844CE
:100DC00052E05824C4F20204A44527D07024C4F28F
:100DD0000204A44522D088241CE040F2B844C4F2A6
:100DE0000204A4451AD045F20844C5F60204A445FD
:100DF0003ED045F21C4437E040F22844C4F20204DD
:100E0000A4450BD040F24044C4F20204A44505D0EE
:100E100040F25844C4F20204A4453AD18468C06D3B
:100E200000F01F003F2505FA00F0CEF80800DCF8BE
:100E30000000402C20F48020CCF80000CCF80430D6
:100E400023D1CCF80820CCF80C1070BD45F26C44CE
:100E5000C5F60204A4450BD045F28044C5F6020451
:100E6000A44505D045F29444C5F60204A44510D12A
:100E7000C46D012504F01F04806805FA04F4CEF85F
:100E800004404028CCF80430DBD0CCF80810CCF873
:100E90000C2070BD00000000704700000000000042
:100EA0007047000000000000EFF3108072B600BF32
:100EB000FEE70000000000002DE9F041044601F0CB
:100EC000C3FE14B3054694F83500022820D140F241
:100ED0000F472668C4F2020740F26F48BE426FF027
:100EE0000E00C4F2020817DC6F21C4F202018E4228
:100EF00023DC3F21C4F202018E4239DC1021C4F20E
:100F000002018E4258D0282151E00120BDE8F08135
:100F100080206065012037E246451ADC40F23F41FF
:100F2000C4F202018E422ADC40F21041C4F20201F6
:100F30008E4241D040F2284139E09F21C4F20201A3
:100F40008E4225DC7021C4F202018E4234D0882109
:100F50002DE040F29F41C4F202018E421FDC40F2BC
:100F60007041C4F202018E4226D040F288411EE058
:100F70004021C4F202018E421ED0582117E040F2F7
:100F80004041C4F202018E4216D040F258410EE0B8
:100F9000A021C4F202018E420ED0B82107E040F237
:100FA000B841C4F202018E4206D040F2A041C4F220
:100FB00002018E42314607D13146306820F01E00D2
:100FC00041F8140B6FF080000A68464500EA020001
:100FD000086019DC9F20C4F20200864231DC5720F1
:100FE000C4F20200864256DC1020C4F2020086429F
:100FF00000F091802820C4F20200864200F08B802D
:101000004020C4F2020084E045F22F40C5F6020001
:1010100086422BDC40F2B740C4F20200864248DC34
:1010200040F27040C4F20200864274D040F2884020
:10103000C4F2020086426ED040F2A040C4F2020028
:1010400067E040F22740C4F20200864240DCA02064
:10105000C4F2020086425ED0B820C4F2020086428A
:1010600059D040F21040C4F2020052E045F26B4009
:10107000C5F6020086423CDC45F23040C5F602006F
:10108000864248D045F24440C5F60200864242D02E
:1010900045F258403BE05820C4F2020086423AD064
:1010A0007020C4F20200864235D08820C4F20200CB
:1010B0002FE040F2B840C4F2020086422BD045F245
:1010C0000840C5F60200864225D045F21C401EE0CD
:1010D00040F22840C4F2020086421CD040F2404058
:1010E000C4F20200864216D040F25840C4F2020018
:1010F0000FE045F26C40C5F6020086420BD045F287
:101100009440C5F60200864205D045F28040C5F6FF
:101110000200864204D1206E016821F480710160D2
:10112000306820F0010030603068C0070BD001F05B
:101130008BFD401B0628F7D320206065032084F830
:101140003500012020E120680821B8424FF03F021D
:1011500010DC6F23C4F2020398421CDC3F23C4F26C
:101160000203984232DC1023C4F20203984251D0A9
:1011700028234AE040451ADC40F23F43C4F2020310
:1011800098422ADC40F21043C4F20203984241D054
:1011900040F2284339E09F23C4F20203984225DC41
:1011A0007023C4F20203984234D088232DE040F229
:1011B0009F43C4F2020398421FDC40F27043C4F222
:1011C0000203984226D040F288431EE04023C4F236
:1011D000020398421ED0582317E040F24043C4F265
:1011E0000203984216D040F258430EE0A023C4F206
:1011F000020398420ED0B82307E040F2A043C4F2A5
:101200000203984206D040F2B843C4F20203984267
:1012100040F0BF80D4E9163707F01F07404502FAB7
:1012200007F25A5019DC9F21C4F20201884231DCD6
:101230005721C4F20201884256DC1021C4F2020197
:10124000884200F091802821C4F20201884200F017
:101250008B804021C4F2020184E045F22F41C5F6A3
:10126000020188422BDC40F2B741C4F202018842FD
:1012700048DC40F27041C4F20201884274D040F26E
:101280008841C4F2020188426ED040F2A041C4F20B
:10129000020167E040F22741C4F20201884240DCCB
:1012A000A021C4F2020188425ED0B821C4F202013A
:1012B000884259D040F21041C4F2020152E045F296
:1012C0006B41C5F6020188423CDC45F23041C5F66F
:1012D0000201884248D045F24441C5F602018842E5
:1012E00042D045F258413BE05821C4F20201884205
:1012F0003AD07021C4F20201884235D08821C4F26C
:1013000002012FE040F2B841C4F2020188422BD022
:1013100045F20841C5F60201884225D045F21C413C
:101320001EE040F22841C4F2020188421CD040F283
:101330004041C4F20201884216D040F25841C4F242
:1013400002010FE045F26C41C5F6020188420BD064
:1013500045F29441C5F60201884205D045F280412C
:10136000C5F6020188420BD1616EA26EE06E4A6042
:1013700030B1016821F480710160D4E91C01416041
:10138000012084F835000020002184F83410BDE8E5
:10139000F081042101223DE7F0B190F835100229D7
:1013A00018D180B540F20F420168C4F202029142A6
:1013B00014DC6F23C4F20203994224DC3F23C4F2FD
:1013C000020399423ADC1023C4F20203994258D036
:1013D000282352E0802141650120704740F26F438D
:1013E000C4F2020399421ADC40F23F43C4F2020302
:1013F00099422ADC40F21043C4F20203994240D0E1
:1014000040F2284339E09F23C4F20203994225DCCD
:101410007023C4F20203994233D088232DE040F2B6
:101420009F43C4F2020399421FDC40F27043C4F2AE
:101430000203994225D040F288431EE04023C4F2C3
:10144000020399421DD0582317E040F24043C4F2F2
:101450000203994215D040F258430EE0A023C4F293
:10146000020399420DD0B82307E040F2B843C4F21A
:101470000203994205D040F2A043C4F2020399420C
:101480006ED191424FF0040280F8352010DC6F20BD
:10149000C4F20200814220DC3F20C4F202008142FB
:1014A00036DC1020C4F20200814253D028204EE0E6
:1014B00040F26F40C4F2020081421ADC40F23F4029
:1014C000C4F2020081422ADC40F21040C4F2020061
:1014D00081423FD040F2284039E09F20C4F2020010
:1014E000814225DC7020C4F20200814232D0882083
:1014F0002DE040F29F40C4F2020081421FDC40F226
:101500007040C4F20200814224D040F288401EE0C4
:101510004020C4F2020081421CD0582017E040F263
:101520004040C4F20200814214D040F258400EE024
:10153000A020C4F2020081420CD0B82007E040F2A3
:10154000B840C4F20200814204D040F2A040C4F28C
:1015500002008142086820F001000860002080BD80
:101560000A6822F00E020A6045F25742C5F60202EE
:1015700091420A6822F001020A600EDC45F22F4215
:10158000C5F60202914217DC45F20842C5F6020296
:10159000914226D045F21C421FE045F27F42C5F63B
:1015A0000202914211DC45F25842C5F60202914214
:1015B00017D045F26C4210E045F23042C5F6020207
:1015C00091420ED045F2444207E045F29442C5F6FE
:1015D0000202914205D045F28042C5F602029142D4
:1015E0001AD1D0E9181CD0E916E30A6822F48072F7
:1015F0000A6003F01F01012202FA01F1CEF8041083
:10160000816ECCF80410C16E31B10A6822F4807288
:101610000A60D0E91C124A60012180F83510016D82
:101620000022002980F8342098D08847002080BD0F
:101630002DE9F04381B00021009141F2280148F2E8
:10164000B513C2F20041C1F64E33856D40F26F49C9
:101650000A680168C4F202092E68A2FB0328494502
:101660002B6815DC9F22C4F2020291422BDC572228
:10167000C4F2020291424FDC1022C4F202029142F3
:1016800078D02822C4F20202914273D040226CE04A
:1016900045F22F42C5F60202914227DC40F2B742E2
:1016A000C4F20202914243DC40F27042C4F20202F0
:1016B00091425FD040F28842C4F20202914259D076
:1016C00040F2A04251E040F22742C4F202029142AD
:1016D0003DDCA022C4F2020291424BD0B822C4F2F7
:1016E0000202914246D040F210423EE045F26B4287
:1016F000C5F60202914275DC45F23042C5F602029F
:10170000914200F0828045F24442C5F602029142C5
:101710007BD045F2584273E05822C4F20202914253
:1017200028D07022C4F20202914223D088221CE009
:1017300040F2B842C4F2020291421BD045F2084284
:10174000C5F60202914260D045F21C4258E040F2D8
:101750002842C4F2020291420CD040F24042C4F24C
:101760000202914206D040F25842C4F20202914273
:1017700040F02D84C26D082302F01F0293403342D3
:1017800000F0168140F20F44C4F20204A1424FF06F
:10179000040413DC6F27C4F20207B94200F39180FE
:1017A0003F27C4F20207B94200F3D2801027C4F2E7
:1017B0000207B94200F0F0802827E8E0494500F32D
:1017C0008C8040F23F47C4F20207B94200F3C78061
:1017D00040F21047C4F20207B94200F0DD8040F247
:1017E0002847D4E045F26C42C5F6020291420CD083
:1017F00045F28042C5F60202914206D045F294427B
:10180000C5F60202914240F0E2830E68C26D02F01A
:101810001F02042707FA02F41C4218BF16F004073F
:101820002CD1022707FA02F41C4218BF16F0020757
:1018300062D1D3401B0740F1CA8316F0080300F0C1
:10184000C68340F20F43C4F2020399426FF01C03B7
:1018500000F318836F27C4F20207B94200F35483E0
:101860003F27C4F20207B94200F3B4831027C4F241
:101870000207B94200F0D3832827CAE332046C6020
:101880005ED4B20600F1A18340F20F42C4F202021C
:1018900091426FF0080200F3E3826F23C4F2020367
:1018A000994200F302833F23C4F20203994200F3FA
:1018B00047831023C4F20203994200F08383282354
:1018C0007AE39F27C4F20207B94251DC7027C4F2C1
:1018D0000207B94260D0882759E040F29F47C4F21E
:1018E0000207B9424BDC40F27047C4F20207B9422A
:1018F00052D040F288474AE032046C6000F19C828A
:10190000B20600F1CF8340F20F42C4F202029142CC
:101910006FF0140200F3D6826F23C4F202039942DF
:1019200000F315833F23C4F20203994200F38C8332
:101930001023C4F20203994200F0AB832823A2E3F0
:10194000F10300F14283816C002940F079833EE38A
:101950004027C4F20207B9421ED0582717E040F2D0
:101960004047C4F20207B94216D040F258470EE091
:10197000A027C4F20207B9420ED0B82707E040F210
:10198000A047C4F20207B94206D040F2B847C4F2F9
:101990000207B94218BF08240F68274208D00F6811
:1019A00027F004070F60AB60436D43F0010343650C
:1019B0000123934033426FD040F20F47C4F2020735
:1019C000B94210DC6F27C4F20207B9421CDC3F2782
:1019D000C4F20207B94232DC1027C4F20207B9424E
:1019E00051D028274AE049451ADC40F23F47C4F26B
:1019F0000207B9422ADC40F21047C4F20207B9429A
:101A000041D040F2284739E09F27C4F20207B9428B
:101A100025DC7027C4F20207B94234D088272DE0B4
:101A200040F29F47C4F20207B9421FDC40F2704700
:101A3000C4F20207B94226D040F288471EE0402790
:101A4000C4F20207B9421ED0582717E040F24047BF
:101A5000C4F20207B94216D040F258470EE0A02760
:101A6000C4F20207B9420ED0B82707E040F2B847E7
:101A7000C4F20207B94206D040F2A047C4F20207FE
:101A8000B94240F0E1814F6907F0800424B1AB60B6
:101A9000436D43F0020343650423934033426FD008
:101AA00040F20F47C4F20207B94210DC6F27C4F2BC
:101AB0000207B9421CDC3F27C4F20207B94232DCFC
:101AC0001027C4F20207B94251D028274AE04945FD
:101AD0001ADC40F23F47C4F20207B9422ADC40F266
:101AE0001047C4F20207B94241D040F2284739E01A
:101AF0009F27C4F20207B94225DC7027C4F202070F
:101B0000B94234D088272DE040F29F47C4F2020743
:101B1000B9421FDC40F27047C4F20207B94226D036
:101B200040F288471EE04027C4F20207B9421ED0A7
:101B3000582717E040F24047C4F20207B94216D0D6
:101B400040F258470EE0A027C4F20207B9420ED077
:101B5000B82707E040F2B847C4F20207B94206D0FE
:101B600040F2A047C4F20207B94240F073810F6807
:101B700007F0020424B1AB60436D43F004034365F6
:101B8000102303FA02F232427ED040F20F43C4F235
:101B9000020399424FF0080310DC6F27C4F20207DA
:101BA000B9421CDC3F27C4F20207B94232DC1027DD
:101BB000C4F20207B94251D028274AE049451ADC4D
:101BC00040F23F47C4F20207B9422ADC40F2104714
:101BD000C4F20207B94241D040F2284739E09F27BA
:101BE000C4F20207B94225DC7027C4F20207B942E9
:101BF00034D088272DE040F29F47C4F20207B94253
:101C00001FDC40F27047C4F20207B94226D040F20E
:101C100088471EE04027C4F20207B9421ED0582769
:101C200017E040F24047C4F20207B94216D040F232
:101C300058470EE0A027C4F20207B9420ED0B827D9
:101C400007E040F2A047C4F20207B94206D040F2D2
:101C5000B847C4F20207B94218BF04230F681F42F5
:101C600012D0AA600A6852030A6806D4D20506D4C4
:101C70000A6822F008020A6001E0110352D4016CE4
:101C800011B1044688472046C16D01F01F02202192
:101C900001FA02F3334200F0A68040F20F470168D8
:101CA000C4F202071026B94210DC6F27C4F2020703
:101CB000B9421CDC3F27C4F20207B94236DC1027C8
:101CC000C4F20207B94255D028274EE049451ADC34
:101CD00040F23F47C4F20207B9422EDC40F21047FF
:101CE000C4F20207B94245D040F228473DE09F27A1
:101CF000C4F20207B94229DC7027C4F20207B942D4
:101D000038D0882731E040F29F47C4F20207B94239
:101D100023DC40F27047C4F20207B9422AD040F2F5
:101D2000884722E0816C0029ABD1ADE74027C4F29F
:101D30000207B9421ED0582717E040F24047C4F2CC
:101D40000207B94216D040F258470EE0A027C4F26D
:101D50000207B9420ED0B82707E040F2A047C4F20C
:101D60000207B94206D040F2B847C4F20207B942AE
:101D700018BF02260F68374235D0AB6090F8353077
:101D8000042B0B6816D123F016030B604B6923F06C
:101D900080034B61036C0BB9836C1BB10B6823F0A0
:101DA00008030B603F219140A960012180F83510A4
:101DB000016D3FE15A030A680CD4D2050ED40A68BB
:101DC00022F010020A60012180F83510002180F80D
:101DD000341003E0110301D4416C00E0C16B11B178
:101DE000044688472046416D002900F0F080416D8F
:101DF000C9071CD0042180F8351001684FEA9822E9
:101E00000B6823F001030B60009B013300939342A6
:101E100002D80B68DB07F7D10968C9074FF0030147
:101E200008BF012180F83510002180F83410C16C02
:101E3000002940F00581CAE0F10300F13381416CD3
:101E4000002940F0FD80C2E000240F68002C7FF4E0
:101E50001EAE21E600240F68002C7FF48CAE8FE6C6
:101E6000494542DC40F23F43C4F2020399427CDC24
:101E700040F21043C4F20203994200F0A38040F202
:101E8000284399E049454CDC40F23F47C4F2020741
:101E9000B94200F3A68040F21047C4F20207B942EB
:101EA00000F0BD8040F22847B3E09F23C4F2020354
:101EB000994263DC7023C4F20203994200F08280ED
:101EC000882379E0494560DC40F23F43C4F20203D5
:101ED000994200F3C08040F21043C4F202039942D9
:101EE00000F0D78040F22843CDE040F29F43C4F297
:101EF0000203994258DC40F27043C4F20203994253
:101F000060D040F2884357E09F27C4F20207B942ED
:101F100070DC7027C4F20207B94200F08080882785
:101F200077E040F29F47C4F20207B94269DC40F211
:101F30007047C4F20207B94271D040F2884768E0A6
:101F40004023C4F2020399423CD0582334E09F233B
:101F5000C4F20203994200F387807023C4F20203A3
:101F6000994200F0968088238DE040F24043C4F20D
:101F70000203994226D040F258431DE0A023C4F248
:101F8000020399421ED0B82316E040F29F43C4F2E8
:101F9000020399426FDC40F27043C4F2020399429B
:101FA00077D040F288436EE040F2A043C4F20203CF
:101FB000994207D040F2B843C4F20203994218BFD5
:101FC0006FF004020B681A400A60016CC1BB01B0DB
:101FD000BDE8F0834027C4F20207B9421FD058275A
:101FE00017E040F24047C4F20207B94217D040F26E
:101FF00058470EE0A027C4F20207B9420FD0B82715
:1020000007E040F2A047C4F20207B94207D040F20D
:10201000B847C4F20207B94218BF6FF00E030F6849
:102020003B400B60012101FA02F26A60416580F8D1
:102030003510C16C00294FF0000280F83420C6D062
:1020400001B0BDE8F04308474023C4F202039942BF
:102050001FD0582317E040F24043C4F202039942D4
:1020600017D040F258430EE0A023C4F20203994275
:102070000FD0B82307E040F2A043C4F20203994214
:1020800007D040F2B843C4F20203994218BF6FF080
:102090000A020B681A400A60012180F835100021FD
:1020A00080F83410C16B0029CAD190E7000000000D
:1020B0002DE9F041044600F0C7FDECB140F26F4855
:1020C00005462068C4F20208404518DC9F21C4F28E
:1020D000020188422EDC5721C4F20201884254DCFE
:1020E0001021C4F2020188427DD02821C4F20201ED
:1020F000884278D0402171E00120BDE8F08145F2AE
:102100002F41C5F60201884227DC40F2B741C4F2F4
:102110000201884245DC40F27041C4F2020188426B
:1021200061D040F28841C4F2020188425BD040F2A3
:10213000A04153E040F22741C4F2020188423FDC53
:10214000A021C4F2020188424DD0B821C4F202019C
:10215000884248D040F2104140E045F26B41C5F65C
:102160000201884200F3928045F23041C5F6020137
:10217000884200F09D8045F24441C5F60201884244
:1021800000F0968045F258418EE05821C4F20201D9
:10219000884228D07021C4F20201884223D08821CD
:1021A0001CE040F2B841C4F2020188421BD045F263
:1021B0000841C5F6020188427AD045F21C4173E01D
:1021C00040F22841C4F2020188420CD040F2404162
:1021D000C4F20201884206D040F25841C4F2020122
:1021E000884240F0C580022184F83510002184F82F
:1021F0003410016821F00101016000BF206801680E
:10220000C9070CD000F020FD401B0628F6D3202083
:102210006065032084F835000120BDE8F08148F2B4
:102220003F0204F108060168CFF6106211406569AB
:102230004CCE1143A2691943E3693143266A0D4329
:10224000616A2B43042943EA060343EA020303D1EC
:10225000D4E90B652E43334341F20006C5F6004630
:102260003668B6F1005F6CD36568A5F12906202EAB
:1022700005D23F27CCF2C037F740FF075CD1A5F16C
:102280004F060025042E38BF012556E045F26C416B
:10229000C5F6020188420BD045F28041C5F6020125
:1022A000884205D045F29441C5F6020188425FD1CB
:1022B00004F1080E022184F83510002184F834104E
:1022C0000168A3699EE80450A2F18005E769B5FAA8
:1022D00085F566696D09402A4FEA853543EA0702AC
:1022E0006FF3101142EA060208BF102541EADC0133
:1022F00042EA0E022943236A41EAD2014AF6F83241
:10230000CAF2FD724CF6CD470244CCF6CC4741EA06
:102310001311A2FB072301606FF0030000EA930092
:10232000E0652046FEF7B0FBE16D012201F01F01E0
:1023300002FA01F1416045E00125002D18BF43F488
:10234000801303600429436923F0070341EA030172
:102350002DD1D4E90A5341EA050143B3B2F5005F38
:1023600008D09AB9022D16D0012D09D09DB115E0E3
:1023700040204DE7032D11D8DFE805F00A0D0A02D1
:10238000A3F1C072B2FA82F2520908E0032D01D221
:10239000012204E002D1C3F3006200E0002232B166
:1023A00040206065012084F83500BDE8F08141617E
:1023B0002046FEF769FBE16D3F2201F01F0102FAA2
:1023C00001F181602068404519DC9F21C4F20201BF
:1023D000884231DC5721C4F20201884256DC1021C8
:1023E000C4F20201884200F092802821C4F2020166
:1023F000884200F08C804021C4F2020184E045F262
:102400002F41C5F6020188422BDC40F2B741C4F2ED
:102410000201884248DC40F27041C4F20201884265
:1024200075D040F28841C4F2020188426FD040F278
:10243000A041C4F2020167E040F22741C4F2020168
:10244000884240DCA021C4F2020188425FD0B8215A
:10245000C4F2020188425AD040F21041C4F2020193
:1024600052E045F26B41C5F6020188423CDC45F280
:102470003041C5F60201884249D045F24441C5F6D3
:102480000201884243D045F258413BE05821C4F252
:10249000020188423BD07021C4F20201884236D04A
:1024A0008821C4F202012FE040F2B841C4F20201D7
:1024B00088422CD045F20841C5F60201884226D058
:1024C00045F21C411EE040F22841C4F2020188425C
:1024D0001DD040F24041C4F20201884217D040F2C0
:1024E0005841C4F202010FE045F26C41C5F6020109
:1024F00088420CD045F29441C5F60201884206D0CC
:1025000045F28041C5F60201884240F0D08045F294
:10251000574C45F6FC0EC5F6020CC5F6020E60459A
:102520000EDC45F22F43C5F60203984217DC45F254
:102530000843C5F60203984226D045F21C431FE02B
:1025400045F27F43C5F60203984211DC45F2584339
:10255000C5F60203984217D045F26C4310E045F2ED
:102560003043C5F6020398420ED045F2444307E0DB
:1025700045F29443C5F60203984205D045F28043E4
:10258000C5F60203984250D100F0FC034CF6CD474B
:10259000083BCCF6CC47A3FB0737AEF1FC05AEF108
:1025A0007C063B0905EB83022266A26803F01F0349
:1025B0000127802A666607FA03F2A26601D100228B
:1025C00062606368A56ED4E91827DEB2591E072938
:1025D00016607D6015D8013E072E62D860450EF169
:1025E000440213DC45F22F41C5F6020188423CDC6F
:1025F00045F20841C5F6020188424BD045F21C4124
:1026000044E000206067C4E91B0050E045F27F41D0
:10261000C5F60201884231DC45F25841C5F6020197
:10262000884237D045F26C4130E000F0F8034AF6BA
:10263000AB27103BCAF6AA27A3FB073740F20F438C
:10264000C4F2020308253E09984203F1AA02334668
:1026500088BF05EB171340F600059042C4F202054F
:1026600028BF334605F180069CE745F23041C5F6A8
:10267000020188420ED045F2444107E045F2804114
:10268000C5F60201884205D045F29441C5F6020123
:10269000884213D10EEB8300E06601202267B04030
:1026A000606704F16C02002307CA03604A600020DF
:1026B0006065012184F83510BDE8F08140F6000026
:1026C000C4F2020000F1FC0E00F5A072E2E7000087
:1026D00030B110B590F83440012C03D1022010BD68
:1026E00001207047012480F8344090F83540012CD7
:1026F0002BD1022480F8354000244465D0F800C076
:10270000DCF8004024F00104CCF800400446FEF759
:1027100047FA40F20F4C2068C4F2020C40F26F41BD
:102720006045C4F2020118DC6F23C4F20203984230
:1027300024DC3F23C4F2020398423ADC1023C4F2A3
:102740000203984259D0282352E04FF400614165BA
:10275000002180F83410012010BD88421ADC40F2BC
:102760003F43C4F2020398422ADC40F21043C4F211
:102770000203984241D040F2284339E09F23C4F23B
:102780000203984225DC7023C4F20203984234D03D
:1027900088232DE040F29F43C4F2020398421FDCDD
:1027A00040F27043C4F20203984226D040F28843BC
:1027B0001EE04023C4F2020398421ED0582317E0C3
:1027C00040F24043C4F20203984216D040F258430C
:1027D0000EE0A023C4F2020398420ED0B82307E013
:1027E00040F2B843C4F20203984206D040F2A0433C
:1027F000C4F20203984240F0238103680B2262F383
:1028000044030360226C1AB1082302681A43026071
:10281000884219DC9F22C4F20202904231DC572226
:10282000C4F20202904256DC1022C4F2020290422C
:1028300000F091802822C4F20202904200F08B80C6
:102840004022C4F2020284E045F22F42C5F60202A1
:1028500090422BDC40F2B742C4F20202904248DCC4
:1028600040F27042C4F20202904274D040F28842B8
:10287000C4F2020290426ED040F2A042C4F20202C0
:1028800067E040F22742C4F20202904240DCA022FC
:10289000C4F2020290425ED0B822C4F20202904218
:1028A00059D040F21042C4F2020252E045F26B42AB
:1028B000C5F6020290423CDC45F23042C5F6020207
:1028C000904248D045F24442C5F60202904242D0BE
:1028D00045F258423BE05822C4F2020290423AD0FC
:1028E0007022C4F20202904235D08822C4F2020261
:1028F0002FE040F2B842C4F2020290422BD045F2DF
:102900000842C5F60202904225D045F21C421EE064
:1029100040F22842C4F2020290421CD040F24042EF
:10292000C4F20202904216D040F25842C4F20202AF
:102930000FE045F26C42C5F6020290420BD045F220
:102940009442C5F60202904205D045F28042C5F697
:10295000020290426ED1236E1A68D20303D51A6820
:1029600042F480721A60E36E1BB11A6842F48072FE
:102970001A60604510DC6F21C4F2020188421CDC41
:102980003F21C4F20201884232DC1021C4F202016C
:1029900088424FD028214AE088421ADC40F23F4169
:1029A000C4F2020188422ADC40F21041C4F2020162
:1029B00088423FD040F2284139E09F21C4F2020111
:1029C000884225DC7021C4F20201884232D088217D
:1029D0002DE040F29F41C4F2020188421FDC40F228
:1029E0007041C4F20201884224D040F288411EE0C6
:1029F0004021C4F2020188421CD0582117E040F265
:102A00004041C4F20201884214D040F258410EE025
:102A1000A021C4F2020188420CD0B82107E040F2A4
:102A2000B841C4F20201884204D040F2A041C4F28D
:102A300002018842016841F001010160002010BDDF
:102A40000268052363F343020260226C002A3FF40C
:102A5000DFAE0423D9E60000B0B5044600F0F4F878
:102A600041F231010546C2F20041621C097818BFEB
:102A70000C4400BF00F0E8F8401BA042FAD3B0BD00
:102A80002DE9F04F83B00E68002E00F0C78000F1F2
:102A9000264742F2004507F1FF77C5F602050A22F4
:102AA000A8424FEAB72500F1200308BF092200938E
:102AB000092D38BF4FEAB722002400274FF0000A43
:102AC00001920AE00AF1010A0E6836FA0AF207F1E9
:102AD000020704F1040400F0A180012202FA0AFBBB
:102AE00016EA0B08EED0D1F80490032209F0030E89
:102AF000AEF10106012E02FA07F610D8D0F808C090
:102B0000CD682CEA0602BD402A438260C9F3001555
:102B1000426822EA0B0205FA0AF52A434260BEF136
:102B2000030F1FD0C2688D68B243BD40BEF1020FD3
:102B300042EA0502C26015D16FF00302009D02EA6D
:102B40005A0B04F01C030F2255F80BC002FA03FEC7
:102B5000D1F810902CEA0E0C09FA03F343EA0C03A7
:102B600045F80B3002684B68B24303F00306BE40E1
:102B700013F4403F42EA06020260A3D044F2F44359
:102B800040F2084CC5F60203C5F6000C0F251A6882
:102B900042F002021A601A6802F0020202922AF05F
:102BA0000302029B04F00C0352F80C609D40AE43FC
:102BB000019D05FA03F3334342F80C304FF0B04C5B
:102BC000DCF800204B6842EA0806DD0258BF22EA22
:102BD00008069D02CCF8006040F2040CC5F6000C1B
:102BE000DCF8002042EA080658BF22EA08069D03E6
:102BF000CCF80060DCF8802042EA080658BF22EAE0
:102C00000806DB03CCF88060DCF87C2042EA08068A
:102C100058BF22EA0806CCF87C6053E703B0BDE851
:102C2000F08F000000000000002A08BF0904816145
:102C3000704700000000000041F20000C5F60040AF
:102C40000068000C7047000041F26410C2F20040BE
:102C5000006870470000000041F2310041F2641149
:102C6000C2F20040C2F2004100780A6810440860D5
:102C7000704700000000000080B5032000F0B0F8AD
:102C800001F0EAF844F2184146F23873C5F6020141
:102C9000C0F600030A68C2F303229A5C096801F0D7
:102CA0000F0102F01F02595CD04041F22C02C2F227
:102CB000004201F01F0120FA01F1116041F22801E8
:102CC000C2F2004108600F2000F00AF800281CBF83
:102CD000012080BD00F030F8002080BD0000000021
:102CE00041F23101C2F20041097819B310B504462E
:102CF00041F22800C2F200404FF47A72B2FBF1F1C7
:102D00000068B0FBF1F001F047FC0F2C01464FF0DA
:102D100001000ED8002918BF10BD4FF0FF3000226F
:102D2000214600F02DF841F234010020C2F20041AA
:102D30000C6010BD0120704781B044F2F440C5F62C
:102D40000200016841F002010160006800F0020029
:102D50000090009801B07047002848BF704700F00D
:102D60001F01012202FA01F14EF20012C0F34A10D3
:102D7000CEF2000242F82010704700000000000070
:102D800070B54EF60C5C4FF0FF36CEF2000C00F141
:102D9000604505F56445DCF80030C3F3022E8EF083
:102DA0000703042B28BF0423BEF1030406FA03F330
:102DB00021EA030100F00F0338BF0024043B002880
:102DC000634406FA04F048BF03F10C05A14022EA6F
:102DD000000008430001287070BD000000000000E2
:102DE0004EF60C514FF6FF03CEF200010A681A406E
:102DF00060F30A2242F0806040F0FD700860704786
:102E0000B0B544F60C05C5F60205296849072968DE
:102E100005D401F00701081A18BF0120B0BD21F048
:102E2000070108432860FFF70FFF044655F8080C18
:102E3000800407D4FFF708FF001BB0F57A7FF5D9AF
:102E40000120B0BD0020B0BD80B500F07DFF44F290
:102E5000204146F23872C5F60201C0F60002096848
:102E6000C1F30211515C01F01F01C84080BD000098
:102E700080B544F2384EC5F6020E5EF8103C5EF89E
:102E8000101C5EF80C2CC1F3053CDEF80410BCF1FC
:102E9000000F15D0C908D20601EAE2716FF35F3165
:102EA00000EE101A03F003010229B8EE400A0CD01C
:102EB00071B95EF8381C89060DD49FED351A18E0FB
:102EC00000218160C0E9001180BD9FED301A10E043
:102ED0009FED2D1A0DE05EF8381C49F20002C0F299
:102EE000D032C1F3C10122FA01F101EE101AB8EE9D
:102EF000411ADEF800109FED273A6FF35F2102EED2
:102F0000101ADEF80010C1F34621B8EE422A00EE96
:102F1000032A00EE10CAB7EE003AB8EE400A81EE7E
:102F2000000A32EE031A02EE101AB8EE422A20EE20
:102F3000010A32EE031A80EE011ABCEEC11A80EDCE
:102F4000001ADEF80010C1F3064101EE101AB8EEC7
:102F5000411A31EE031A80EE011ABCEEC11A80ED5F
:102F6000011ADEF80010C1F3066101EE101AB8EE86
:102F7000411A31EE031A80EE010ABCEEC00A10EECF
:102F8000101A816080BD00BF0024744A20BCBE4B73
:102F90000024744C0000003980B544F2404EC5F660
:102FA000020E5EF8183C5EF8181C5EF8142CC1F393
:102FB000055CDEF80410BCF1000F15D0C908D2057D
:102FC00001EAE2716FF35F3100EE101A03F00301C2
:102FD0000229B8EE400A0CD071B95EF8401C89068F
:102FE0000DD49FED351A18E000218160C0E9001171
:102FF00080BD9FED301A10E09FED2D1A0DE05EF8B8
:10300000401C49F20002C0F2D032C1F3C10122FAE1
:1030100001F101EE101AB8EE411ADEF800109FED32
:10302000273A6FF35F2102EE101ADEF80010C1F3A9
:103030004621B8EE422A00EE032A00EE10CAB7EE8F
:10304000003AB8EE400A81EE000A32EE031A02EEB0
:10305000101AB8EE422A20EE010A32EE031A80EE70
:10306000011ABCEEC11A80ED001ADEF80010C1F39F
:10307000064101EE101AB8EE411A31EE031A80EE45
:10308000011ABCEEC11A80ED011ADEF80010C1F37E
:10309000066101EE101AB8EE411A31EE031A80EE05
:1030A000010ABCEEC00A10EE101A816080BD00BF9C
:1030B0000024744A20BCBE4B0024744C000000392C
:1030C0002DE9F04381B00446C07844F22C49000752
:1030D000C5F6020901D4002520E0A06E4FEA305069
:1030E000032838D80025DFE800F0020A1C22D9F8AE
:1030F000000040F40030C9F80000D5B906E004F142
:103100000800022102F060F9054695B9D9F82400BB
:10311000A16E20F440100843C9F824004FF00008C5
:1031200008E004F12800022102F0DEF90546002D36
:10313000ECD0A8466078C00721D0A06D042800F22A
:103140004E81DFE810F0E9001A010C0005000500CF
:103150006DB1A84613E00125002DEAD1D6E704F1B0
:103160002800002102F0C0F90546002DF1D1D9F860
:103170002400A16D20F007000843C9F824006078FE
:1031800080071FD5E06D4FEAB010042800F22C81B3
:10319000DFE810F0CC00FD000800050005004DB18F
:1031A000A8460FE004F12800002102F09DF9054631
:1031B000002DF5D1D9F82400E16D20F4E07008432A
:1031C000C9F824006078400721D5D4F8A8004FEA58
:1031D0007050042800F20D81DFE810F0B200E30027
:1031E0000800050005004DB1A84610E004F12800D4
:1031F000002102F079F90546002DF5D1D9F82C000F
:10320000D4F8A81020F460000843C9F82C006078B6
:1032100000071FD5D4F8AC004FEA3060042800F254
:10322000ED80DFE800F097C8060303004DB1A84623
:1032300010E004F12800002102F056F90546002DA7
:10324000F5D1D9F82C00D4F8AC1020F0E060084398
:10325000C9F82C00E07880071BD5E06C4FEA3010ED
:10326000032830D8DFE800F0020526024DB1A84659
:103270000FE0D9F8000040F40030C9F80000002D3C
:10328000F5D1D9F82000E16C20F030000843C9F8EE
:1032900020006078C0062AD5206E4FEA303004281E
:1032A00000F2B180DFE800F0609113030300B5B1D4
:1032B000A8461CE004F10800022102F085F805464A
:1032C000002DD4D1DDE70125002DD0D1D9E704F1BF
:1032D0002800002102F008F90546002DE8D1D9F8B0
:1032E0002400216E20F4E0400843C9F824006078EF
:1032F000800640F1A180606E4FEA3040052800F260
:103300009080DFE800F08B03858B8B8B04F1080045
:10331000012102F059F880E0D9F8000040F40030B3
:10332000C9F80000002D7FF414AF20E7D9F80000A1
:1033300040F40030C9F80000002D7FF431AF39E7C8
:10334000D9F8000040F40030C9F80000002D7FF4E7
:103350004BAF53E7D9F8000040F40030C9F8000043
:10336000002D7FF464AF6CE7D9F8000040F4003022
:10337000C9F80000002D9BD1B1E704F1080000213D
:1033800002F022F80546002D7FF4E3AEEFE604F1EB
:103390000800002102F018F80546002D7FF400AF68
:1033A00008E704F10800002102F00EF80546002DA0
:1033B0007FF41AAF22E704F10800002102F004F8BC
:1033C0000546002D7FF433AF3BE704F108000021F0
:1033D00001F0FAFF0546002D7FF46AAF7FE7012573
:1033E000002D7FF4B6AEC2E60125002D7FF4D8AEE5
:1033F000E0E60125002D7FF4F7AEFFE60125002D64
:103400007FF415AF1DE70125002D7FF451AF66E76E
:1034100004F12800012102F067F8054625B1A8460D
:103420000AE00125002DFAD1D9F82400616E20F4BC
:10343000E0200843C9F824006078400625D5D4F878
:10344000B0004FEA3070052813D8DFE800F00F0312
:10345000090F0F0F04F10800012101F0B5FF04E08E
:1034600004F12800012102F03FF8054625B1A846E5
:103470000BE00125002DFAD1D9F82C00D4F8B010BA
:1034800020F0E0400843C9F82C006078000620D501
:10349000206FD8B1B0F1005F12D0B0F1805F26D1BB
:1034A000D9F8000040F40030C9F8000085B9D9F817
:1034B0002400216F20F040500843C9F8240008E0A0
:1034C00004F10800012101F07FFF0546002DEED038
:1034D000A846E078C0071ED0A06C032800F28180C7
:1034E000DFE800F0020975026DB1A84613E001257E
:1034F000002DEDD1DBE7D9F8000040F40030C9F829
:103500000000002DF1D1D9F82000A16C20F00300BB
:103510000843C9F82000A078400645D5D9F8D4035F
:1035200040F48070C9F8D403FFF78EFB064600BF55
:10353000D9F8D403C00505D4FFF786FB801B6528A6
:10354000F6D303257DBBD9F84410D4F8B40041402C
:1035500011F4407F11D0D9F84410D9F8442042F436
:103560008032C9F84420D9F8442021F4407122F473
:103570008032C9F84420C9F84410B0F5807F0FD1DB
:10358000FFF762FB064641F2893700BFD9F84400D5
:10359000800705D4FFF758FB801BB842F6D30325FC
:1035A000002D00F08A82A8462078C00732D0E06F54
:1035B0004FEAF000052822D8DFE800F01E03181EAD
:1035C0001E1E04F10800012101F0FEFE13E004F1CB
:1035D0000800022101F0F8FE0546002D7FF485AFBA
:1035E00091E70125002D7FF480AF8CE704F12800DE
:1035F000012101F079FF054625B1A8460AE0012521
:10360000002DFAD1D9F82800E16F20F038000843E6
:10361000C9F828002078800721D5A06F052813D885
:10362000DFE800F00F03090F0F0F04F1080001217C
:1036300001F0CAFE04E004F12800012101F054FF6A
:10364000054625B1A8460AE00125002DFAD1D9F892
:103650002800A16F20F007000843C9F8280020784F
:10366000400723D5D4F89400052813D8DFE800F0EC
:103670000F03090F0F0F04F10800012101F0A4FE50
:1036800004E004F12800012101F02EFF054625B1D8
:10369000A8460BE00125002DFAD1D9F82C00D4F86A
:1036A000941020F007000843C9F82C002078800609
:1036B00025D5D4F890004FEA3070052813D8DFE8FC
:1036C00000F00F03090F0F0F04F10800002101F0B3
:1036D0007BFE04E004F12800022101F005FF05460D
:1036E00025B1A8460BE00125002DFAD1D9F8280014
:1036F000D4F8901020F0E0400843C9F82800207862
:10370000400625D5D4F89C004FEAB020052813D8F0
:10371000DFE800F00F03090F0F0F04F1080000218C
:1037200001F052FE04E004F12800022101F0DCFE69
:10373000054625B1A8460BE00125002DFAD1D9F8A0
:103740002C00D4F89C1020F4E0500843C9F82C0059
:103750002078000625D5D4F8A0004FEA703005285F
:1037600013D8DFE800F00F03090F0F0F04F1080072
:10377000002101F029FE04E004F12800022101F0FB
:10378000B3FE054625B1A8460BE00125002DFAD170
:10379000D9F82C00D4F8A01020F460400843C9F8F0
:1037A0002C002078000716D5D4F88400B0F5805F8F
:1037B00008D104F12800022101F096FE002818BF6C
:1037C0004FF00108D9F82800D4F8841020F44050B4
:1037D0000843C9F828002078C00616D5D4F8980008
:1037E000B0F5807F08D104F12800022101F07CFEB1
:1037F000002818BF4FF00108D9F82C00D4F8981011
:1038000020F440700843C9F82C00A078000724D5A4
:10381000D4F8A400B0F5003F1CD0B0F5803F13D021
:10382000002840F0E98004F10800002101F0CCFDFF
:1038300005468DB9D9F82C00D4F8A41020F44030F6
:103840000843C9F82C0008E004F12800022101F027
:103850004BFE0546002DEDD0A846A078400725D5A3
:10386000D4F88800B0F5401F1DD0B0F5001F14D06B
:10387000B0F5801F40F0C580D9F8000040F400305A
:10388000C9F800008DB9D9F82800D4F8881020F4C0
:1038900040100843C9F8280008E004F1280001217D
:1038A00001F022FE0546002DEDD0A846A078C00705
:1038B0001FD0206DB0F5803F0BD0002840F09780DE
:1038C000D9F8000040F40030C9F800004DB1A84616
:1038D0000FE004F10800022101F076FD0546002DFD
:1038E000F5D1D9F82000216D20F480300843C9F8C3
:1038F0002000E078800608D504F12800022101F0BC
:10390000F3FD002818BF4FF00108D4E900108A0326
:1039100040F18680D4F880206FF0010303EB32235E
:10392000022B0AD34FEA32233BB1012B6ED1D9F8D7
:10393000003043F40033C9F80030002D69D0CA02CA
:1039400071D4CA007AD48A0200F184804A0000F15E
:103950008C80CA0F40F09980090200F1A180C00755
:1039600007D004F10800002101F02EFD002818BF47
:1039700005462079800707D504F10800012101F0F0
:1039800023FD002818BF05462079400707D504F11C
:103990000800022101F018FD002818BF0546207913
:1039A000000707D504F12800002101F09DFD002843
:1039B00018BF05462079C00607D504F1280001216B
:1039C00001F092FD002818BF05462079800607D532
:1039D00004F12800022101F087FD002818BF01250D
:1039E000002D18BF0125284601B0BDE8F083012550
:1039F000002D7FF46CAF74E70125002D7FF42CAF10
:103A000018E70125002D7FF450AF3CE70125002D7C
:103A100095D1D9F8283023F440731A43C9F82820E7
:103A20004546CA028DD5D9F82420636F22F00042A2
:103A30001A43C9F82420CA007FF585AF59F81C2C19
:103A4000D4F8B83022F480421A4349F81C2C8A0278
:103A50007FF57CAFD9F82420E36E22F080721A4300
:103A6000C9F824204A007FF574AF59F81C2C22F4C1
:103A7000004249F81C2CD4F8BC2059F81C3C1A43CD
:103A800049F81C2CCA0F3FF467AFD9F82020636DAA
:103A900022F040521A43C9F8202009027FF55FAF97
:103AA000D9F82810D4F88C2021F440011143C9F82A
:103AB0002810C0077FF455AF5BE74FF6CF73D4F8FB
:103AC000B40059F81C2CC0F2FF0300F4407122F43A
:103AD0007C5203EA1013B1F5407F08BF1A436FF31D
:103AE0001F3049F81C2CD9F844100843C9F8440089
:103AF0005AE50000000000002DE9F04381B00028E5
:103B000000F0F88042F200080446C5F20028894619
:103B1000D8F8000000F00F0088420ED2D8F800005C
:103B200020F00F0040EA0900C8F80000D8F80000B3
:103B300000F00F00484540F0DD80206844F218474F
:103B40004107C5F602070AD521693A6802F07002FA
:103B5000914204D93A6822F070021143396001079A
:103B60000AD561697A6802F07002914204D97A68D4
:103B700022F0700211437960C1060AD5A1697A6802
:103B800002F4E062914204D97A6822F4E0621143BF
:103B9000796081060AD5E169BA6802F07002914243
:103BA00004D9BA6822F070021143B96081070AD5BE
:103BB000E1683A6802F00F02914204D93A6822F0B3
:103BC0000F0211433960C00740F0808020688107F0
:103BD0000AD5E1683A6802F00F02914204D23A68CD
:103BE00022F00F0211433960D8F8001001F00F01E4
:103BF00049450DD9D8F8001021F00F0141EA09011B
:103C0000C8F80010D8F8001001F00F01494571D133
:103C100041070AD521693A6802F07002914204D244
:103C20003A6822F070021143396001070AD56169D0
:103C30007A6802F07002914204D27A6822F070022F
:103C400011437960C1060AD5A1697A6802F4E0627D
:103C5000914204D27A6822F4E062114379608006CE
:103C60000AD5E069B96801F07001884204D2B968E8
:103C700021F070010843B86000F0EEF8396846F2B0
:103C80003872C0F60002C1F30321515C3B6803F0B7
:103C90000F0301F01F01D25C20FA01F102F01F00B6
:103CA00041F22C02C2F2004221FA00F0106041F20F
:103CB000340041F22802C2F20040C2F20042006821
:103CC000116001B0BDE8F043FFF70AB8386820F48E
:103CD0007061D4E9010211433960012857F8181CBA
:103CE0000CD0032804D0022828D1890302D507E08C
:103CF000890105D4012001B0BDE8F083C905F9D5DB
:103D000057F8081C21F00701084347F8080CFEF794
:103D10009BFF064641F2883557F8080C616800F0B1
:103D20003800B0EBC10F3FF451AFFEF78DFF801BA1
:103D3000A842F1D9032001B0BDE8F0834907D9D5E5
:103D4000DEE700000000000080B500F085F844F2D6
:103D5000184146F23873C5F60201C0F600030A683E
:103D6000C2F303229A5C096801F00F0102F01F02FE
:103D7000595C20FA02F201F01F0041F22C01C2F25C
:103D8000004122FA00F0086041F22801C2F200412D
:103D90000A6080BD0000000080B500F05DF844F2CC
:103DA000184C46F23873C5F6020CC0F60003DCF876
:103DB0000020C2F303229A5CDCF8001001F00F012E
:103DC00002F01F02595CD04041F22C02C2F20042C4
:103DD00001F01F0120FA01F1116041F22802C2F244
:103DE00000421060DCF80400C0F30210185C00F020
:103DF0001F0021FA00F080BD80B500F02DF844F2DC
:103E0000184C46F23873C5F6020CC0F60003DCF815
:103E10000020C2F303229A5CDCF8001001F00F01CD
:103E200002F01F02595CD04041F22C02C2F2004263
:103E300001F01F0120FA01F1116041F22802C2F2E3
:103E400000421060DCF80400C0F30220185C00F0AF
:103E50001F0021FA00F080BD44F20041C5F60201C6
:103E60000869C0F3C200032814D002280DD080BB1B
:103E70000868800649F20000C0F2D03058BF704791
:103E80000968C1F3C101C840704747F64000C0F25D
:103E90007D1070478A6A886AC0F3051CC86ABCF145
:103EA000000F4B6B1AD000F00100404200EAD30033
:103EB0006FF35F3000EE100A02F003000228B8EE44
:103EC000400A0DD078B9086880060FD49FED231AF8
:103ED00019E040F60010C0F23D0070470020704726
:103EE0009FED1D1A0FE09FED1B1A0CE0086849F2C8
:103EF0000002C0F2D032C0F3C10022FA00F001EE9D
:103F0000100AB8EE411A086B9FED153A6FF35F2067
:103F100002EE100A086BC0F34620B8EE422A0130C8
:103F200000EE032A00EE10CAB7EE003AB8EE400ADF
:103F300081EE000A32EE031A20EE010A01EE100AA9
:103F4000B8EE411A80EE010ABCEEC00A10EE100A6B
:103F5000704700BF0024744A20BCBE4B0024744C40
:103F600000000039000000002DE9F04381B0002876
:103F700000F0C7818046007844F20049C007C5F6CA
:103F8000020954D0D9F8100000F03801D9F82800FF
:103F9000102905D018290CD100F00300022808D1FF
:103FA000D9F8000080033ED5D8F80400D8BB01271B
:103FB0002CE0D8F80440D9F800002CB1B4F5A02FBB
:103FC0000BD0B4F5803F0ED020F48030C9F800004B
:103FD000D9F8000020F4802007E040F48020C9F8E0
:103FE0000000D9F8000040F48030C9F80000FEF766
:103FF0002BFE05469CB100BFD9F80000800312D407
:10400000FEF722FE401B6428F6D90327002070B972
:10401000BCE100BFFEF718FE401B6428F5D8D9F8B4
:1040200000008003F6D40120002800F0AF8198F84A
:104030000000800740F18080D9F8100010F03801AE
:10404000D9F828001CD0182908BF5FEA807017D063
:10405000D8F80C00D9F80010002845D021F019013B
:104060000843C9F80000FEF7EFFD0546D9F8000047
:10407000400728D4FEF7E8FD401B0228F6D91EE0D1
:10408000D9F80000400704D5D8F80C00002800F04B
:10409000DC81D9F80000D8F80C1020F01900084392
:1040A000C9F80000FEF7D0FD054600BFD9F80000B2
:1040B000400708D4FEF7C8FD401B0228F6D90327A5
:1040C0000024CCBB62E1FEF7B7FD41F20301884258
:1040D00021D8D8F81000D9F80410402821F47C31F8
:1040E00022D141F4003021E021F00100C9F80000A4
:1040F000FEF7AAFD05460126D9F8000010F00400DD
:1041000086EA900415D0FEF79FFD401B0228F3D9E4
:1041100003278CB93AE1D9F80400D8F8101020F040
:10412000FE4040EA016001E041EA00300124C9F8A4
:104130000400002C00F02A8198F80000C00670D519
:10414000D9F8100000F03801D9F82800082905D066
:1041500018291CD100F00300012818D1D9F800005B
:10416000C00503D5D8F81C00802855D1FEF764FDA2
:1041700041F20301884222D8D8F82000D9F804106F
:10418000202821F0F8413ED141F080403DE0D8F8B0
:104190001C000028D9F800001ED040F08000C9F8AB
:1041A0000000FEF751FD0546D9F80000C005DDD43A
:1041B000FEF74AFD401B0228F6D903272DE0D9F867
:1041C0000C00D8F8201020F07C50012440EA016057
:1041D000C9F80C002CBBD9E020F08000C9F8000021
:1041E000FEF732FD05460126D9F8000010F4807074
:1041F00086EA10240CD0FEF727FD401B0328F3D3DA
:10420000032774B9C2E041EA8060C9F804000124C0
:10421000002C00F0BB8004E001270024002C00F0FB
:10422000B58098F8000000076DD498F8000080066B
:1042300000F1818098F80000400700F19480D8F8E0
:104240002440002C5BD0D9F8100000F0380018286A
:1042500040F0D980012CD9F82810D9F8300050D07E
:1042600001F00302D8F828309A424AD1C1F305116F
:10427000D8F82C20914244D10146D8F830206FF371
:104280005F21013A91423CD1C0F34622D8F8341064
:1042900001398A4235D1C0F30642D8F838100139C5
:1042A0008A422ED1C0F30660D8F83C10013988420A
:1042B00027D1D9F83400D8F84810C0F3CC00814297
:1042C0001DD0D9F82C0020F00100C9F82C00FEF711
:1042D000BBFC0546FEF7B8FCA842FBD0D9F8340079
:1042E0004FF6F871D8F84820884340EAC200C9F870
:1042F0003400D9F82C0040F00100C9F82C00002748
:1043000044E0012742E0D8F814000028D9F87400EE
:1043100040D040F00100C9F87400FEF795FC054656
:10432000D9F8740080073FF580AFFEF78DFC401B85
:104330000228F5D929E0D8F818000028D9F800009B
:104340004DD040F48050C9F80000FEF77DFC0546D2
:10435000D9F8000080043FF56DAFFEF775FC401BF7
:104360000228F5D911E0D9F8000440F48070C9F8AA
:104370000004FEF769FC0546D9F80004C0051CD40A
:10438000FEF762FC401B6428F6D90327F8B201B09F
:10439000BDE8F08320F00100C9F87400FEF754FC7A
:1043A00005460327D9F8740080077FF53EAFFEF776
:1043B0004BFC401B0228F5D9E8E7D8F80840D9F8AB
:1043C00070001CB1052C42D0012C46D020F0010019
:1043D000C9F87000D9F8700020F004003FE020F424
:1043E0008050C9F80000FEF72FFC0546032700BFE8
:1043F000D9F8000080047FF51DAFFEF725FC401BB7
:104400000228F5D9C2E7D9F8000020F08070C9F879
:104410000000FEF719FC022C05464FF0030709D1F6
:10442000D9F8000080013CD5FEF70EFC401B0228A5
:10443000F6D9ABE7D9F8000080017FF560AFFEF751
:1044400003FC401B0228F5D9A0E7012738E640F01D
:104450000400C9F87000D9F8700040F00100C9F8F4
:104460007000FEF7F1FB002C054641F288344FF056
:10447000030711D0D9F8700080073FF5E0AEFEF7D2
:10448000E3FB401BA042F5D980E700BFFEF7DCFB51
:10449000401BA0423FF67AAFD9F870008007F5D4F0
:1044A000CDE608F12807D9F8280040F2F331884317
:1044B0008ECF0843591E40EA02104FF47E426FF33C
:1044C0005F21C9F8280002EB47204FF4FE0280B2BA
:1044D000D8F83C300844D8F8381002EB01414FF0CE
:1044E000FE4201F4FE0102EB0362084402F0FE41C9
:1044F0000844C9F83000D9F82C004FF6F87120F0C4
:104500000100C9F82C00D9F83400D8F848208843B5
:1045100040EAC200C9F83400D9F82C00D8F840109D
:1045200020F00C000843C9F82C00D9F82C00D8F86A
:10453000441020F002000843C9F82C00D9F82C00E0
:1045400040F48030C9F82C00D9F82C0040F4003039
:10455000C9F82C00D9F82C0040F48020C9F82C00B0
:10456000D9F82C0040F00100C9F82C00D9F800005F
:1045700040F08070C9F80000FEF766FB0446032790
:10458000D9F8000080013FF5BAAEFEF75DFB001BD5
:104590000228F5D9FAE60000411E0020B0EB116FA9
:1045A00001D0012070474EF21002F023CEF200023B
:1045B00051604EF62351CEF200010B70072190603E
:1045C000116070470000000090F88410012901D1AB
:1045D000022070472421C0F8881001680A680B681F
:1045E00022F0005223F001030B60002343660A60AF
:1045F0002021C0F8881080F8843000207047000027
:10460000D0F88C30202B06D103460120002918BF9A
:10461000002A02D170470220704710B50120D866E9
:104620000020186718461C4601F00AFE002818BF33
:1046300010BDE26E012A0ED12268214610231362BA
:104640000A6852E8002F0B6842F0100243E8002489
:10465000002CF5D110BD012010BD000000000000AD
:1046600044F600010068C4F20001884218BF704798
:1046700041F2501041F23A01C2F20040C2F2004150
:10468000002200780A7055280DD0FF2806D0AA28ED
:104690000FD141F24200C2F2004008E041F2430073
:1046A000C2F2004003E041F23800C2F200400121B2
:1046B000017041F2BC0041F25011C2F20040C2F25E
:1046C00000411422FFF79CBF70470000000000006B
:1046D00090F88420012A01D102207047B0B501234F
:1046E00080F884302422C0F888200268D0F864E082
:1046F000BEF1000FD2F800C0146824F00104146069
:10470000946824F0606441EA040191601BD09168D0
:1047100046F2607E9368C0F6000E5B0F46F2687545
:10472000C1F34261C0F600051EF80340EB5C2401B2
:10473000B4FBF3F3A0F86A301EF80130695C1B018A
:10474000B3FBF1F301E0A0F86A30A0F86830202153
:10475000C2F800C0C0F88810002180F88410002042
:10476000B0BD00000000000090F88420012A01D1B3
:1047700002207047B0B5012380F884302422C0F8AD
:1047800088200268D0F864E0BEF1000FD2F800C0C3
:10479000146824F001041460946824F0604441EA31
:1047A000040191601BD0916846F2607E9368C0F668
:1047B000000E5B0F46F26875C1F34261C0F600055A
:1047C0001EF80340EB5C2401B4FBF3F3A0F86A305D
:1047D0001EF80130695C1B01B3FBF1F301E0A0F8A6
:1047E0006A30A0F868302021C2F800C0C0F88810F4
:1047F000002180F884100020B0BD000000000000FF
:10480000704700000000000070470000000000003A
:10481000704700000000000070B5046840F62F01EA
:10482000E269114020292168A66805D101F0200322
:1048300006F080555B1939D140F60F0313400DD0B7
:10484000012340F22015C1F20003C0F2004506EA40
:10485000030C01EA050313EB0C032DD1D306C36E41
:1048600016D5012B14D111F0100311D010212162A3
:10487000A168490600F1FB80B0F85C10B0F85E203A
:10488000B0F85E30002B18BF914240F0518170BDEE
:10489000D30240F1CA8016F4800300F0C6804FF4C2
:1048A00080112162BDE87040FFF7AEBF416F002963
:1048B000EDD0BDE870400847D30718BF11F48073EE
:1048C00007D001232362D0F8903043F00103C0F8F1
:1048D0009030930706F0010E0AD5BEF1000F07D005
:1048E00002232362D0F8903043F00403C0F89030E4
:1048F00053070AD5BEF1000F07D004232362D0F876
:10490000903043F00203C0F8903013070CD501F04B
:10491000200353EA0C0307D008232362D0F8903019
:1049200043F00803C0F8903013050BD511F08063F5
:1049300008D04FF400632362D0F8903043F0200396
:10494000C0F89030D0F89030002BA0D092060AD555
:1049500001F0200106F08052891804D0416F11B196
:104960000446884720460168D0F89020896802F004
:10497000280201F04001891806D10446FFF748FFDC
:104980000020C4F8900070BD016851E8001F026863
:1049900021F4907142E80013002BF5D14FF6FE711F
:1049A000CEF6FF71026852E8022F03680A4043E81E
:1049B0000226002EF6D1C16E012909D1016851E805
:1049C000001F026821F0100142E80013002BF5D10E
:1049D0002021C0F88C100021C166026841679168EF
:1049E000490640F1988000BF016851E8021F026843
:1049F00021F0400142E80213002BF5D1D0F88010DD
:104A0000002900F0888045F6794204460846C0F641
:104A100000020A65FCF7C0FC00283FF438AFD4F868
:104A20008000016DBDE870400847130606D501F00F
:104A3000800306F400069B1940F0AB8053066ED548
:104A400011F040036BD000BF016851E8001F0268FD
:104A500021F0400142E80013002BF5D12021C0F8DD
:104A6000881000218167BDE8704000F0D1B9D0F80E
:104A700080100A68526893B2002B3FF408AFB0F878
:104A80005C60B342BFF403AFA0F85E20C969B1F522
:104A9000807F34D0016851E8001F026821F48071E2
:104AA00042E80013002BF5D1016851E8021F0268AB
:104AB00021F0010142E80213002BF5D1016851E811
:104AC000021F026821F0400142E80213002BF5D1D9
:104AD0002021C0F88C100021C16600BF016851E898
:104AE000001F026821F0100142E80013002BF5D1ED
:104AF000D0F8801004460846FCF7DEF92046022173
:104B00000167B0F85C10B0F85E20891A89B2BDE880
:104B10007040FFF7A5BDBDE87040FFF779BE1302F6
:104B20003ED511F080433BD0BDE87040FFF768BE32
:104B3000891A00BF026852E8002F036822F49072BD
:104B400043E80026002EF5D14FF6FE72CEF6FF7236
:104B5000036853E8023F0668134046E80235002D1B
:104B6000F6D12022C0F88C200022C266426700BF26
:104B7000026852E8002F036822F0100243E8002682
:104B8000002EF5D189B202220267BDE87040FFF71E
:104B900067BD816F00293FF47AAEBDE870400847D9
:104BA000D2017FF574AEB1F1FF3FC8BF70BDBDE863
:104BB0007040FFF789BD000010B5D8B10446D0F8A9
:104BC000880028B9002084F88400204600F028F8E6
:104BD0002420C4F888002068A16A0268002922F015
:104BE0000101016002D0204600F076FF204601F06E
:104BF00003F908B1012010BD2068416821F49041FB
:104C00004160816821F02A018160016841F0010161
:104C100001602046BDE8104000F0CEBF000000005B
:104C200070B5B8B0044602A8C0210026CDE93666AA
:104C3000CDE934663396FBF783FB44F60001206828
:104C4000C4F20001884201D038B070BD02A80396BA
:104C5000022502952096FEF733FA08B1FCF724F9F5
:104C600044F2E0400026C5F60200816841F480214C
:104C70008160816801F4802101910199016841F00E
:104C800002010160006833A900F002000190019860
:104C90004FF44060CDE933050720379040F20040E3
:104CA000C5F60200CDE93566FDF7EAFE41F244059E
:104CB0001020C2F20045C4F2020028602D20C5E990
:104CC00001064FF48060EE60C5E904062846C5E998
:104CD0000666C5E90866FDF7EBF908B1FCF7E4F8EC
:104CE000272000210022C4F88050AC63FEF748F86A
:104CF0002720FEF731F838B070BD0000000000003A
:104D00007047000000000000704700000000000035
:104D10002DE9F04381B00446D0F88800202808D15E
:104D200088460120002918BF002A06D101B0BDE83D
:104D3000F083022001B0BDE8F0831D460020C4F8D6
:104D400090002120C4F888001646FDF77DFFA4F8E6
:104D50005460A4F856600646A168B1F5805F02D1A0
:104D60002069002851D0C1464FF00008B4F8560021
:104D700058B36F1C0EE0B9F1000F1DD0206819F870
:104D8000011B8162B4F856000138A4F85600B4F84B
:104D90005600D0B12068C0690006ECD4002FF9D0CD
:104DA000FDF752FF01464FF0030045B3891BA942AE
:104DB00025D820680068EDE738F8020B21684FF02D
:104DC00000096FF35F208862DCE72068C069400655
:104DD00014D46F1C04E000BF2068C06940060DD4E5
:104DE000002FF9D0FDF730FF01464FF0030035B139
:104DF000891BA94203D820680068EDE70020202124
:104E0000C4F8881001B0BDE8F0834FF00009ADE7A9
:104E10007047000000000000FEE7000000000000F6
:104E20002DE9F04381B04EF2180640F200480546E5
:104E3000CEF200064FF00009C5F602084BF68034AA
:104E40004021002240460027FDF7EEFEE8B2802117
:104E5000C2094046FDF7E8FE56F8040C316800BF71
:104E600032688A42FCD0CB198A42A3EB0207114672
:104E700028BF0744A742F3D3402101224046FDF753
:104E8000D3FE56F8040C3268002100BF3368934209
:104E9000FCD011449342A1EB03011A4628BF014400
:104EA000A142F3D3B9F1070F09F101094FEA450512
:104EB000C6D34021002240460024FDF7B5FE8021E4
:104EC00001224046FDF7B0FE56F8040C32684BF65E
:104ED000803100BF33689342FCD017199342A7EB8F
:104EE00003041A4628BF04448C42F3D34021012214
:104EF0004046FDF799FE56F8040C376800214BF642
:104F0000803200BF3368BB42FCD03944BB42A1EBC6
:104F100003011F4628BF01449142F3D340210022E0
:104F2000404601B0BDE8F043FDF77EBE0000000042
:104F3000F0B581B04EF2180647F200770C460546F0
:104F4000CEF20006C0F2010700F052F856F8040C49
:104F50003268002133689342FCD011449342A1EBA4
:104F600003011A4628BF0144B942F3D3C020FFF71A
:104F700057FF56F8040C3268002100BF3368934293
:104F8000FCD011449342A1EB03011A4628BF01440F
:104F9000B942F3D32846FFF743FF56F8040C3268B2
:104FA000002100BF33689342FCD011449342A1EB2F
:104FB00003011A4628BF0144B942F3D32046FFF744
:104FC0002FFF56F8040C3268002100BF336893426B
:104FD000FCD011449342A1EB03011A4628BF0144BF
:104FE000B942F3D301B0BDE8F04000F045B800008D
:104FF00070B540F200444EF21805C5F60204802157
:1050000001222046CEF20005FDF70EFE40210122CE
:105010002046FDF709FE8021002220460026FDF7EC
:1050200003FE55F8040C2A684BF680312B68934236
:10503000FCD016449342A6EB03061A4628BF06444A
:105040008E42F3D34021002220460026FDF7ECFDDE
:1050500055F8040C2A684BF6803100BF2B68934248
:10506000FCD016449342A6EB03061A4628BF06441A
:105070008E42F3D370BD000070B540F200444EF292
:105080001805C5F60204402100222046CEF2000594
:105090000026FDF7C9FD55F8040C2A684BF680314F
:1050A0002B689342FCD016449342A6EB03061A46A3
:1050B00028BF06448E42F3D38021002220460026DA
:1050C000FDF7B2FD55F8040C2A684BF6803100BF9D
:1050D0002B689342FCD016449342A6EB03061A4673
:1050E00028BF06448E42F3D3402101222046FDF71B
:1050F0009BFD55F8040C2E6800214BF6803200BF52
:105100002B68B342FCD03144B342A1EB03011E46ED
:1051100028BF01449142F3D3802101222046FDF7AC
:1051200083FD55F8040C2E6800214BF6803200BF39
:105130002B68B342FCD03144B342A1EB03011E46BD
:1051400028BF01449142F3D370BD0000000000006D
:1051500080B582B044F2D8400022C5F60200016852
:1051600041F0010101600068002100F001000190A0
:1051700001980B20FDF704FE0B2002B0BDE8804033
:10518000FDF7EABD000000002DE9F04F87B044F2C2
:10519000E0404FF00009C5F60200CDF81890CDE9C7
:1051A0000499CDE90299016840F2004841F00401F8
:1051B00001600168C5F6020801F00401019101993E
:1051C000016841F0800101600168002201F0800166
:1051D00001910199016841F002010160016801F04B
:1051E000020101910199016841F008010160016823
:1051F00001F0080101910199016841F0400101604D
:10520000016801F0400101910199016841F001013B
:10521000016000684FF4435100F0010001900198D3
:105220004046FDF701FD08F500654FF447410022B7
:105230002846FDF7F9FC08F5A0563C21002230462F
:105240004FF03C0BFDF7F0FC02AF4FF440500290E2
:10525000404639464FF0010ACDE903A902240594DE
:10526000FDF70EFC4FF447403946CDE9020A2846C7
:10527000CDE90494FDF704FC30463946CDE902BA85
:10528000CDE90494FDF7FCFBC020029011203946C3
:10529000CDE9030940460594FDF7F2FB07B0BDE8F0
:1052A000F08F00000000000080B541F2BC0044F621
:1052B0000001C2F20040C4F200010C2201604FF470
:1052C000E13141600021C0E902110161C0E905211D
:1052D000C0E90711C0E90911FFF76EFC08B1FBF73F
:1052E000E3FD41F2BC000021C2F20040FFF73CFAAE
:1052F00008B1FBF7D9FD41F2BC000021C2F2004029
:10530000FFF7E6F908B1FBF7CFFD41F2BC00C2F2AE
:105310000040FFF759F9002808BF80BDBDE8804074
:10532000FBF7C2BD00000000FEE700000000000027
:10533000FEE70000000000007047000000000000D1
:1053400080B541F2501C45F25650C2F2004CC5F2F5
:10535000555041F2300240F2180E9CF80110C2F292
:105360000042C2F2004EA1FB00030020032938BF17
:105370000120107003EB4302891ADCF8023040F27E
:10538000140240F2040C0129C2F20042C2F2004CA5
:1053900007D069B900EE103AB8EE400A8EED000A67
:1053A00007E000EE103AB8EE400A8CED000A00E08B
:1053B00013609EED000A1168DCED000ABDE8804034
:1053C000FBF7D2B800000000F0B581B044F22C47E2
:1053D000C5F6020757F8042C02F00302032A02D193
:1053E000012001B0F0BD054657F82C0C0C4620F00A
:1053F000806047F82C0CFDF727FC064657F82C0C6C
:10540000000105D5FDF720FC801B0228F6D964E0D9
:1054100057F8040CEE6895E80E0020F47C30012C5F
:1054200040EA0130A2F101016FF35F214FF47E42A7
:1054300002EB432247F8040C92B24FF0FE4302EB1A
:1054400001004FF4FE012A6901EB064101F4FE015F
:1054500003EB0262084402F0FE410844F860386839
:10546000696920F0C00040EA010038603868A96925
:1054700020F0200040EA0100386038684FF6F871EB
:1054800020F0100038603869EA6920EA01004FF422
:10549000001140EAC2003861386808BF4FF480113B
:1054A00040F01000002C386008BF4FF4002138682D
:1054B0000843386057F82C0C40F0806047F82C0CFB
:1054C000FDF7C2FB044600BF57F82C0C000107D4BF
:1054D000FDF7BAFB001B0328F6D3032001B0F0BD93
:1054E000002001B0F0BD0000F0B581B044F22C47BF
:1054F000C5F6020757F8042C02F00302032A02D172
:10550000012001B0F0BD054657F82C0C0C4620F0E8
:10551000805047F82C0CFDF797FB064657F82C0CEB
:10552000800005D5FDF790FB801B0228F6D964E0CA
:1055300057F8040CEE6895E80E0020F07C70012C02
:1055400040EA0150A2F101016FF35F214FF47E4266
:1055500002EB432247F8040C92B24FF0FE4302EBF9
:1055600001004FF4FE012A6901EB064101F4FE013E
:1055700003EB0262084402F0FE4108447861386897
:10558000696920F4406040EA010038603868A96920
:1055900020F4007040EA0100386038684FF6F87176
:1055A00020F480703860B869EA6920EA01004FF0A1
:1055B000807140EAC200B861386808BF4FF400014A
:1055C00040F48070002C386008BF4FF480013868C8
:1055D0000843386057F82C0C40F0805047F82C0CEA
:1055E000FDF732FB044600BF57F82C0C800007D4AF
:1055F000FDF72AFB001B0328F6D3032001B0F0BD02
:10560000002001B0F0BD0000704700000000000065
:1056100070B54EF600139FED521AC3F2A453012A3F
:10562000B3FBF0F323F0010643F64F6306FB00F0F3
:10563000CAF6C833A0FB033548F2A013C0F27D13AD
:105640004FEA15640D4604FB130000EE100A1046E5
:10565000B8EE400A20EE010A9FED421A80EE010AE0
:10566000BCEEC00A10EE102A3ED0002818BF70BD54
:105670004FF6FF731A20C0F20F03214600F0C8F85E
:105680004FF600600021CFF6FF7000EBC6142A2011
:10569000FFF74EFC2B200121FFF74AFCC4F3014029
:1056A00040EA05012C20FFF743FCC4F307212D201D
:1056B000FFF73EFC2E200021FFF73AFC2F200021AF
:1056C000FFF736FC30200021FFF732FC31200021AB
:1056D000FFF72EFCB120A021FFF72AFC10204F215C
:1056E000BDE87040FFF724BC4FF6FF732220C0F2E4
:1056F0000F03214600F08CF84FF600600021CFF632
:10570000FF7000EBC6143220FFF712FC332001219A
:10571000FFF70EFCC4F3014040EA05013420FFF717
:1057200007FCC4F307213520FFF702FC36200021D7
:10573000FFF7FEFB37200021FFF7FAFB382000219E
:10574000FFF7F6FB39200021FFF7F2FBB120A02183
:10575000FFF7EEFB11206F21BDE87040FFF7E8BBBB
:10576000F0FF7F49D0C0BE4B80B544F2402341F2E8
:10577000390CC0F20F0341F23B0E0A469842C2F2C6
:10578000004CC2F2004E02D90121002333E04AF25C
:105790002011C0F20701884202D9022110232AE019
:1057A0004DF29001C0F20301884202D90421202366
:1057B00021E04EF64801C0F20101884202D90821D9
:1057C000302318E04FF22441884202D910214023AF
:1057D00011E047F61221884202D9202150230AE025
:1057E00043F60951884202D94021602303E008288A
:1057F00005D3802170238CF800308EF800109EF8BD
:10580000001048439CF80010BDE88040FFF700BF3F
:105810002DE9F0411D4600EE102A01EE105A044613
:10582000B8EE400AB8EE411A80EE010A9FED201A48
:1058300020EE010ABCEEC00A10EE103A03FB05F69A
:1058400003EBC118C5F30721A8F50077C6EBC21614
:10585000FFF76EFBE9B2601CC0B2FFF769FBC7F34C
:105860000141A01CC0B2FFF763FBC7F30721E01C96
:10587000C0B2FFF75DFB5FFA88F1201DC0B2FFF7F1
:1058800057FBC6F30341F02000EA1530621D0144C6
:10589000D0B2FFF74DFBC6F30721A01DC0B2FFF742
:1058A00047FBF1B2E01DC0B2BDE8F041FFF740BBDD
:1058B000000000430000000041F25010C2F200401E
:1058C0004178052988BF704702A2807852F82110DC
:1058D000087070473F10002440100024411000243D
:1058E0003C1000243D1000243E1000240000000065
:1058F000FDF7B2B90000000070B59CB044F6180482
:1059000040F22C4509A84C21C5F60204C5F6000555
:10591000FAF716FD02200026CDE90766CDE90566F7
:10592000CDE90366CDE90166FDF76AFA00962868BD
:1059300020F001002860286800F001000090206835
:1059400040F440402060206800F4404000900098FF
:1059500020688004FCD54FF6DC40CFF6FF7021585C
:1059600041F002012150205800F002000090009800
:1059700000200090206840F440402060206800F43F
:1059800040400090286840F001002860286800F03E
:1059900001000090009800BF20688004FCD5022020
:1059A000099001210C9112900025042114913C21B1
:1059B0004024CDE91510CDE917000C200D94CDE958
:1059C000190509A813951B95FEF7CEFA18B1EFF348
:1059D000108072B6FEE73F20019003200421CDE93C
:1059E000020508200694CDE904044FF48060CDE957
:1059F000070401A8FEF780F818B1EFF3108072B623
:105A0000FEE71CB070BD00004EF6885042F2000C5C
:105A1000CEF20000C5F2002C016841F47001016073
:105A2000DCF8000000F00F00062806D8DCF80000C3
:105A3000072161F30300CCF8000044F200404EF669
:105A40007F52C5F60200CEF6F622016841F0010150
:105A500001600021016103681A400260DCF8002047
:105A6000120706D5DCF80020072363F30302CCF805
:105A7000002040F200228161C161C0F20222016275
:105A800082620022C0F2FF12C26240F28022C0F2A3
:105A90000112026341638263C1630264416402686C
:105AA00022F480220260016641F20000C5F6004047
:105AB0000068B1EB507F05D148F208100121C5F212
:105AC0000010016044F2000043F2D201C5F2002050
:105AD0000160704700000000816A0A070CD4CA0701
