:020000040800F2
:10000000D87E0024AD020008E1C70008A1BE0008A8
:10001000D9C700087917000841EB0008000000006C
:1000200000000000000000000000000041CD0008BA
:10003000992300080000000059C8000811D40008E6
:10004000C7020008C7020008C7020008C70200086C
:10005000C7020008C7020008C7020008C70200085C
:10006000C7020008C7020008C7020008F918000804
:1000700009190008C7020008C7020008C7020008E3
:10008000C7020008C7020008C7020008C70200082C
:10009000C7020008C7020008C7020008C70200081C
:1000A000C7020008C7020008C7020008C70200080C
:1000B000C7020008C7020008C7020008C7020008FC
:1000C000C7020008C7020008C7020008C7020008EC
:1000D000C7020008C7020008C702000831EB000889
:1000E000C7020008C702000800000000C70200089D
:1000F000C7020008C7020008C7020008C7020008BC
:10010000C7020008C7020008C7020008C7020008AB
:10011000C7020008C7020008C7020008C70200089B
:10012000C7020008C7020008C7020008C70200088B
:10013000C7020008C7020008C7020008C70200087B
:1001400000000000000000000000000000000000AF
:10015000C7020008C7020008C7020008C70200085B
:10016000C7020008C7020008C7020008C70200084B
:10017000C7020008C7020008C7020008000000000C
:10018000C7020008C7020008C7020008C70200082B
:10019000C7020008C7020008C7020008C70200081B
:1001A000C7020008C7020008C7020008C70200080B
:1001B000C7020008C7020008C7020008C7020008FB
:1001C000C7020008C7020008C7020008C7020008EB
:1001D000C7020008C7020008C7020008C7020008DB
:1001E000C7020008C7020008C7020008C7020008CB
:1001F000C7020008C7020008C7020008C7020008BB
:10020000C7020008C7020008C7020008C7020008AA
:10021000C7020008C7020008C7020008C70200089A
:10022000C7020008C7020008C7020008000000005B
:10023000C7020008C702000800000000C70200084B
:10024000C7020008C7020008C7020008C70200086A
:10025000C7020008C7020008C7020008C70200085A
:10026000C7020008C7020008C7020008C70200084A
:10027000C7020008C7020008C7020008000000000B
:10028000C7020008C7020008C702000800000000FB
:1002900000000000C7020008DFF80CD000F048FAA8
:1002A00000480047710C0108D87E002406488047AA
:1002B00006480047FEE7FEE7FEE7FEE7FEE7FEE74B
:1002C000FEE7FEE7FEE7FEE771D5000899020008A9
:1002D0002DE9F05F0546002092469B46884606467B
:1002E000814640241BE0284641464746224600F00E
:1002F00057F853465A46C01A914110D31146184632
:10030000224600F03EF82D1A67EB01084F462246C0
:100310000120002100F035F817EB00094E41201EA6
:10032000A4F10104DFDC484631462A464346BDE8D5
:10033000F09FD2B201E000F8012B491EFBD27047BA
:100340000022F6E710B513460A4604461946FFF7A1
:10035000F0FF204610BD30B50B460146002020229C
:10036000012409E021FA02F59D4205D303FA02F5C2
:10037000491B04FA02F52844151EA2F10102F1DC22
:1003800030BD202A04DB203A00FA02F10020704739
:100390009140C2F1200320FA03F3194390407047C3
:1003A000202A04DB203A21FA02F00021704721FACA
:1003B00002F3D040C2F12002914008431946704731
:1003C0002DE9FE4F804681EA0300C00F0C460090E5
:1003D00021F0004123F00045B8EB0200A94105D20D
:1003E0004046214690461C460B46024623F00040FC
:1003F000104347D0270DC7F30A00C3F30A510290F8
:10040000401A019040286BDAC3F3130040F4801BBC
:100410000098924620B10023D2EB030A63EB0B0B4A
:1004200001985946C0F140025046FFF7AAFF064620
:100430000D4650465946019A00F092F910EB08001B
:100440006141002487EA115284EAE7731A4340D0DD
:10045000009A62B3019A012A4FEA075215DC001B89
:1004600061EB02014FF0004202EA0752CDE900427F
:10047000001C41F5801132462B4600F092F903B082
:10048000BDE8F08F40462146F9E7001B61EB020111
:10049000001C41F5801300185B412018A2F50017DD
:1004A00047EB030140EAD570B6196D4111E06D08C4
:1004B0004FEA360645EAC0754FEA0752001B61EB6A
:1004C0000201001C41F5801149084FEA3000001973
:1004D000514132462B4603B0BDE8F04F00F052B90F
:1004E0000098012240000023D0EB020263EBE0738E
:1004F000009821464FEAE074B8EB000061EB04017C
:10050000E9E783F000435BE781F0004158E72DE91C
:10051000FE4F81EA030404F0004421F000410094FE
:100520004FF0000B23F0004350EA01045ED052EA82
:1005300003045BD0C3F30A54C1F30A552C44A4F25C
:10054000F3340194A0FB0254C1F3130141F4801170
:10055000C3F3130343F4801301FB024400FB034E77
:10056000840A970A44EA815447EA8357A4FB076840
:1005700002958D0A05FB07854FEA932C04FB0C546A
:100580002705029D4FEA065847EA1637B5EB0805DE
:100590006EEB070C870E920E47EA811742EA831230
:1005A000A7FB0201B6EB0B0164EB00042B0D43EA41
:1005B0000C335E1844EB1C50DA465146E7FB02014F
:1005C000C5F313044FEA0B3343EA14534FEA0432E2
:1005D000019C43EA0603A4F10C040294009CCDE9BB
:1005E00000B400F0DEF803B0BDE8F08F0020014653
:1005F000F9E72DE9F04D81EA030404F0004B21F006
:10060000004514464FF0000A23F0004150EA05026D
:1006100020D054EA01021DD0C5F30A570246C5F3A3
:100620001303C1F31300C1F30A5640F4801543F4D9
:100630008013A7EB0608101BD64608F2FD3873EBB3
:10064000050002D308F1010801E092185B41B8F1FE
:10065000000F03DA00200146BDE8F08D00204FF4C2
:100660008011064684460EE0171B73EB050705D381
:10067000121B63EB050306434CEA010C49084FEAE1
:10068000300092185B4150EA0107EDD152EA0300B5
:1006900012D082EA040083EA0501084305D0101B4A
:1006A000AB4106D20122002306E000224FF00043B6
:1006B00002E06FF0010253101AEB06004CEB0851F8
:1006C00010EB0A0041EB0B01BDE8F04D00F05AB809
:1006D000C1F30A52C1F3130140F2FF3341F4801118
:1006E0009A4202DA00200146704740F233439A42B0
:1006F000A2F2334202DC5242FFF752BEFFF741BE84
:1007000030B5041E71F1000404DB4FF00044404298
:1007100064EB0101141E73F1000405DB1C464FF06D
:100720000043524263EB0403994208BF904230BD3C
:100730001CB509480090094801900546009C06E058
:10074000E06840F0010394E8070098471034AC4299
:10075000F6D3FFF7A5FD000004490108244901086C
:10076000202A06DBCB17203A41FA02F043EAE07375
:1007700006E041FA02F3D040C2F120029140084362
:100780001946704710B5141E73F1000408DA401CB6
:1007900041F1000192185B411A4301D120F00100A0
:1007A00010BD2DE9F04D92469B4611B1B1FA81F290
:1007B00002E0B0FA80F220329046FFF7E2FD0446F4
:1007C0000F4640EA0A0041EA0B0153465A460843E5
:1007D00013D0114653EA010019D0C8F14002504627
:1007E000FFF7DEFD05460E46504659464246FFF7E6
:1007F000C8FD084305D0012004E020463946BDE885
:10080000F08D0020054346EAE0762C4337430A98F2
:100810006305E40AA0EB08000022FD0A44EA4754FD
:100820000A3002D500200146E9E7010510196941A7
:10083000DDE9084500196941BDE8F04DA2E770B552
:100840008D1810F8014B14F0030201D110F8012BA0
:10085000231106D110F8013B03E010F8016B01F8F9
:10086000016B521EF9D1ABB110F8012B04F00C044E
:100870008A1A0C2C03D0A2EB84129B1C08E010F8FF
:10088000014BA2EB0422F8E712F8014B01F8014BEF
:100890005B1EF9D5A942D4D3002070BD0000000032
:1008A00080B590B041F60000C5F602000D90202101
:1008B0000C91012206F0E4FB0C990D9800220E9297
:1008C00006F0DEFB0D980E9A102106F0D9FB0E986B
:1008D0000EF086F90E980F90FFE70F9803280DDCB5
:1008E000FFE70F9940F20C00C2F20040405C0EF0AE
:1008F00077F9FFE70F9801300F90EEE741F600001F
:10090000C5F6020008901021099101220A9206F012
:10091000B7FB0A2001F044FD0898099900220B92C8
:1009200006F0AEFB0A980EF05BF90B980F90FFE70C
:100930000F9803280DDCFFE70F9940F21000C2F278
:100940000040405C0EF04CF9FFE70F9801300F902B
:10095000EEE741F60000C5F6020005901021069171
:10096000012206F08DFB0A2001F01AFD0598069978
:100970000022079206F084FB02200EF031F907985E
:100980000F90FFE70F9803280DDCFFE70F9940F267
:100990001400C2F20040405C0EF022F9FFE70F980D
:1009A00001300F90EEE741F60000C5F6020010217D
:1009B0000122009206F064FB0A20019001F0F0FC95
:1009C000019801F0EDFC40F60040C5F602000290EF
:1009D0004FF4004103910022049206F051FB01986C
:1009E00001F0DEFC009A0298039906F049FB019899
:1009F00001F0D6FC02980399049A06F041FB10B06E
:100A000080BD00000000000080B5A6B08DF8970002
:100A10008DED240A2391CDED220A9DF8970001283F
:100A200020D1FFE79DED240ABDEEC00A10EE101A9A
:100A300042F6EC00C0F6010010F000FA239942F6ED
:100A40009000C0F6010010F0F9F99DED220ABDEE0C
:100A5000C00A10EE101A42F6BE00C0F6010010F0F7
:100A6000EDF918E09DED240ABDEEC00A10EE101A53
:100A700042F6D500C0F6010010F0E0F99DED220A23
:100A8000BDEEC00A10EE101A42F6A700C0F6010033
:100A900010F0D4F9FFE79DED240ABCEEC00A10EE79
:100AA000100A0CF0B5FB44F260002090C020C0F2A8
:100AB00000401F900020CFF601701E9041F600000C
:100AC000C5F6020010210022139206F0D9FA1398FD
:100AD0000EF086F813981D90FFE71D9803280ADC96
:100AE000FFE71D9920A8405C0EF07AF8FFE71D98FB
:100AF00001301D90F1E741F60000C5F602001090AC
:100B000010211191012206F0BBFA0A2001F048FCE5
:100B10001098119941F22C02C2F2004292ED000AA3
:100B2000B8EE400A9DED241A9FEDA72A21EE021A85
:100B300080EE010ABCEEC00A8DED1C0A1C9A120A56
:100B40008DF879201C9A8DF87A200022129206F0F6
:100B500097FA0E200EF044F812981B90FFE71B98AE
:100B600007280ADCFFE71B991EA8405C0EF038F846
:100B7000FFE71B9801301B90F1E741F60000C5F636
:100B800002000C9010210D9100220E9206F078FACE
:100B90000E9A40F60040C5F602000A904FF400415C
:100BA0000B9106F06DFA0A20099001F0F9FB0A9802
:100BB0000B99012206F064FA099801F0F1FB0A98FA
:100BC0000B990E9A06F05CFA0C980D990E9A9DED11
:100BD000220AB7EEC00A9FED741B20EE010BBCEE9B
:100BE000C00B10EE103AADF86A309DED230AB8EE56
:100BF000C00B9FED6F1B80EE010B9FED6F1B20EE76
:100C0000010BBDEEC00B8DED190A06F039FA162066
:100C10000DF0E6FF9DF8970001460F9120B1FFE728
:100C20000F98012806D00BE040F22400C2F20040E9
:100C3000219005E041F22400C2F200402190FFE73C
:100C400000201890FFE71898B0F5806F5ADAFFE798
:100C50009DF89700012817D1FFE718981999884245
:100C600007DAFFE7BDF86A00800003300DF06CFF83
:100C700009E0BDF86A100320C7F6FF7040EA810062
:100C80000DF062FFFFE738E02198189900EB810032
:100C90004088000417902198189930F821008008A6
:100CA000ADF85A00BDF85A0000EE100AB8EEC00BBD
:100CB000BDF86A0001EE100AB8EEC11B9FED402B93
:100CC00081EE021B20EE010BBCEEC00B10EE100AF1
:100CD000ADF85800BDF858102198189A50F8220025
:100CE00000F0030040EA8100ADF856001798BDF807
:100CF000561008430DF028FFFFE7FFE71898013072
:100D00001890A0E741F60000C5F6020006901021F9
:100D10000791012206F0B4F906980799002208927B
:100D200006F0AEF908980DF05BFF08989DF880106A
:100D300041F080018DF880101490FFE7149803288B
:100D40000ADCFFE7149920A8405C0DF049FFFFE79B
:100D5000149801301490F1E741F60000C5F6020046
:100D600010210122019206F08BF940F60040C5F6F1
:100D7000020003904FF4004104910022059206F016
:100D80007FF90A20029001F00BFB019A0398049965
:100D900006F076F9029801F003FB03980499059A8E
:100DA00006F06EF926B080BDE17A14AE47D1364028
:100DB00000000000000059400000000000009040CA
:100DC0000000000080FFCF400000804500000000D0
:100DD00080B588B047F6BC20C2F2004040780528B4
:100DE0000CDCFFE741F23801C2F20041012008703B
:100DF00044F66C00C2F20040079014E047F6BC20B5
:100E0000C2F20040407806280CDBFFE741F23801CF
:100E1000C2F200410020087044F66900C2F20040AE
:100E20000790FFE7FFE70020C4F2A010069044F20D
:100E30000000C4F29C60059047F6BC20C2F200405E
:100E40004078C00738B9FFE7012002900698049067
:100E50000598039007E04FF0FF300290059804904A
:100E600006980390FFE747F6BC20C2F200404078A6
:100E70004AF6AA22C2F6AA224AF6AB21CAF6AA214B
:100E800000FB01204FEA70004AF6AB21C2F6AA210E
:100E9000884212D3FFE747F6BC20C2F200404078F8
:100EA0004AF6AB21C2F6AA21A0FB012101EB4101C8
:100EB000A0EB410001286BD1FFE744F65801C2F2D4
:100EC000004101200870049840F21C01C2F2004168
:100ED0000860FFE740F21C00C2F2004090ED000AFB
:100EE0009DED051A0020B4EE410AF1EE10FA0190D2
:100EF0001BDCFFE740F21C00C2F2004090ED000A4C
:100F00009DED061A0020B4EE410AF1EE10FA0190B0
:100F10000BDBFFE744F65800C2F2004000780138CE
:100F2000B0FA80F040090190FFE70198C00770B364
:100F3000FFE7FFF7B5FC41F23800C2F2004000784D
:100F400040F21C01C2F20041009191ED000A40F212
:100F50001801C2F20041096840F20802C2F20042E0
:100F6000D2ED000AFFF750FD642005F03DFE009829
:100F70000299079A1278514300EE101AB8EEC01A7F
:100F800090ED000A30EE010A80ED000AA2E7FFE7CB
:100F900047F6BC20C2F2004040784AF6AB21C2F6C8
:100FA000AA21A0FB012101EB4101A0EB4100022895
:100FB00012D0FFE747F6BC20C2F2004040784AF664
:100FC000AB21C2F6AA21A0FB012101EB4101A0EB5C
:100FD0004100032813D1FFE7029807994978484355
:100FE00000EE100AB8EEC01A40F20800C2F200404B
:100FF00090ED000A30EE010A80ED000A30E047F67D
:10100000BC20C2F2004040784AF6AB21C2F6AA21C9
:10101000A0FB012101EB4101A0EB4100042812D00B
:10102000FFE747F6BC20C2F2004040784AF6AB2109
:10103000C2F6AA21A0FB012101EB4101A0EB410076
:1010400005280CD1FFE7029807998A7840F2180129
:10105000C2F200410B6800FB02300860FFE7FFE7C7
:10106000FFF71EFC41F23800C2F20040007840F267
:101070001C01C2F2004191ED000A40F21801C2F2D7
:101080000041096840F20802C2F20042D2ED000AB3
:10109000FFF7BAFC08B080BD80B584B00390039818
:1010A000006842F20001C4F20201884209D0FFE761
:1010B0000398006842F20011C4F20201884209D18B
:1010C000FFE742F20830C4F20200006810F4403F2B
:1010D00009D129E046F20830C5F60200006810F494
:1010E000403F21D0FFE708F0FBFD029003984068E5
:1010F0000190B0F5803F0AD0FFE70198B0F5003FBE
:1011000005D0FFE70198B0F5403F07D00AE003980B
:10111000C1880298B0FBF1F0029004E002988008C8
:10112000029000E0FFE75FE04FF40020002106F0AE
:1011300013FD0290039840680090B0F5802F32D0E4
:10114000FFE70098B0F5002F2DD0FFE70098B0F52D
:10115000402F28D0FFE70098B0F5801F23D0FFE78D
:101160000098B0F5A01F1ED0FFE70098B0F5C01F93
:1011700019D0FFE70098B0F5E01F1FD0FFE70098F7
:10118000B0F5001F1ED0FFE70098B0F5101F1DD06E
:10119000FFE70098B0F5201F1CD0FFE70098B0F5DE
:1011A000301F1BD01EE0039841686FF0010000EA79
:1011B00051410298B0FBF1F0029014E0029800094E
:1011C000029010E00298400902900CE00298800919
:1011D000029008E00298C009029004E00298000A18
:1011E000029000E0FFE7FFE705F062FF41F2030134
:1011F000884217D8FFE7029842F60151C0F2311138
:10120000884207D3FFE703980168886840F480703C
:10121000886006E003980168886820F48070886020
:10122000FFE743E0029840080290029845F61061FB
:10123000C0F25F01884209D8FFE703980068806820
:1012400020F440700399096888602EE002984BF6FC
:101250002041C0F2BE0188420AD8FFE70398006827
:101260008068012161F309200399096888601BE007
:10127000029847F64001C0F27D1188420AD8FFE784
:10128000039800688068022161F3092003990968C6
:10129000886008E003980068806840F44070039913
:1012A00009688860FFE7FFE7FFE7FFE704B080BD5C
:1012B00080B58AB0089007910020059007980490A7
:1012C000089800680AF07CFF0290089800680AF00D
:1012D0002FFF0190029828B9FFE70198002800F03D
:1012E000A880FFE708980068C0688001002836D50C
:1012F000FFE70898407D012831D1FFE70898007D7D
:1013000001282CD1FFE701200490FFE7089800682E
:10131000006800F040010020B0EB911F1AD1FFE7F8
:1013200005984DF60041C0F20C0188420ED3FFE74C
:101330000899486D40F0100048650899886D40F0A4
:101340000100886501208DF8270076E005980130BE
:101350000590DBE70898016840200860FFE70498E3
:10136000022813D0FFE7089800680AF029FF60B14F
:10137000FFE7089800680AF003FF28B9FFE708981C
:1013800000680AF079FFFFE7FFE7FFE7049801280C
:1013900013D0FFE7089800680AF0CAFE60B1FFE7C3
:1013A000089800680AF0ECFE28B9FFE70898006882
:1013B0000AF0C6FEFFE7FFE7FFE704980090022867
:1013C00007D0FFE70098032806D1FFE70C20039021
:1013D00005E00820039002E004200390FFE705F0F9
:1013E0006FFE0690FFE7089800688068039908423E
:1013F0001ED0FFE705F064FE0699401A062816D3B2
:10140000FFE7089800688068039908420ED0FFE75C
:101410000899486D40F0100048650899886D40F0C3
:101420000100886501208DF8270006E0FFE7DAE774
:10143000FFE700208DF82700FFE79DF827000AB09E
:1014400080BD00000000000080B582B001900198CE
:10145000806B00900098406D10F0500F4AD1FFE76C
:101460000099486D40F40070486500980068006875
:101470000007002821D5FFE7009800680AF0B0FEB9
:10148000D0B1FFE700980068C0688004002812D43B
:10149000FFE70099486D20F4807048650098406D22
:1014A000C004002806D4FFE70099486D40F0010011
:1014B0004865FFE7FFE7FFE718E000980068C068AD
:1014C000800790B9FFE70099486D20F48070486567
:1014D0000098406DC004002806D4FFE70099486DCD
:1014E00040F001004865FFE7FFE7FFE7009801F0E3
:1014F0008FFE10E00098406DC006002804D5FFE77D
:10150000009801F0A1FE05E00098C06CC16C019844
:101510008847FFE7FFE702B080BD00000000000041
:1015200080B582B001900198806B00900099486D61
:1015300040F0400048650099886D40F004008865DF
:10154000009801F081FE02B080BD000000000000A4
:1015500080B582B001900198806B0090009801F0F6
:101560006FFE02B080BD000080B584B0029002988A
:1015700000680AF005FE0090029800680AF008FE74
:1015800000284BD0FFE70098002847D1FFE70298DA
:101590000068806800F00D00012809D1FFE702987B
:1015A00000680AF079FD02980168032008600DE0E8
:1015B0000299486D40F0100048650299886D40F02E
:1015C0000100886501208DF80F002BE005F078FD03
:1015D0000190FFE7029800688068C007E8B1FFE764
:1015E00005F06EFD0199401A032815D3FFE7029814
:1015F00000688068C00770B1FFE70299486D40F04D
:10160000100048650299886D40F00100886501204E
:101610008DF80F0006E0FFE7DCE7FFE700208DF81C
:101620000F00FFE79DF80F0004B080BD0000000030
:1016300080B586B00490049800680AF0A9FD0028DF
:1016400040F09280FFE70498006880683F21C8F26C
:10165000000108420ED0FFE70499486D40F01000E9
:1016600048650499886D40F00100886501208DF877
:1016700017007DE0049800680AF02AFD05F020FDBF
:10168000039004980168012042F20002C4F20202B1
:10169000914201900CD0FFE7049800684DF600716C
:1016A000CBF6FD710844B0FA80F040090190FFE7E5
:1016B0000198C10746F20030C5F6020000291CBFA0
:1016C00042F20030C4F202000AF02AFD02900498AF
:1016D000006842F20011C4F20201884206D1FFE71D
:1016E00042F20000C4F20200009003E00498006897
:1016F0000090FFE7009804990968884203D0FFE74B
:10170000029880BBFFE7FFE7049800680068C00705
:1017100040BBFFE7049800680AF03AFD28B9FFE7EC
:10172000049800680AF0D4FCFFE705F0C9FC0399AF
:10173000401A032815D3FFE7049800680068C00723
:1017400070B9FFE70499486D40F0100048650499AE
:10175000886D40F00100886501208DF8170007E0D2
:10176000FFE7D1E7FFE7FFE700208DF81700FFE76D
:101770009DF8170006B080BDFFE7FEE700000000FF
:1017800080B582B041F64900C2F2004001780131D3
:1017900001F003010170007802280FD1FFE700F08B
:1017A000A3FE47F68800C2F2004041F24201C2F2B5
:1017B00000414FF4806201F0BBFF94E041F6490024
:1017C000C2F200400078012854D1FFE747F6DC1050
:1017D000C2F2004009F0B0FB00F0FAFD00F04CFE50
:1017E00040F22000C2F2004090ED000A41F64400B1
:1017F000C2F2004090ED001AB8EEC11A20EE010AC4
:10180000B7EEC00A9FED3A1B80EE010BBCEEC00B99
:101810008DED010A0198010243F60000C1F69C40DB
:10182000B0FBF1F0013847F68401C2F200410880B4
:10183000FFE747F68400C2F20040028847F6DC1159
:10184000C2F200410B68DA620088C860FFE747F621
:10185000DC10C2F2004009F0F3FA47F68800C2F249
:10186000004041F24201C2F200414FF4806201F0B7
:101870005FFF37E041F64900C2F2004000780328DC
:101880002FD1FFE747F6DC10C2F2004009F054FB0D
:1018900047F68401C2F2004142F20F700880FFE770
:1018A00047F68400C2F20040028847F6DC11C2F21B
:1018B00000410B68DA620088C860FFE747F6DC1079
:1018C000C2F2004009F0BCFA47F68800C2F20040BC
:1018D00041F24201C2F200414FF4806201F028FF60
:1018E000FFE7FFE7FFE702B080BD00BF00BF00BF1A
:1018F000000000000000904080B547F66410C2F27E
:10190000004003F059F880BD80B547F6EC00C2F204
:10191000004003F051F880BD83B002900298016846
:1019200001201022C4F202029142009000F0A38034
:10193000FFE70298016801202822C4F202029142C6
:10194000009000F09880FFE7029801680120402293
:10195000C4F202029142009000F08D80FFE70298ED
:10196000016801205822C4F202029142009000F066
:101970008280FFE70298016801207022C4F202020F
:101980009142009077D0FFE70298016801208822F9
:10199000C4F20202914200906DD0FFE70298016804
:1019A0000120A022C4F202029142009063D0FFE71E
:1019B000029801680120B822C4F20202914200900C
:1019C00059D0FFE702980168012040F21042C4F2AA
:1019D0000202914200904ED0FFE702980168012078
:1019E00040F22842C4F202029142009043D0FFE745
:1019F00002980168012040F24042C4F20202914282
:101A0000009038D0FFE702980168012040F2584268
:101A1000C4F20202914200902DD0FFE702980168C3
:101A2000012040F27042C4F202029142009022D0A2
:101A3000FFE702980168012040F28842C4F20202E6
:101A40009142009017D0FFE702980168012040F210
:101A5000A042C4F20202914200900CD0FFE702982B
:101A600000684FF64831CBF6FD710844B0FA80F0BB
:101A700040090090FFE70098C00740B3FFE70298D5
:101A8000007810384AF6AB21CAF6AA21A0FB011053
:101A900000090190019800F0070141F62820C0F6E6
:101AA0000100405C0299C8650198042807D3FFE74C
:101AB00002990868042262F30900886506E0029929
:101AC000086840F2FF3290438865FFE705E002991D
:101AD000086820F0FF008865FFE70298806D03B07A
:101AE000704700000000000084B003900398006875
:101AF000019003980168012045F20842C5F60202F0
:101B0000914200904ED0FFE703980168012045F212
:101B10001C42C5F602029142009043D0FFE70398B1
:101B20000168012045F23042C5F602029142009060
:101B300038D0FFE703980168012045F24442C5F61A
:101B40000202914200902DD0FFE703980168012026
:101B500045F25842C5F602029142009022D0FFE7BA
:101B600003980168012045F26C42C5F602029142D9
:101B7000009017D0FFE703980168012045F28042EA
:101B8000C5F60202914200900CD0FFE7039800686E
:101B90004AF66C31CAF2FD710844B0FA80F040098F
:101BA0000090FFE70098C00710B3FFE703980078A4
:101BB00008384CF6CD41CCF6CC41A0FB0110000911
:101BC0000290029945F60000C5F6020000EB810084
:101BD00003990866039945F68000C5F60200486639
:101BE000029800F01F01012088400399886635E0C3
:101BF0000398007810384AF6AB21CAF6AA21A0FB58
:101C0000011000090290019840F2B841C4F20201AB
:101C100088420CD8FFE7019840F21041C4F202015B
:101C2000884204D3FFE7029808300290FFE7029948
:101C300040F60000C4F2020000EB81000399086640
:101C4000039940F68000C4F202004866029800F052
:101C50001F010120884003998866FFE704B07047A0
:101C600083B002900298007901900198002800F05A
:101C70008A80FFE70198082800F28580FFE7029834
:101C80000168012045F20842C5F602029142009027
:101C90004ED0FFE702980168012045F21C42C5F6CC
:101CA00002029142009043D0FFE7029801680120B0
:101CB00045F23042C5F602029142009038D0FFE76B
:101CC00002980168012045F24442C5F602029142A1
:101CD00000902DD0FFE702980168012045F258429C
:101CE000C5F602029142009022D0FFE702980168F7
:101CF000012045F26C42C5F602029142009017D0D5
:101D0000FFE702980168012045F28042C5F6020211
:101D1000914200900CD0FFE7029800684AF66C31BF
:101D2000CAF2FD710844B0FA80F040090090FFE764
:101D30000098C00780B1FFE7019945F6FC00C5F6A1
:101D4000020000EB81000299C866029945F6401036
:101D5000C5F6020008670FE0019940F6FC00C4F2E6
:101D6000020000EB81000299C866029940F640101B
:101D7000C4F202000867FFE70198411E0120884075
:101D800002994867FFE703B07047000000000000B9
:101D900085B0049000208DF80F000498806918BB6E
:101DA000FFE70498806A029003281BD80299DFE8B5
:101DB00001F0020D0218049890F82F00C00720B11E
:101DC000FFE701208DF80F00FFE70CE00498C06AE0
:101DD000B0F1C07F04D1FFE701208DF80F00FFE7CD
:101DE00001E000E0FFE747E004988069B0F5005F9C
:101DF00026D1FFE70498806A019003281ED8019934
:101E0000DFE801F00206021101208DF80F0016E054
:101E1000049890F82F00C00720B1FFE701208DF84B
:101E20000F00FFE70BE00498C06AB0F1C07F04D157
:101E3000FFE701208DF80F00FFE700E0FFE71AE061
:101E40000498806A0090032804D3FFE700980328D1
:101E500004D00EE001208DF80F000BE0049890F8FC
:101E60002F00C00720B1FFE701208DF80F00FFE72A
:101E700000E0FFE7FFE7FFE79DF80F0005B07047C0
:101E800089B008900791069205930898806D049098
:101E90000898806D03900898016801201022C4F210
:101EA00002029142029000F00381FFE70898016866
:101EB00001202822C4F202029142029000F0F88030
:101EC000FFE70898016801204022C4F20202914213
:101ED000029000F0ED80FFE7089801680120582289
:101EE000C4F202029142029000F0E280FFE70898FB
:101EF000016801207022C4F202029142029000F0B7
:101F0000D780FFE70898016801208822C4F2020206
:101F10009142029000F0CC80FFE708980168012010
:101F2000A022C4F202029142029000F0C180FFE7B9
:101F3000089801680120B822C4F20202914202907E
:101F400000F0B680FFE708980168012040F21042D7
:101F5000C4F202029142029000F0AA80FFE70898C2
:101F60000168012040F22842C4F20202914202902C
:101F700000F09E80FFE708980168012040F240428F
:101F8000C4F202029142029000F09280FFE70898AA
:101F90000168012040F25842C4F2020291420290CC
:101FA00000F08680FFE708980168012040F2704247
:101FB000C4F20202914202907AD0FFE708980168C9
:101FC000012040F28842C4F20202914202906FD096
:101FD000FFE708980168012040F2A042C4F2020223
:101FE0009142029064D0FFE708980168012040F216
:101FF000B842C4F202029142029059D0FFE7089819
:102000000168012045F20842C5F6020291420290A1
:102010004ED0FFE708980168012045F21C42C5F642
:1020200002029142029043D0FFE708980168012024
:1020300045F23042C5F602029142029038D0FFE7E5
:1020400008980168012045F24442C5F60202914217
:1020500002902DD0FFE708980168012045F2584210
:10206000C5F602029142029022D0FFE7089801686B
:10207000012045F26C42C5F602029142029017D04F
:10208000FFE708980168012045F28042C5F6020288
:10209000914202900CD0FFE7089800684AF66C3134
:1020A000CAF2FD710844B0FA80F040090290FFE7DF
:1020B0000298C00770B1FFE70898416E806E4860D3
:1020C0000898C06E28B1FFE70898016F406F48601C
:1020D000FFE7FFE70898016801201022C4F202021E
:1020E0009142019000F0A380FFE708980168012069
:1020F0002822C4F202029142019000F09880FFE78A
:102100000898016801204022C4F202029142019025
:1021100000F08D80FFE70898016801205822C4F282
:1021200002029142019000F08280FFE70898016866
:1021300001207022C4F202029142019077D0FFE7A1
:102140000898016801208822C4F20202914201909D
:102150006DD0FFE7089801680120A022C4F20202B6
:102160009142019063D0FFE7089801680120B822EE
:10217000C4F202029142019059D0FFE70898016829
:10218000012040F21042C4F20202914201904ED06E
:10219000FFE708980168012040F22842C4F20202D9
:1021A0009142019043D0FFE708980168012040F276
:1021B0004042C4F202029142019038D0FFE70898F1
:1021C0000168012040F25842C4F20202914201909B
:1021D0002DD0FFE708980168012040F27042C4F258
:1021E00002029142019022D0FFE708980168012085
:1021F00040F28842C4F202029142019017D0FFE7F8
:1022000008980168012040F2A042C4F20202914203
:1022100001900CD0FFE7089800684FF64831CBF6E4
:10222000FD710844B0FA80F040090190FFE7019881
:10223000C00750B3FFE70898C06D00F01F013F20B2
:1022400088400499886008980168086820F4802014
:1022500008600598089909684860089880684028CF
:1022600009D1FFE7069808990968886007980899D6
:102270000968C86008E007980899096888600698A6
:1022800008990968C860FFE782E0089801680120A2
:1022900045F20842C5F60202914200904ED0FFE797
:1022A00008980168012045F21C42C5F602029142DD
:1022B000009043D0FFE708980168012045F23042C2
:1022C000C5F602029142009038D0FFE708980168F5
:1022D000012045F24442C5F60202914200902DD001
:1022E000FFE708980168012045F25842C5F602024E
:1022F0009142009022D0FFE708980168012045F242
:102300006C42C5F602029142009017D0FFE7089890
:102310000168012045F28042C5F602029142009018
:102320000CD0FFE7089800684AF66C31CAF2FD71DC
:102330000844B0FA80F040090090FFE70098C00719
:1023400020B3FFE70898C06D00F01F01012088400E
:10235000039948600598089909684860089880685A
:10236000402809D1FFE7069808990968886007980E
:1023700008990968C86008E00798089909688860A2
:10238000069808990968C860FFE700E0FFE7FFE7E3
:1023900009B0704700000000704700000000000016
:1023A00081B08DF80300FFE7FFE79DF803000138D7
:1023B0008DF8030000060028F6D1FFE701B0704752
:1023C00081B0EFF3108072B60090FFE7FEE70000E7
:1023D00080B582B041F64B01C2F200410120087085
:1023E0000EF0E2FC00200190FFE70198B0F5806F4D
:1023F00027DAFFE7019946F68400C2F2004000EBBD
:10240000810090ED000A41F24200C2F2004030F833
:10241000110001EE100AB8EEC11A20EE010A41F6D1
:102420004C00C2F2004000EBC10181ED000A0199AD
:1024300000EBC10100204860FFE7019801300190E6
:10244000D3E742F66800C0F6010041F64C01C2F243
:1024500000410091002201230CF0CEFC009843F6CD
:102460004C01C2F200414FF480620DF099FC02B0C1
:1024700080BD00000000000082B041F64401C2F2BD
:10248000004100200860019002200090FFE70098C2
:10249000B0F5007F25DAFFE7009943F64C00C2F261
:1024A000004000EB810090ED000A9DED011AB4EEB2
:1024B000410AF1EE10FA0FDDFFE7009943F64C00F8
:1024C000C2F2004050F821000190009841F644010A
:1024D000C2F200410860FFE7FFE70098013000907A
:1024E000D5E702B07047000084B044F66001C2F244
:1024F000004148F28040C4F22E104860002008607D
:1025000044F65001C2F20041486008600390029016
:102510000190FFE70198B0F5806F7BDAFFE7019942
:1025200041F24200C2F2004030F8110000EE100A01
:10253000B8EEC00B9FED441B20EE010B9FED441B3A
:1025400080EE010B44F68000C2F2004000EBC101B6
:1025500081ED000B019900EBC10090ED000B44F6FA
:102560005000C2F2004090ED001BB4EE410BF1EEC2
:1025700010FA10DDFFE7019944F68000C2F2004036
:1025800000EBC10090ED000B44F65000C2F2004099
:1025900080ED000BFFE7019944F68000C2F2004095
:1025A00000EBC10090ED000B44F66000C2F2004069
:1025B00090ED001BB4EE410BF1EE10FA10DAFFE7DC
:1025C000019944F68000C2F2004000EBC10090ED9A
:1025D000000B44F66000C2F2004080ED000BFFE704
:1025E000019944F68000C2F2004000EBC10090ED7A
:1025F000000B9FED191B30EE010BB0EEC01B9DEDE3
:10260000020B30EE010B8DED020BFFE7019801305C
:1026100001907FE79DED020B9FED071B80EE010B04
:102620009FED071B20EE010B44F67800C2F200403C
:1026300080ED000B04B070470000000000009040E7
:102640001E1581669EA0F63F6666666666660A404F
:1026500000000000E0FFEF40666666666666FABF4F
:1026600080B586B004900391029200200090FFE7AD
:10267000049890F85000012804D1FFE702208DF85B
:1026800017005BE00499012081F85000FFE7FFE7A5
:102690000498FEF769FF8DF807009DF80700E0BB7E
:1026A000FFE70498406D40F0020020F48850049940
:1026B0004865049800680399029A09F089FEFFE7CB
:1026C0000498006809F04CFDF0B1FFE70098013074
:1026D000009000984FF60001C2F2C351884212D315
:1026E000FFE70498406D40F0100020F002000499CC
:1026F0004865FFE70499002081F85000FFE70120BA
:102700008DF817001AE0DBE70498406D40F00100F7
:1027100020F002000499486505E00499486D40F0F6
:1027200010004865FFE7FFE70499002081F850009A
:10273000FFE79DF807008DF81700FFE79DF81700E9
:1027400006B080BD0000000080B5A6B024902391A3
:1027500000208DF88B002398006808B1FFE7FFE7A1
:10276000FFE7249890F85000012804D1FFE70220E9
:102770008DF897002DE12499012081F85000FFE7A2
:10278000FFE700201D901E902498006842F200018F
:10279000C4F20201884206D1FFE742F20010C4F2FF
:1027A0000200089002E000200890FFE7089878B93E
:1027B000FFE72499486D40F020004865FFE7249921
:1027C000002081F85000FFE701208DF8970000E11C
:1027D000089809F0FDFC07902498006809F0F8FCBF
:1027E000002840F0E280FFE70798002840F0DD80F5
:1027F000FFE724980168012042F20002C4F20202BD
:10280000914206900CD0FFE7249800684DF60071C5
:10281000CBF6FD710844B0FA80F040090690FFE75E
:102820000698C10746F20030C5F6020000291CBF19
:1028300042F20030C4F20200219023980068002880
:102840005ED0FFE72198806820F4404023994968D2
:1028500008432199886024980168012042F200020F
:10286000C4F20202914205900CD0FFE72498006860
:102870004DF60071CBF6FD710844B0FA80F04009C6
:102880000590FFE70598C10746F20030C5F6020043
:1028900000291CBF42F20030C4F2020042F20031B3
:1028A000C4F20201884212D1FFE742F20000C4F2F2
:1028B000020009F075FC039042F20010C4F202001D
:1028C00009F06EFC014603980843049007E046F2C5
:1028D0000000C5F6020009F063FC0490FFE70498CD
:1028E00068B9FFE72198806840F61F718843239AF2
:1028F000116892681143084321998860FFE753E00B
:102900002199886820F4404088602498016801205B
:1029100042F20002C4F20202914202900CD0FFE7A0
:10292000249800684DF60071CBF6FD710844B0FAAA
:1029300080F040090290FFE70298C10746F200309C
:10294000C5F6020000291CBF42F20030C4F20200AA
:1029500042F20031C4F20201884212D1FFE742F292
:102960000000C4F2020009F01BFC009042F20010CB
:10297000C4F2020009F014FC0146009808430190DB
:1029800007E046F20000C5F6020009F009FC0190DC
:10299000FFE7019838B9FFE72199886840F61F7270
:1029A00090438860FFE7FFE708E02499486D40F016
:1029B0002000486501208DF88B00FFE7FFE7249990
:1029C000002081F85000FFE79DF88B008DF89700FC
:1029D000FFE79DF8970026B080BD000000000000D2
:1029E00080B5B0B01E901D9100208DF87300199035
:1029F0001E9890F83800012801D1FFE700E0FFE7BA
:102A00001D98C0680021C4F2FF71884201D0FFE721
:102A10001EE01E98006842F20001C4F202018842E2
:102A200001D1FFE7FFE71E98006842F20011C4F2EF
:102A30000201884201D1FFE7FFE71E98006846F2D5
:102A40000001C5F60201884201D1FFE7FFE7FFE779
:102A5000FFE71E9890F85000012804D1FFE70220FC
:102A60008DF87F00CDE31E99012081F85000FFE72B
:102A7000FFE71E98006809F0A3FB002840F0AD8333
:102A8000FFE71D98C078000600282DD4FFE71D98A9
:102A90000068000330B9FFE71D980068C0F3846048
:102AA000169015E01D98006890FAA0F02E902E98D0
:102AB00020B9FFE720208DF8BF0005E02E98B0FA7E
:102AC00080F08DF8BF00FFE79DF8BF001690FFE78C
:102AD000169800F01F01012000FA01F21E9801680B
:102AE000C8691043C861FFE71E9800681D990A680D
:102AF000496809F091FB1E98006809F061FB189085
:102B00001E98006809F014FB17901898002840F0F0
:102B1000B580FFE71798002840F0B080FFE71E98C7
:102B200000681D9A1168926809F0B6FB41F2000036
:102B3000C5F60040006800F07040B0F1805F0BD136
:102B4000FFE71D9840691E990968C96801F01C01DA
:102B50004908884015901FE01E980068C068C006AC
:102B600000280BD4FFE71D9840691E990968C968C1
:102B700001F01C014908884014900AE01D98406942
:102B80001E990968C96801F010014908884014902D
:102B9000FFE714981590FFE715981B901D980069A2
:102BA000042821D0FFE71E9800681D990A6809696A
:102BB0001B9B09F0DDFB1E9800681D9A1169527E6F
:102BC000013AB2FA82F25209D20709F0EDFB1E98DF
:102BD00000681D9A1169127E013AB2FA82F2520916
:102BE000D20209F0B1FB48E01E980068006E00F0C8
:102BF000F8401D990968B0EB816F07D1FFE71E9877
:102C00000168086E20F000400866FFE71E98006823
:102C1000406E00F0F8401D990968B0EB816F07D154
:102C2000FFE71E980168486E20F000404866FFE705
:102C30001E980068806E00F0F8401D990968B0EB9E
:102C4000816F07D1FFE71E980168886E20F0004071
:102C50008866FFE71E980068C06E00F0F8401D9976
:102C60000968B0EB816F07D1FFE71E980168C86E55
:102C700020F00040C866FFE7FFE7FFE71E98006806
:102C800009F086FA002840F0A782FFE71E98006846
:102C90001D9A1168D26809F01BFB1D98C0680021BD
:102CA000C4F2FF71884240F03381FFE71E9800684C
:102CB00013901D980068000330B9FFE71D98006865
:102CC000C0F38460129015E01D98006890FAA0F09F
:102CD0002C902C9820B9FFE720208DF8B70005E054
:102CE0002C98B0FA80F08DF8B700FFE79DF8B70098
:102CF0001290FFE71298013000F01F0009287DD8DC
:102D0000FFE71D980068000330B9FFE71D980068D1
:102D1000C0F38460119015E01D98006890FAA0F04F
:102D20002A902A9820B9FFE720208DF8AF0005E00F
:102D30002A98B0FA80F08DF8AF00FFE79DF8AF0059
:102D40001190FFE71198013000F01F0080061090ED
:102D50001D980068000330B9FFE71D980068C0F3B4
:102D600084600F9015E01D98006890FAA0F02890FC
:102D7000289820B9FFE720208DF8A70005E02898C3
:102D8000B0FA80F08DF8A700FFE79DF8A7000F903C
:102D9000FFE710980F99013101F01F0201219140C6
:102DA00008430E901D980068000330B9FFE71D9896
:102DB0000068C0F384600D9015E01D98006890FADB
:102DC000A0F02690269820B9FFE720208DF89F00DC
:102DD00005E02698B0FA80F08DF89F00FFE79DF897
:102DE0009F000D90FFE70E980D99013101F01F0132
:102DF00001EB410140EA01500C9082E01D9800680F
:102E0000000330B9FFE71D980068C0F384600B90A1
:102E100015E01D98006890FAA0F02490249820B93D
:102E2000FFE720208DF8970005E02498B0FA80F0A5
:102E30008DF89700FFE79DF897000B90FFE70B9840
:102E4000013000F01F0080060A901D980068000302
:102E500030B9FFE71D980068C0F38460099015E061
:102E60001D98006890FAA0F02290229820B9FFE700
:102E700020208DF88F0005E02298B0FA80F08DF8C0
:102E80008F00FFE79DF88F000990FFE70A980999E6
:102E9000013101F01F0201219140084308901D9863
:102EA0000068000330B9FFE71D980068C0F3846034
:102EB000079015E01D98006890FAA0F020902098E7
:102EC00020B9FFE720208DF8870005E02098B0FAB0
:102ED00080F08DF88700FFE79DF887000790FFE7F7
:102EE00008990798013000F01F0000EB4002002015
:102EF000CFF6206000EB0250084340F000700C90C9
:102F0000FFE713980C991D9A926809F0C5F9FFE73D
:102F10001D98C0780006002840F15D81FFE71E98EB
:102F20000168012042F20002C4F2020291420690BE
:102F30000CD0FFE71E9800684DF60071CBF6FD71CE
:102F40000844B0FA80F040090690FFE70698C107F0
:102F500046F20030C5F6020000291CBF42F20030E4
:102F6000C4F2020009F0D4F81A901E9801684FF0DC
:102F7000010042F20002C4F20202914205900CD01C
:102F8000FFE71E9800684DF60071CBF6FD7108440E
:102F9000B0FA80F040090590FFE70598C10746F2B6
:102FA0000030C5F6020000291CBF42F20030C4F216
:102FB000020042F20031C4F20201884212D1FFE75E
:102FC00042F20000C4F2020009F0E2F8039042F27B
:102FD0000010C4F2020009F0DBF801460398084330
:102FE000049007E046F20000C5F6020009F0D0F8B0
:102FF0000490FFE70498002840F0E380FFE71D9865
:1030000000680021CCF68431884255D1FFE79DF855
:103010006A00000600284FD4FFE71E98006846F2B9
:103020000001C5F60201884245D1FFE71E980168FC
:10303000012042F20002C4F20202914202900CD03E
:10304000FFE71E9800684DF60071CBF6FD7108444D
:10305000B0FA80F040090290FFE70298C10746F2FB
:103060000030C5F6020000291CBF42F20030C4F255
:1030700002001A9941F4000109F056F941F23000BA
:10308000C2F2004000684FEA901042F66351C0F26D
:103090003E51A0FB01104FEA90114FF0020000EBEF
:1030A00041001990FFE7199820B1FFE719980138FE
:1030B0001990F8E7FFE783E01D9800680021CCF243
:1030C0005271884238D1FFE79DF86B00C00798BB6A
:1030D000FFE71E98006846F20001C5F6020188422B
:1030E00029D1FFE71E980168012042F20002C4F2D4
:1030F0000202914201900CD0FFE71E9800684DF645
:103100000071CBF6FD710844B0FA80F040090190DF
:10311000FFE70198C10746F20030C5F6020000291A
:103120001CBF42F20030C4F202001A9941F08071D3
:1031300009F0FAF8FFE742E01D9800680021CCF69C
:10314000B871884239D1FFE79DF86A00400600282F
:1031500033D4FFE71E98006846F20001C5F602016D
:10316000884229D1FFE71E980168012042F200023F
:10317000C4F20202914200900CD0FFE71E98006852
:103180004DF60071CBF6FD710844B0FA80F04009AD
:103190000090FFE70098C10746F20030C5F6020034
:1031A00000291CBF42F20030C4F202001A9941F417
:1031B000800109F0B9F8FFE700E0FFE7FFE7FFE76C
:1031C00008E01E99486D40F02000486501208DF808
:1031D0007300FFE7FFE7FFE708E01E99486D40F046
:1031E0002000486501208DF87300FFE7FFE71E9976
:1031F000002081F85000FFE79DF873008DF87F00F4
:10320000FFE79DF87F0030B080BD000000000000A7
:1032100080B582B00190019847F68801C2F2004162
:1032200088420AD1FFE7019800F072FB41F24001A9
:10323000C2F2004101200870FFE702B080BD00002B
:1032400081B0009001B0704781B0009001B070472C
:1032500010B58CB00A9000208DF8270006900A98CF
:1032600020B9FFE701208DF82F00D1E10A98C0684E
:1032700038B1FFE70A98007F012801D1FFE7FFE797
:10328000FFE70A98406D50B9FFE70A9800F0C4F9CB
:103290000A99002088650A9981F85000FFE70A988A
:1032A000006808F065FF28B1FFE70A98006808F099
:1032B00003FFFFE70A98006808F07AFFE8B9FFE724
:1032C0000A98006808F014FF41F23000C2F2004092
:1032D0000068800942F66351C0F23E51A0FB010133
:1032E000012000EB91100690FFE7069820B1FFE760
:1032F000069801380690F8E7FFE70A98006808F09A
:1033000057FF70B9FFE70A99486D40F01000486513
:103310000A99886D40F00100886501208DF827002A
:10332000FFE70A98006808F04BFF07900A98406D85
:10333000C006002800F15E81FFE70798002840F0F2
:103340005981FFE70A98406D40F0020020F4807038
:103350000A9948650A98006808F01AFF002870D199
:10336000FFE70A980168012042F20002C4F202025B
:10337000914203900CD0FFE70A9800684DF6007167
:10338000CBF6FD710844B0FA80F040090390FFE7E6
:103390000398C10746F20030C5F6020000291CBFA1
:1033A00042F20030C4F2020042F20031C4F20201E3
:1033B000884212D1FFE742F20000C4F2020008F096
:1033C000E7FE019042F20010C4F2020008F0E0FEB5
:1033D000014601980843029007E046F20000C5F656
:1033E000020008F0D5FE0290FFE7029840BBFFE71D
:1033F0000A980168012042F20002C4F202029142DE
:1034000000900CD0FFE70A9800684DF60071CBF6EB
:10341000FD710844B0FA80F040090090FFE7009881
:10342000C10746F20030C5F6020000291CBF42F277
:103430000030C4F202000A99496808F065FFFFE70E
:10344000FFE703F035FE41F20401884213D3FFE7A2
:103450000A98806810280ED1FFE70A994A7D086B08
:1034600040EA42308A681043097F40EA014040F058
:103470000C0008900BE00A994A7D086B40EA423044
:103480008A681043097F40EA01400890FFE70A98E4
:10349000007F01280BD1FFE70A98016A0020CFF6D0
:1034A000FE7000EB4141089808430890FFE70A9836
:1034B000406A50B1FFE70A99486A896A00F4787057
:1034C0000143089808430890FFE70A980068C0681D
:1034D0004CF20301CFF6F0710840089908430A99AD
:1034E0000968C8600A98006808F06AFE05900A98A2
:1034F000006808F01DFE04900598002859D1FFE7E8
:103500000498002855D1FFE70A98017DC06A40EA77
:10351000813008900A980068C06844F2030188432B
:10352000089908430A990968C8600A9890F8380011
:10353000012829D1FFE70A98406A20B1FFE70A98DD
:10354000806A08B9FFE7FFE70A98006800694FF64C
:103550001E01CFF6004100EA01020A9B1968DC6BEC
:10356000D3F840E0D3F844C00020CFF6FF7000EB62
:10357000044040EA0E0040EA0C009B6C18431043E4
:1035800040F00100086106E00A980168086920F02F
:1035900001000861FFE70A980068006920F07040A8
:1035A0000A9A1168526B104308610A98FDF774FD7E
:1035B000FFE70A98C06801280CD1FFE70A98006865
:1035C000006B20F00F000A9A11689269013A1043CB
:1035D000086306E00A980168086B20F00F00086392
:1035E000FFE70A98406D40F0010020F002000A99C0
:1035F000486508E00A99486D40F0100048650120D0
:103600008DF82700FFE79DF827008DF82F00FFE7D2
:103610009DF82F000CB010BD80B5BAB039900020D5
:103620003890379036903590349004A8C021FCF73C
:1036300087FE3998006842F20001C4F20201884214
:1036400071D1FFE7002005904FF400210491022181
:1036500006910C220792089109910A91C0210B91C1
:1036600020210C910D902D9004A805F09DF818B123
:10367000FFE7FEF7A5FEFFE7FFE744F2D840C5F6F7
:103680000200016841F020010160006800F02000A4
:1036900003900398FFE7FFE744F2E040C5F602001D
:1036A000016841F001010160006800F00100029032
:1036B0000298FFE70120349003203590002000900D
:1036C00036900020C5F6020034A903F0F5FA0099FF
:1036D00047F6EC00C2F2004001902822C4F2020238
:1036E0000260092242608160C1604FF48062026121
:1036F0004FF4006242614FF400528261C161016285
:10370000416202F039FA18B1FFE7FEF759FEFFE710
:10371000FFE7399847F6EC01C2F20041C1643998DD
:103720008863FFE7FFE73AB080BD000000000000BB
:1037300080B588B006900591049206980168012032
:1037400042F20002C4F20202914201900CD0FFE763
:10375000069800684DF60071CBF6FD710844B0FA8A
:1037600080F040090190FFE70198C10746F2003060
:10377000C5F6020000291CBF42F20030C4F202006C
:1037800008F0CEFC02900698006808F019FD0028A9
:1037900040F0AF80FFE7FFE7069890F8500001285F
:1037A00004D1FFE702208DF81F00ABE0069901204D
:1037B00081F85000FFE7FFE7029848B1FFE7029861
:1037C000052805D0FFE70298092840F08780FFE729
:1037D0000698FDF72DFF8DF80F009DF80F000028CB
:1037E00074D1FFE70698406D40F4807040F60161A7
:1037F0008843069948650698006842F20011C4F2B1
:103800000201884206D1FFE742F20000C4F2020042
:10381000009003E0069800680090FFE70098069982
:103820000968884203D0FFE7029830B9FFE706999C
:10383000486D20F480104865FFE70698406DC0048D
:10384000002806D5FFE70699886D20F006008865F8
:1038500003E0069900208865FFE70698C16C41F2F5
:103860004940C0F60000C8630698C16C41F251504F
:10387000C0F6000008640698C16C41F22150C0F601
:103880000000C864069801681C200860FFE70699DC
:10389000002081F85000FFE706980168486840F072
:1038A0001000486006990868C96A08F0A5FC0698E7
:1038B0000168C06C4031059A049B02F011FE8DF83E
:1038C0000F000698006808F0C7FC06E0FFE70699BD
:1038D000002081F85000FFE7FFE709E001208DF8A4
:1038E0000F00FFE70699002081F85000FFE7FFE78F
:1038F00003E002208DF80F00FFE79DF80F008DF820
:103900001F00FFE79DF81F0008B080BD0000000009
:1039100080B584B00290FFE7029890F8500001282B
:1039200004D1FFE702208DF80F002DE0029901205D
:1039300081F85000FFE7FFE702980321FDF7B8FC8C
:103940008DF807009DF8070098B9FFE70298FDF78A
:103950000BFE8DF807009DF8070048B9FFE70298B5
:10396000406D40F0010020F4885002994865FFE75F
:10397000FFE7FFE70299002081F85000FFE79DF87C
:1039800007008DF80F00FFE79DF80F0004B080BD21
:1039900080B58AB0089003F093FB0490089828B98A
:1039A000FFE701208DF8270000F0AABC089890F8E6
:1039B000350002280ED0FFE7089980204865FFE710
:1039C0000899002081F83400FFE701208DF82700D6
:1039D00000F096BC0898016801201022C4F202028F
:1039E0009142039000F0A380FFE70898016801204E
:1039F0002822C4F202029142039000F09880FFE76F
:103A00000898016801204022C4F20202914203900A
:103A100000F08D80FFE70898016801205822C4F269
:103A200002029142039000F08280FFE7089801684B
:103A300001207022C4F202029142039077D0FFE786
:103A40000898016801208822C4F202029142039082
:103A50006DD0FFE7089801680120A022C4F202029D
:103A60009142039063D0FFE7089801680120B822D3
:103A7000C4F202029142039059D0FFE7089801680E
:103A8000012040F21042C4F20202914203904ED053
:103A9000FFE708980168012040F22842C4F20202C0
:103AA0009142039043D0FFE708980168012040F25B
:103AB0004042C4F202029142039038D0FFE70898D6
:103AC0000168012040F25842C4F202029142039080
:103AD0002DD0FFE708980168012040F27042C4F23F
:103AE00002029142039022D0FFE70898016801206A
:103AF00040F28842C4F202029142039017D0FFE7DD
:103B000008980168012040F2A042C4F202029142EA
:103B100003900CD0FFE7089800684FF64831CBF6C9
:103B2000FD710844B0FA80F040090390FFE7039864
:103B3000C00780B1FFE708980168086820F01E0000
:103B4000086008980168486920F08000486108987A
:103B50000068059009E008980168086820F00E00E8
:103B60000860089800680590FFE708980168012040
:103B70001022C4F202029142029000F00381FFE79A
:103B80000898016801202822C4F2020291420290A2
:103B900000F0F880FFE70898016801204022C4F295
:103BA00002029142029000F0ED80FFE70898016860
:103BB00001205822C4F202029142029000F0E280F9
:103BC000FFE70898016801207022C4F202029142C6
:103BD000029000F0D780FFE7089801680120882252
:103BE000C4F202029142029000F0CC80FFE70898F4
:103BF00001680120A022C4F202029142029000F06A
:103C0000C180FFE7089801680120B822C4F20202CF
:103C10009142029000F0B680FFE708980168012009
:103C200040F21042C4F202029142029000F0AA80D7
:103C3000FFE708980168012040F22842C4F202021E
:103C40009142029000F09E80FFE7089801680120F1
:103C500040F24042C4F202029142029000F092808F
:103C6000FFE708980168012040F25842C4F20202BE
:103C70009142029000F08680FFE7089801680120D9
:103C800040F27042C4F20202914202907AD0FFE701
:103C900008980168012040F28842C4F20202914271
:103CA00002906FD0FFE708980168012040F2A0421F
:103CB000C4F202029142029064D0FFE708980168C2
:103CC000012040F2B842C4F202029142029059D05F
:103CD000FFE708980168012045F20842C5F6020294
:103CE000914202904ED0FFE708980168012045F20A
:103CF0001C42C5F602029142029043D0FFE70898A9
:103D00000168012045F23042C5F60202914202905C
:103D100038D0FFE708980168012045F24442C5F613
:103D20000202914202902DD0FFE70898016801201D
:103D300045F25842C5F602029142029022D0FFE7B6
:103D400008980168012045F26C42C5F602029142D2
:103D5000029017D0FFE708980168012045F28042E1
:103D6000C5F60202914202900CD0FFE70898006865
:103D70004AF66C31CAF2FD710844B0FA80F040098D
:103D80000290FFE70298C00738B1FFE70898016E7C
:103D9000086820F480700860FFE708980068102128
:103DA000C4F20201884200F08180FFE708980068B1
:103DB0002821C4F20201884278D0FFE70898006801
:103DC0004021C4F20201884270D0FFE708980068E1
:103DD0005821C4F20201884268D0FFE708980068C1
:103DE0007021C4F20201884260D0FFE708980068A1
:103DF0008821C4F20201884258D0FFE70898006881
:103E0000A021C4F20201884250D0FFE70898006860
:103E1000B821C4F20201884248D0FFE70898006840
:103E200040F21041C4F2020188423FD0FFE70898F7
:103E3000006840F22841C4F20201884236D0FFE710
:103E40000898006840F24041C4F2020188422DD037
:103E5000FFE70898006840F25841C4F20201884226
:103E600024D0FFE70898006840F27041C4F20201D4
:103E700088421BD0FFE70898006840F28841C4F2EE
:103E80000201884212D0FFE70898006840F2A04182
:103E9000C4F20201884209D0FFE70898006840F2A6
:103EA000B841C4F20201884207D1FFE708980168CF
:103EB000086820F00100086006E0089801680868BA
:103EC00020F001000860FFE7FFE705980068C007E1
:103ED000C8B1FFE703F0F4F80499401A062811D39B
:103EE000FFE70899202048650899032081F83500EC
:103EF000FFE70899002081F83400FFE701208DF8E2
:103F00002700FDE1E1E70898016801201022C4F2D2
:103F100002029142019000F0A380FFE70898016837
:103F200001202822C4F202029142019000F0988000
:103F3000FFE70898016801204022C4F20202914282
:103F4000019000F08D80FFE7089801680120582259
:103F5000C4F202029142019000F08280FFE70898CB
:103F6000016801207022C4F202029142019077D0D0
:103F7000FFE70898016801208822C4F202029142FA
:103F800001906DD0FFE7089801680120A022C4F2DB
:103F900002029142019063D0FFE708980168012076
:103FA000B822C4F202029142019059D0FFE708986A
:103FB0000168012040F21042C4F2020291420190D5
:103FC0004ED0FFE708980168012040F22842C4F271
:103FD00002029142019043D0FFE708980168012056
:103FE00040F24042C4F202029142019038D0FFE711
:103FF00008980168012040F25842C4F2020291423E
:1040000001902DD0FFE708980168012040F270422E
:10401000C4F202029142019022D0FFE708980168A1
:10402000012040F28842C4F202029142019017D06E
:10403000FFE708980168012040F2A042C4F20202A2
:10404000914201900CD0FFE7089800684FF6483184
:10405000CBF6FD710844B0FA80F040090190FFE70B
:104060000198C00760B1FFE70898806D0790089835
:10407000C06D00F01F013F208840079988600BE069
:104080000898806D06900898C06D00F01F0101200F
:10409000884006994860FFE70898016801201022CF
:1040A000C4F202029142009000F00381FFE70898F9
:1040B000016801202822C4F202029142009000F01F
:1040C000F880FFE70898016801204022C4F202024C
:1040D0009142009000F0ED80FFE708980168012010
:1040E0005822C4F202029142009000F0E280FFE701
:1040F0000898016801207022C4F2020291420090E7
:1041000000F0D780FFE70898016801208822C4F2F8
:1041100002029142009000F0CC80FFE7089801680D
:104120000120A022C4F202029142009000F0C1805E
:10413000FFE7089801680120B822C4F20202914208
:10414000009000F0B680FFE708980168012040F277
:104150001042C4F202029142009000F0AA80FFE7F0
:1041600008980168012040F22842C4F202029142FC
:10417000009000F09E80FFE708980168012040F25F
:104180004042C4F202029142009000F09280FFE7A8
:1041900008980168012040F25842C4F2020291429C
:1041A000009000F08680FFE708980168012040F247
:1041B0007042C4F20202914200907AD0FFE7089860
:1041C0000168012040F28842C4F20202914200904C
:1041D0006FD0FFE708980168012040F2A042C4F2C6
:1041E00002029142009064D0FFE708980168012024
:1041F00040F2B842C4F202029142009059D0FFE767
:1042000008980168012045F20842C5F60202914271
:1042100000904ED0FFE708980168012045F21C424B
:10422000C5F602029142009043D0FFE7089801686A
:10423000012045F23042C5F602029142009038D08A
:10424000FFE708980168012045F24442C5F60202E2
:10425000914200902DD0FFE708980168012045F2B7
:104260005842C5F602029142009022D0FFE708981A
:104270000168012045F26C42C5F6020291420090AD
:1042800017D0FFE708980168012045F28042C5F683
:104290000202914200900CD0FFE7089800684AF6AD
:1042A0006C31CAF2FD710844B0FA80F04009009008
:1042B000FFE70098C007A0B1FFE70898416E806E45
:1042C00048600898C06E58B1FFE70898C16E08684A
:1042D00020F4807008600898016F406F4860FFE725
:1042E000FFE70899012081F83500FFE708990020D1
:1042F00081F83400FFE7FFE700208DF82700FFE793
:104300009DF827000AB080BD80B586B0049004985F
:1043100020B9FFE701208DF8170046E3049890F8D4
:104320003500022807D0FFE7049980204865012066
:104330008DF8170039E30498016801201022C4F2B7
:1043400002029142029000F0A380FFE70498016806
:1043500001202822C4F202029142029000F09880CB
:10436000FFE70498016801204022C4F20202914252
:10437000029000F08D80FFE7049801680120582228
:10438000C4F202029142029000F08280FFE704989A
:10439000016801207022C4F202029142029077D09B
:1043A000FFE70498016801208822C4F202029142CA
:1043B00002906DD0FFE7049801680120A022C4F2AA
:1043C00002029142029063D0FFE704980168012045
:1043D000B822C4F202029142029059D0FFE7049839
:1043E0000168012040F21042C4F2020291420290A0
:1043F0004ED0FFE704980168012040F22842C4F241
:1044000002029142029043D0FFE704980168012024
:1044100040F24042C4F202029142029038D0FFE7DB
:1044200004980168012040F25842C4F2020291420D
:1044300002902DD0FFE704980168012040F27042FD
:10444000C4F202029142029022D0FFE70498016870
:10445000012040F28842C4F202029142029017D039
:10446000FFE704980168012040F2A042C4F2020272
:10447000914202900CD0FFE7049800684FF6483153
:10448000CBF6FD710844B0FA80F040090290FFE7D6
:104490000298C007002800F09D80FFE704990420DF
:1044A00081F83500049800681021C4F202018842A6
:1044B00000F08180FFE7049800682821C4F202011F
:1044C000884278D0FFE7049800684021C4F20201D6
:1044D000884270D0FFE7049800685821C4F20201B6
:1044E000884268D0FFE7049800687021C4F2020196
:1044F000884260D0FFE7049800688821C4F2020176
:10450000884258D0FFE704980068A021C4F2020155
:10451000884250D0FFE704980068B821C4F2020135
:10452000884248D0FFE70498006840F21041C4F286
:10453000020188423FD0FFE70498006840F228411A
:10454000C4F20201884236D0FFE70498006840F2C6
:104550004041C4F2020188422DD0FFE70498006870
:1045600040F25841C4F20201884224D0FFE7049887
:10457000006840F27041C4F2020188421BD0FFE79C
:104580000498006840F28841C4F20201884212D0C7
:10459000FFE70498006840F2A041C4F2020188429B
:1045A00009D0FFE70498006840F2B841C4F2020164
:1045B000884207D1FFE704980168086820F00100ED
:1045C000086006E004980168086820F001000860AF
:1045D000FFE7E5E104980168086820F00E00086034
:1045E000049800681021C4F20201884200F0818022
:1045F000FFE7049800682821C4F20201884278D0BD
:10460000FFE7049800684021C4F20201884270D09C
:10461000FFE7049800685821C4F20201884268D07C
:10462000FFE7049800687021C4F20201884260D05C
:10463000FFE7049800688821C4F20201884258D03C
:10464000FFE704980068A021C4F20201884250D01C
:10465000FFE704980068B821C4F20201884248D0FC
:10466000FFE70498006840F21041C4F2020188425A
:104670003FD0FFE70498006840F22841C4F20201ED
:10468000884236D0FFE70498006840F24041C4F207
:10469000020188422DD0FFE70498006840F258419B
:1046A000C4F20201884224D0FFE70498006840F277
:1046B0007041C4F2020188421BD0FFE704980068F1
:1046C00040F28841C4F20201884212D0FFE7049808
:1046D000006840F2A041C4F20201884209D0FFE71D
:1046E0000498006840F2B841C4F20201884207D140
:1046F000FFE704980168086820F00100086006E000
:1047000004980168086820F001000860FFE7049839
:10471000016801201022C4F202029142019000F0CF
:104720000381FFE70498016801202822C4F20202F5
:104730009142019000F0F880FFE7049801680120A1
:104740004022C4F202029142019000F0ED80FFE7A6
:104750000498016801205822C4F20202914201909B
:1047600000F0E280FFE70498016801207022C4F2A3
:1047700002029142019000F0D780FFE7049801689F
:1047800001208822C4F202029142019000F0CC8004
:10479000FFE7049801680120A022C4F202029142BE
:1047A000019000F0C180FFE7049801680120B82261
:1047B000C4F202029142019000F0B680FFE7049833
:1047C0000168012040F21042C4F2020291420190BD
:1047D00000F0AA80FFE704980168012040F2284217
:1047E000C4F202029142019000F09E80FFE704981B
:1047F0000168012040F24042C4F20202914201905D
:1048000000F09280FFE704980168012040F25842CE
:10481000C4F202029142019000F08680FFE7049802
:104820000168012040F27042C4F2020291420190FC
:104830007AD0FFE704980168012040F28842C4F270
:104840000202914201906FD0FFE7049801680120B5
:1048500040F2A042C4F202029142019064D0FFE70C
:1048600004980168012040F2B842C4F20202914269
:10487000019059D0FFE704980168012045F20842F1
:10488000C5F60202914201904ED0FFE704980168FC
:10489000012045F21C42C5F602029142019043D02C
:1048A000FFE704980168012045F23042C5F6020294
:1048B0009142019038D0FFE704980168012045F249
:1048C0004442C5F60202914201902DD0FFE70498C0
:1048D0000168012045F25842C5F60202914201905A
:1048E00022D0FFE704980168012045F26C42C5F62A
:1048F00002029142019017D0FFE70498016801205D
:1049000045F28042C5F60202914201900CD0FFE7C9
:10491000049800684AF66C31CAF2FD710844B0FA96
:1049200080F040090190FFE70198C00728B3FFE736
:104930000498016E086820F4807008600498806D07
:1049400003900498C06D00F01F0101208840039976
:1049500048600498416E806E48600498C06E58B1FB
:10496000FFE70498C16E086820F48070086004981E
:10497000016F406F4860FFE7FFE70499012081F86D
:104980003500FFE70499002081F83400FFE7049820
:10499000006D20B1FFE70498016D8847FFE7FFE74E
:1049A000FFE700208DF81700FFE79DF8170006B01D
:1049B00080BD00000000000080B590B00F90002086
:1049C0000B9041F23000C2F20040006848F2B5118D
:1049D000C1F64E31A0FB0110800A0A900F98806D3D
:1049E00009900F98806D0890099800680E900898BB
:1049F00000680D900F98016801201022C4F2020295
:104A00009142079000F0A380FFE70F980168012012
:104A10002822C4F202029142079000F09880FFE73A
:104A20000F98016801204022C4F2020291420790CF
:104A300000F08D80FFE70F98016801205822C4F232
:104A400002029142079000F08280FFE70F98016810
:104A500001207022C4F202029142079077D0FFE752
:104A60000F98016801208822C4F202029142079047
:104A70006DD0FFE70F9801680120A022C4F2020266
:104A80009142079063D0FFE70F9801680120B82298
:104A9000C4F202029142079059D0FFE70F980168D3
:104AA000012040F21042C4F20202914207904ED01F
:104AB000FFE70F980168012040F22842C4F2020289
:104AC0009142079043D0FFE70F980168012040F220
:104AD0004042C4F202029142079038D0FFE70F989B
:104AE0000168012040F25842C4F20202914207904C
:104AF0002DD0FFE70F980168012040F27042C4F208
:104B000002029142079022D0FFE70F98016801202E
:104B100040F28842C4F202029142079017D0FFE7A8
:104B20000F980168012040F2A042C4F202029142B3
:104B300007900CD0FFE70F9800684FF64831CBF68E
:104B4000FD710844B0FA80F040090790FFE707982C
:104B5000C007002800F01385FFE70E980F99C96D74
:104B600001F01F01C8400007002840F1B080FFE7B6
:104B70000F9800681021C4F20201884200F0818081
:104B8000FFE70F9800682821C4F20201884278D01C
:104B9000FFE70F9800684021C4F20201884270D0FC
:104BA000FFE70F9800685821C4F20201884268D0DC
:104BB000FFE70F9800687021C4F20201884260D0BC
:104BC000FFE70F9800688821C4F20201884258D09C
:104BD000FFE70F980068A021C4F20201884250D07C
:104BE000FFE70F980068B821C4F20201884248D05C
:104BF000FFE70F98006840F21041C4F202018842BA
:104C00003FD0FFE70F98006840F22841C4F202014C
:104C1000884236D0FFE70F98006840F24041C4F266
:104C2000020188422DD0FFE70F98006840F25841FA
:104C3000C4F20201884224D0FFE70F98006840F2D6
:104C40007041C4F2020188421BD0FFE70F98006850
:104C500040F28841C4F20201884212D0FFE70F9867
:104C6000006840F2A041C4F20201884209D0FFE787
:104C70000F98006840F2B841C4F20201884207D19F
:104C8000FFE70F980068006800F00400069006E057
:104C90000F980068006800F008000690FFE706988B
:104CA000A0B1FFE70F980168086820F004000860D1
:104CB0000F98C06D00F01F01082088400999886096
:104CC0000F99486D40F001004865FFE7FFE70E9837
:104CD0000F99C96D01F01F01C840C007002800F0FE
:104CE000A980FFE70F9800681021C4F202018842F2
:104CF00000F08180FFE70F9800682821C4F20201CC
:104D0000884278D0FFE70F9800684021C4F2020182
:104D1000884270D0FFE70F9800685821C4F2020162
:104D2000884268D0FFE70F9800687021C4F2020142
:104D3000884260D0FFE70F9800688821C4F2020122
:104D4000884258D0FFE70F980068A021C4F2020102
:104D5000884250D0FFE70F980068B821C4F20201E2
:104D6000884248D0FFE70F98006840F21041C4F233
:104D7000020188423FD0FFE70F98006840F22841C7
:104D8000C4F20201884236D0FFE70F98006840F273
:104D90004041C4F2020188422DD0FFE70F9800681D
:104DA00040F25841C4F20201884224D0FFE70F9834
:104DB000006840F27041C4F2020188421BD0FFE754
:104DC0000F98006840F28841C4F20201884212D074
:104DD000FFE70F98006840F2A041C4F20201884248
:104DE00009D0FFE70F98006840F2B841C4F2020111
:104DF000884207D1FFE70F980068406900F0800003
:104E0000059005E00F980068006800200590FFE716
:104E1000059870B1FFE70F98C06D00F01F010120E9
:104E20008840099988600F99486D40F002004865F4
:104E3000FFE7FFE70E980F99C96D01F01F01C84009
:104E40004007002840F1A980FFE70F980068102173
:104E5000C4F20201884200F08180FFE70F980068E9
:104E60002821C4F20201884278D0FFE70F98006839
:104E70004021C4F20201884270D0FFE70F98006819
:104E80005821C4F20201884268D0FFE70F980068F9
:104E90007021C4F20201884260D0FFE70F980068D9
:104EA0008821C4F20201884258D0FFE70F980068B9
:104EB000A021C4F20201884250D0FFE70F98006899
:104EC000B821C4F20201884248D0FFE70F98006879
:104ED00040F21041C4F2020188423FD0FFE70F9830
:104EE000006840F22841C4F20201884236D0FFE750
:104EF0000F98006840F24041C4F2020188422DD070
:104F0000FFE70F98006840F25841C4F2020188425E
:104F100024D0FFE70F98006840F27041C4F202010C
:104F200088421BD0FFE70F98006840F28841C4F226
:104F30000201884212D0FFE70F98006840F2A041BA
:104F4000C4F20201884209D0FFE70F98006840F2DE
:104F5000B841C4F20201884207D1FFE70F98006808
:104F6000006800F00200049005E00F9800680068F7
:104F700000200490FFE7049870B1FFE70F98C06D20
:104F800000F01F0104208840099988600F99486D3E
:104F900040F004004865FFE7FFE70E980F99C96DE0
:104FA00001F01F01C840C006002840F1DE80FFE785
:104FB0000F9800681021C4F20201884200F081803D
:104FC000FFE70F9800682821C4F20201884278D0D8
:104FD000FFE70F9800684021C4F20201884270D0B8
:104FE000FFE70F9800685821C4F20201884268D098
:104FF000FFE70F9800687021C4F20201884260D078
:10500000FFE70F9800688821C4F20201884258D057
:10501000FFE70F980068A021C4F20201884250D037
:10502000FFE70F980068B821C4F20201884248D017
:10503000FFE70F98006840F21041C4F20201884275
:105040003FD0FFE70F98006840F22841C4F2020108
:10505000884236D0FFE70F98006840F24041C4F222
:10506000020188422DD0FFE70F98006840F25841B6
:10507000C4F20201884224D0FFE70F98006840F292
:105080007041C4F2020188421BD0FFE70F9800680C
:1050900040F28841C4F20201884212D0FFE70F9823
:1050A000006840F2A041C4F20201884209D0FFE743
:1050B0000F98006840F2B841C4F20201884207D15B
:1050C000FFE70F980068006800F00800039006E012
:1050D0000F980068006800F004000390FFE7039851
:1050E000002841D0FFE70F98C06D00F01F0110208D
:1050F0008840099988600F9800680068400300287C
:105100001AD5FFE70F98006800680003002809D44B
:10511000FFE70F98006C20B1FFE70F98016C8847FC
:10512000FFE708E00F98806C20B1FFE70F98816CD3
:105130008847FFE7FFE716E00F9800680068C005A2
:10514000002807D4FFE70F980168086820F00800DE
:105150000860FFE70F98006C20B1FFE70F98016C23
:105160008847FFE7FFE7FFE7FFE70E980F99C96D54
:1051700001F01F01C8408006002840F12681FFE7AA
:105180000F9800681021C4F20201884200F081806B
:10519000FFE70F9800682821C4F20201884278D006
:1051A000FFE70F9800684021C4F20201884270D0E6
:1051B000FFE70F9800685821C4F20201884268D0C6
:1051C000FFE70F9800687021C4F20201884260D0A6
:1051D000FFE70F9800688821C4F20201884258D086
:1051E000FFE70F980068A021C4F20201884250D066
:1051F000FFE70F980068B821C4F20201884248D046
:10520000FFE70F98006840F21041C4F202018842A3
:105210003FD0FFE70F98006840F22841C4F2020136
:10522000884236D0FFE70F98006840F24041C4F250
:10523000020188422DD0FFE70F98006840F25841E4
:10524000C4F20201884224D0FFE70F98006840F2C0
:105250007041C4F2020188421BD0FFE70F9800683A
:1052600040F28841C4F20201884212D0FFE70F9851
:10527000006840F2A041C4F20201884209D0FFE771
:105280000F98006840F2B841C4F20201884207D189
:10529000FFE70F980068006800F01000029006E039
:1052A0000F980068006800F002000290FFE7029883
:1052B000002800F08980FFE70F98C06D00F01F0103
:1052C00020208840099988600F9890F835000428BC
:1052D00037D1FFE70F980168086820F016000860D2
:1052E0000F980168486920F0800048610F98006CB1
:1052F00020B9FFE70F98806C38B1FFE70F9801687D
:10530000086820F008000860FFE70F98C06D00F003
:105310001F013F208840099988600F99012081F87A
:105320003500FFE70F99002081F83400FFE70F9860
:10533000006D20B1FFE70F98016D8847FFE700F08F
:1053400019BC0F9800680068400300281AD5FFE7D1
:105350000F98006800680003002809D4FFE70F9841
:10536000406C20B1FFE70F98416C8847FFE708E0E9
:105370000F98C06B20B1FFE70F98C16B8847FFE71C
:10538000FFE720E00F9800680068C005002811D4EE
:10539000FFE70F980168086820F0100008600F9977
:1053A000012081F83500FFE70F99002081F83400D3
:1053B000FFE7FFE70F98C06B20B1FFE70F98C16BC5
:1053C0008847FFE7FFE7FFE7FFE70F98406D0028FA
:1053D00000F0D480FFE70F98406DC007002800F070
:1053E000C480FFE70F99042081F835000F9800680A
:1053F0001021C4F20201884200F08180FFE70F987B
:1054000000682821C4F20201884278D0FFE70F9893
:1054100000684021C4F20201884270D0FFE70F9873
:1054200000685821C4F20201884268D0FFE70F9853
:1054300000687021C4F20201884260D0FFE70F9833
:1054400000688821C4F20201884258D0FFE70F9813
:105450000068A021C4F20201884250D0FFE70F98F3
:105460000068B821C4F20201884248D0FFE70F98D3
:10547000006840F21041C4F2020188423FD0FFE7C9
:105480000F98006840F22841C4F20201884236D0E9
:10549000FFE70F98006840F24041C4F202018842E1
:1054A0002DD0FFE70F98006840F25841C4F2020186
:1054B000884224D0FFE70F98006840F27041C4F2A0
:1054C000020188421BD0FFE70F98006840F2884134
:1054D000C4F20201884212D0FFE70F98006840F240
:1054E000A041C4F20201884209D0FFE70F9800688A
:1054F00040F2B841C4F20201884207D1FFE70F9899
:105500000168086820F00100086006E00F98016853
:10551000086820F001000860FFE7FFE70B98013002
:105520000B900A99884201D9FFE707E0FFE70F983F
:1055300000680068C0070028F0D1FFE70F980068F6
:105540000068C00728B1FFE70F99032081F83500F4
:1055500004E00F99012081F83500FFE7FFE70F997C
:10556000002081F83400FFE7FFE70F98C06C20B1FE
:10557000FFE70F98C16C8847FFE7FFE7FAE20F9853
:105580000168012045F20842C5F6020291420190ED
:105590004ED0FFE70F980168012045F21C42C5F686
:1055A00002029142019043D0FFE70F980168012069
:1055B00045F23042C5F602029142019038D0FFE731
:1055C0000F980168012045F24442C5F6020291425B
:1055D00001902DD0FFE70F980168012045F2584255
:1055E000C5F602029142019022D0FFE70F980168B0
:1055F000012045F26C42C5F602029142019017D09B
:10560000FFE70F980168012045F28042C5F60202CB
:10561000914201900CD0FFE70F9800684AF66C3178
:10562000CAF2FD710844B0FA80F040090190FFE72A
:105630000198C007002800F09B82FFE70F980068E0
:1056400000680C900D980F99C96D01F01F01C840BA
:105650004007002840F1D780FFE79DF83000400761
:10566000002840F1D080FFE70F98C06D00F01F01C7
:1056700004208840089948609DF831000006002801
:1056800018D5FFE79DF83200C00748B9FFE70F982B
:10569000806C20B1FFE70F98816C8847FFE708E036
:1056A0000F98006C20B1FFE70F98016C8847FFE767
:1056B000FFE7A7E09DF830008006002800F1998000
:1056C000FFE70F9800681021C4F20201884200F041
:1056D0008180FFE70F9800682821C4F20201884208
:1056E00078D0FFE70F9800684021C4F20201884299
:1056F00070D0FFE70F9800685821C4F20201884279
:1057000068D0FFE70F9800687021C4F20201884258
:1057100060D0FFE70F9800688821C4F20201884238
:1057200058D0FFE70F980068A021C4F20201884218
:1057300050D0FFE70F980068B821C4F202018842F8
:1057400048D0FFE70F98006840F21041C4F2020110
:1057500088423FD0FFE70F98006840F22841C4F22A
:105760000201884236D0FFE70F98006840F24041BE
:10577000C4F2020188422DD0FFE70F98006840F282
:105780005841C4F20201884224D0FFE70F98006814
:1057900040F27041C4F2020188421BD0FFE70F982B
:1057A000006840F28841C4F20201884212D0FFE74B
:1057B0000F98006840F2A041C4F20201884209D06B
:1057C000FFE70F98006840F2B841C4F20201884236
:1057D00007D1FFE70F980168086820F0080008600B
:1057E00006E00F980168086820F004000860FFE7F1
:1057F000FFE70F98006C20B1FFE70F98016C884716
:10580000FFE7FFE7B3E10D980F99C96D01F01F01A4
:10581000C8408007002840F1E180FFE79DF8300094
:105820008007002840F1DA80FFE70F98C06D00F094
:105830001F0102208840089948609DF83100000649
:10584000002818D5FFE79DF83200C00748B9FFE7E8
:105850000F98406C20B1FFE70F98416C8847FFE735
:1058600008E00F98C06B20B1FFE70F98C16B884725
:10587000FFE7FFE7B1E09DF830008006002800F167
:10588000A380FFE70F9800681021C4F2020188424C
:1058900000F08180FFE70F9800682821C4F2020120
:1058A000884278D0FFE70F9800684021C4F20201D7
:1058B000884270D0FFE70F9800685821C4F20201B7
:1058C000884268D0FFE70F9800687021C4F2020197
:1058D000884260D0FFE70F9800688821C4F2020177
:1058E000884258D0FFE70F980068A021C4F2020157
:1058F000884250D0FFE70F980068B821C4F2020137
:10590000884248D0FFE70F98006840F21041C4F287
:10591000020188423FD0FFE70F98006840F228411B
:10592000C4F20201884236D0FFE70F98006840F2C7
:105930004041C4F2020188422DD0FFE70F98006871
:1059400040F25841C4F20201884224D0FFE70F9888
:10595000006840F27041C4F2020188421BD0FFE7A8
:105960000F98006840F28841C4F20201884212D0C8
:10597000FFE70F98006840F2A041C4F2020188429C
:1059800009D0FFE70F98006840F2B841C4F2020165
:10599000884207D1FFE70F980168086820F01400DB
:1059A000086006E00F980168086820F00A000860A7
:1059B000FFE70F99012081F83500FFE70F990020DC
:1059C00081F83400FFE7FFE70F98C06B20B1FFE7D5
:1059D0000F98C16B8847FFE7FFE7C7E00D980F9965
:1059E000C96D01F01F01C8400007002840F1BC80CC
:1059F000FFE79DF830000007002840F1B580FFE781
:105A00000F9800681021C4F20201884200F08180E2
:105A1000FFE70F9800682821C4F20201884278D07D
:105A2000FFE70F9800684021C4F20201884270D05D
:105A3000FFE70F9800685821C4F20201884268D03D
:105A4000FFE70F9800687021C4F20201884260D01D
:105A5000FFE70F9800688821C4F20201884258D0FD
:105A6000FFE70F980068A021C4F20201884250D0DD
:105A7000FFE70F980068B821C4F20201884248D0BD
:105A8000FFE70F98006840F21041C4F2020188421B
:105A90003FD0FFE70F98006840F22841C4F20201AE
:105AA000884236D0FFE70F98006840F24041C4F2C8
:105AB000020188422DD0FFE70F98006840F258415C
:105AC000C4F20201884224D0FFE70F98006840F238
:105AD0007041C4F2020188421BD0FFE70F980068B2
