:020000040800F2
:1000000088360024AD03000861230008E1210008C0
:1000100059230008410800080127000800000000DB
:10002000000000000000000000000000E1230008C4
:100030004908000800000000D923000841240008F6
:10004000C7030008C7030008C7030008C703000868
:10005000C7030008C7030008C7030008C703000858
:10006000C7030008C7030008C7030008C703000848
:10007000C7030008C7030008C7030008C703000838
:10008000C7030008C7030008C7030008C703000828
:10009000C7030008C7030008C7030008C703000818
:1000A000C7030008C7030008C7030008C703000808
:1000B000C7030008C7030008C7030008C7030008F8
:1000C000C7030008C7030008C7030008C7030008E8
:1000D000C7030008C7030008C7030008C7030008D8
:1000E000C7030008C703000800000000C70300089A
:1000F000C7030008C7030008C7030008C7030008B8
:10010000C7030008C7030008C7030008C7030008A7
:10011000C7030008C7030008C7030008C703000897
:10012000C7030008C7030008C7030008C703000887
:10013000C7030008C7030008C7030008C703000877
:1001400000000000000000000000000000000000AF
:10015000C7030008C7030008C7030008C703000857
:10016000C7030008C7030008C7030008C703000847
:10017000C7030008C7030008C70300080000000009
:10018000C7030008C7030008C7030008C703000827
:10019000C7030008C7030008C7030008C703000817
:1001A000C7030008C7030008C7030008C703000807
:1001B000C7030008C7030008C7030008C7030008F7
:1001C000C7030008C7030008C7030008C7030008E7
:1001D000C7030008C7030008C7030008C7030008D7
:1001E000C7030008C7030008C7030008C7030008C7
:1001F000C7030008C7030008C7030008C7030008B7
:10020000C7030008C7030008C7030008C7030008A6
:10021000C7030008C7030008C7030008C703000896
:10022000C7030008C7030008C70300080000000058
:10023000C7030008C703000800000000C703000848
:10024000C7030008C7030008C7030008C703000866
:10025000C7030008C7030008C7030008C703000856
:10026000C7030008C7030008C7030008C703000846
:10027000C7030008C7030008C70300080000000008
:10028000C7030008C7030008C703000800000000F8
:1002900000000000C703000800F002F800F076F844
:1002A00014A696E8000CB244B344DA4501D100F03C
:1002B0006DF8BAE80F000FA696E83000A5EB04052C
:1002C00004EB0607AAEB0704A7F101074FEA15158F
:1002D0004FEA3414A4F10104AC4201D300F056F803
:1002E00013F0010F18BFFB1A43F0010300F001F8EF
:1002F000DBE7184730360000503600000A4410F89B
:10030000013B13F0030408BF10F8014B1D1108BF97
:1003100010F8015B641E05D010F8016B641E01F833
:10032000016BF9D1002D15D010F8014B03F00C032F
:100330000C2BA1EB04040ABF10F8013BA4EB8314BF
:10034000A4EB032405F1010314F8016B5B1E01F813
:10035000016BF9D5914238BF10F8013BD1D37047FA
:10036000704700000023002400250026103A28BF13
:1003700078C1FBD8520728BF30C148BF0B60704717
:100380001FB502F0BAFA1FBD10B510BD00F058F845
:100390001146FFF7F5FF02F09FFA00F076F803B47C
:1003A000FFF7F2FF03BC00F07DF80000094880472A
:1003B00009480047FEE7FEE7FEE7FEE7FEE7FEE747
:1003C000FEE7FEE7FEE7FEE704480549054A064B5F
:1003D00070470000A1250008990200088830002419
:1003E0008836002488320024883200244FF000022E
:1003F00000B5134694469646203922BFA0E80C501B
:10040000A0E80C50B1F12001BFF4F7AF090728BFF5
:10041000A0E80C5048BF0CC05DF804EB890028BF71
:1004200040F8042B08BF704748BF20F8022B11F09A
:10043000804F18BF00F8012B704770477047704716
:10044000754600F02BF8AE4605006946534620F08D
:100450000700854618B020B5FFF7B6FFBDE820407D
:100460004FF000064FF000074FF000084FF0000B70
:10047000AC46ACE8C009ACE8C009ACE8C009ACE8DF
:10048000C00921F007018D46704710B50446AFF34F
:1004900000802046BDE81040FFF781BF004870474C
:1004A0002030002401491820ABBEFEE726000200E0
:1004B000704700000000000080B590B041F60000D9
:1004C000C5F602000D9020210C91012200F0BCFB2A
:1004D0000C990D9800220E9200F0B6FB0D980E9A22
:1004E000102100F0B1FB0E9802F05AF90E980F900F
:1004F000FFE70F9803280DDCFFE70F9940F200009B
:10050000C2F20040405C02F04BF9FFE70F98013067
:100510000F90EEE741F60000C5F6020008901021AA
:10052000099101220A9200F08FFB0A2000F090F955
:100530000898099900220B9200F086FB0A9802F0B5
:100540002FF90B980F90FFE70F9803280DDCFFE7BA
:100550000F9940F20400C2F20040405C02F020F922
:10056000FFE70F9801300F90EEE741F60000C5F667
:100570000200059010210691012200F065FB0A207F
:1005800000F066F9059806990022079200F05CFBDE
:10059000022002F005F907980F90FFE70F98032853
:1005A0000DDCFFE70F9940F20800C2F20040405C0A
:1005B00002F0F6F8FFE70F9801300F90EEE741F6F2
:1005C0000000C5F6020010210122009200F03CFB61
:1005D0000A20019000F03CF9019800F039F940F64A
:1005E0000040C5F6020002904FF400410391002242
:1005F000049200F029FB019800F02AF9009A029871
:10060000039900F021FB019800F022F90298039968
:10061000049A00F019FB10B080BD0000000000003B
:1006200080B59AB08DF8670044F260001690C02043
:10063000C0F2004015900020CFF60170149041F6F2
:100640000000C5F6020010210022139200F0FCFA0F
:10065000139802F0A5F813981890FFE7189803284C
:100660000ADCFFE7189916A8405C02F099F8FFE74A
:10067000189801301890F1E741F60000C5F6020025
:10068000109010211191012200F0DEFA0A2000F0F2
:10069000DFF8109811990022129200F0D5FA0E207E
:1006A00002F07EF812981890FFE7189807280ADCE5
:1006B000FFE7189914A8405C02F072F8FFE7189859
:1006C00001301890F1E741F60000C5F602000C90E9
:1006D00010210D9100220E9200F0B6FA0E9A40F60B
:1006E0000040C5F602000A904FF400410B9100F063
:1006F000ABFA0A20099000F0ABF80A980B99012296
:1007000000F0A2FA099800F0A3F80A980B990E9A43
:1007100000F09AFA0C980D990E9A00F095FA1620AE
:1007200002F03EF89DF8670001460F9140B1FFE7E7
:100730000F9801280AD0FFE70F9803280CD011E08A
:1007400042F20C00C2F20040179011E041F20C009E
:10075000C2F2004017900BE040F20C00C2F20040E1
:10076000179005E042F62410C0F600001790FFE74E
:1007700000201890FFE71898B0F5806F0BDAFFE7BC
:100780001798189950F8210001F0BEFFFFE718985C
:1007900001301890EFE741F60000C5F60200069020
:1007A00010210791012200F04FFA069807990022C4
:1007B000089200F049FA089801F0F2FF08989DF8B5
:1007C000581041F080018DF858101890FFE71898E4
:1007D00003280ADCFFE7189916A8405C01F0E0FF47
:1007E000FFE7189801301890F1E741F60000C5F6D0
:1007F000020010210122019200F026FA40F600408A
:10080000C5F6020003904FF40041049100220592C6
:1008100000F01AFA0A20029000F01AF8019A0398E0
:10082000049900F011FA029800F012F80398049964
:10083000059A00F009FA1AB080BD0000000000001F
:10084000FFE7FEE700000000704700000000000026
:1008500081B08DF80300FFE7FFE79DF80300013842
:100860008DF8030000060028F6D1FFE701B07047BD
:1008700081B0EFF3108072B60090FFE7FEE7000052
:1008800090B00F900E9100200D908020C5F60000D2
:100890000A90FFE70E9800680D99C840002800F004
:1008A000CF81FFE70E9800680D9A01219140084022
:1008B0000C900C98002800F0BF81FFE70E9840686C
:1008C00000F00300012807D0FFE70E98406800F011
:1008D000030002282FD1FFE70F9880680B900D9836
:1008E0004100032000FA01F10B9888430B900E9809
:1008F000C0680D99490000FA01F10B9808430B906C
:100900000B980F9988600F9840680B900D99012003
:1009100000FA01F10B9888430B900E984068C0F3E1
:1009200000100D9900FA01F10B9808430B900B98F9
:100930000F994860FFE70E98406800F00300032815
:1009400018D0FFE70F98C0680B900D984100032066
:1009500000FA01F10B9888430B900E9880680D996E
:10096000490000FA01F10B9808430B900B980F997E
:10097000C860FFE70E98406800F00300022826D107
:10098000FFE70F980D996FF0030202EA5101084446
:10099000006A0B900D9800F0070081000F2000FA0C
:1009A00001F10B9888430B900E9800690D9901F0A6
:1009B0000701890000FA01F10B9808430B900B988E
:1009C0000F990D9B02EA530211440862FFE70F984A
:1009D00000680B900D984100032000FA01F10B987C
:1009E00088430B900E98406800F003000D99490071
:1009F00000FA01F10B9808430B900B980F990860CF
:100A00000E9880798007002800F01581FFE7FFE746
:100A100044F2F440C5F60200016841F002010160B1
:100A2000006800F0020009900998FFE70D9820F097
:100A3000030040F20841C5F6000140580B900D98A4
:100A400000F0030081000F2000FA01F10B988843A9
:100A50000B900F980021C5F60201884203D1FFE7F1
:100A6000002008907AE00F9840F20041C5F602019C
:100A7000884203D1FFE7012007906CE00F9840F611
:100A80000001C5F60201884203D1FFE7022006906B
:100A90005EE00F9840F60041C5F60201884203D19E
:100AA000FFE70320059050E00F9841F20001C5F6E2
:100AB0000201884203D1FFE70420049042E00F982E
:100AC00041F20041C5F60201884203D1FFE705204B
:100AD000039034E00F9841F60001C5F60201884208
:100AE00003D1FFE70620029026E00F9841F600416F
:100AF000C5F60201884203D1FFE70720019018E004
:100B00000F9842F20001C5F60201884203D1FFE7C7
:100B1000082000900AE00F9942F20042C5F6020256
:100B20000A20914208BF09200090FFE70098019039
:100B3000FFE701980290FFE702980390FFE7039810
:100B40000490FFE704980590FFE705980690FFE7FB
:100B500006980790FFE707980890FFE708980D9917
:100B600001F00301890000FA01F10B9808430B9092
:100B70000B980D9921F0030140F20842C5F60002DE
:100B800088504FF0B04000680B900C990B98884348
:100B90000B900E988079C006002805D5FFE70C99C8
:100BA0000B9808430B90FFE70B984FF0B04108609B
:100BB0000420C5F6000000680B900C990B98884340
:100BC0000B900E9880798006002805D5FFE70C99D8
:100BD0000B9808430B90FFE70B980421C5F6000122
:100BE00008600A9840680B900C990B9888430B900A
:100BF0000E9880798007002805D5FFE70C990B989F
:100C000008430B90FFE70B980A9948600A98006820
:100C10000B900C990B9888430B900E988079C00725
:100C200028B1FFE70C990B9808430B90FFE70B984E
:100C30000A990860FFE7FFE70D9801300D9029E65B
:100C400010B070470000000082B00190ADF80210B3
:100C50008DF801209DF8010028B1FFE7BDF80200E2
:100C60000199886105E0BDF80200000401998861DE
:100C7000FFE702B07047000041F20000C5F60040F7
:100C80000068000C7047000043F28000C2F2004090
:100C9000006870470000000043F21400C2F20040F8
:100CA000027843F28001C2F20041086810440860F3
:100CB000704700000000000080B582B0032000F003
:100CC000ABF800F051FB44F21842C5F6020211687D
:100CD000C1F3032342F61411C0F60001CB5C03F00C
:100CE0001F03D84000900098126802F00F02895C40
:100CF00001F01F01C84043F21001C2F20041086038
:100D0000009843F20C01C2F2004108600F2000F08D
:100D100013F820B1FFE701208DF8070005E000F08F
:100D20004FF800208DF80700FFE79DF8070002B09C
:100D300080BD00000000000080B582B0009043F24A
:100D40001400C2F20040007820B9FFE701208DF8BE
:100D5000070030E043F20C00C2F20040006843F2AA
:100D60001401C2F200410A784FF47A71B1FBF2F13A
:100D7000B0FBF1F001F02CFA20B1FFE701208DF873
:100D8000070018E000980F280DD8FFE700994FF0F2
:100D9000FF30002200F028F8009843F21801C2F258
:100DA0000041086003E001208DF8070003E0002007
:100DB0008DF80700FFE79DF8070002B080BD000036
:100DC00081B0FFE744F2F440C5F60200016841F04B
:100DD00002010160006800F0020000900098FFE747
:100DE00001B070470000000080B586B0ADF8160075
:100DF0000491039201F024FD0290BDF916000190C8
:100E000002980499039A01F0AFFA0146019801F0A3
:100E10001FFD06B080BD000080B582B00190019832
:100E200001F03AFD02B080BD80B584B0029044F676
:100E30000C00C5F60200006800F004010020B0EBD1
:100E4000910F13D1FFE744F60C00C5F602000068CD
:100E500000F007000299884204D0FFE701208DF8D6
:100E60000F002EE000208DF80F002AE044F60C0160
:100E7000C5F60201086820F00700029A10430860D6
:100E8000FFF702FF0190FFE744F60400C5F60200F9
:100E9000006800F400510020B0EB513F0DD1FFE796
:100EA000FFF7F2FE0199401AB0F57A7F04D9FFE707
:100EB00001208DF80F0004E0E6E700208DF80F0018
:100EC000FFE79DF80F0004B080BD000000000000A7
:100ED00080B586B004900391049820B9FFE7012003
:100EE0008DF817003CE2039842F20001C5F20021A0
:100EF000096801F00F01884216D9FFE742F20000AD
:100F0000C5F20020016821F00F01039A114301602E
:100F1000006800F00F000399884204D0FFE7012029
:100F20008DF817001CE2FFE70498007840070028BE
:100F300019D5FFE70498006944F21841C5F602018B
:100F4000096801F0700188420CD9FFE744F21841AA
:100F5000C5F60201086820F07000049A1269104377
:100F60000860FFE7FFE7049800780007002819D51C
:100F7000FFE70498406944F21C41C5F60201096884
:100F800001F0700188420CD9FFE744F21C41C5F61C
:100F90000201086820F07000049A5269104308604A
:100FA000FFE7FFE704980078C006002819D5FFE79F
:100FB0000498806944F21C41C5F60201096801F4F5
:100FC000E06188420CD9FFE744F21C41C5F60201FA
:100FD000086820F4E060049A926910430860FFE713
:100FE000FFE7049800788006002819D5FFE70498E9
:100FF000C06944F22041C5F60201096801F07001A0
:1010000088420CD9FFE744F22041C5F60201086886
:1010100020F07000049AD26910430860FFE7FFE7F0
:10102000049800788007002819D5FFE70498C06865
:1010300044F21841C5F60201096801F00F01884227
:101040000CD9FFE744F21841C5F60201086820F008
:101050000F00049AD26810430860FFE7FFE7049886
:101060000078C007002800F08C80FFE744F21841A8
:10107000C5F60201086820F47060049A9268104373
:10108000086004984068022811D1FFE744F200404C
:10109000C5F60200006800F400310020B0EB514FAB
:1010A00004D1FFE701208DF8170059E13EE00498D4
:1010B0004068032811D1FFE744F20040C5F6020062
:1010C000006800F000710020B0EB516F04D1FFE721
:1010D00001208DF8170043E127E0049840680128BB
:1010E00011D1FFE744F20040C5F60200006800F4A9
:1010F00080710020B0EB112F04D1FFE701208DF8A3
:1011000017002DE110E044F20040C5F6020000682F
:1011100000F004010020B0EB910F04D1FFE70120A3
:101120008DF817001CE1FFE7FFE7FFE744F21041ED
:10113000C5F60201086820F00700049A52681043BF
:101140000860FFF7A1FD0190FFE744F21040C5F6EB
:101150000200006800F0380004994968B0EBC10F44
:101160000ED0FFE7FFF790FD0199401A41F2893157
:10117000884204D3FFE703208DF81700F0E0E4E78E
:10118000FFE7049800788007002819D5FFE7049846
:10119000C06844F21841C5F60201096801F00F0168
:1011A00088420CD2FFE744F21841C5F602010868F4
:1011B00020F00F00049AD26810430860FFE7FFE7B1
:1011C000039842F20001C5F20021096801F00F0105
:1011D000884216D2FFE742F20000C5F20020016803
:1011E00021F00F01039A11430160006800F00F0025
:1011F0000399884204D0FFE701208DF81700AFE083
:10120000FFE7049800784007002819D5FFE7049805
:10121000006944F21841C5F60201096801F0700145
:1012200088420CD2FFE744F21841C5F60201086873
:1012300020F07000049A126910430860FFE7FFE78E
:10124000049800780007002819D5FFE70498406942
:1012500044F21C41C5F60201096801F070018842A0
:101260000CD2FFE744F21C41C5F60201086820F0E9
:101270007000049A526910430860FFE7FFE7049882
:101280000078C006002819D5FFE70498806944F269
:101290001C41C5F60201096801F4E06188420CD2E4
:1012A000FFE744F21C41C5F60201086820F4E06043
:1012B000049A926910430860FFE7FFE704980078FA
:1012C0008006002819D5FFE70498C06944F2204140
:1012D000C5F60201096801F0700188420CD2FFE7EF
:1012E00044F22041C5F60201086820F07000049A1B
:1012F000D26910430860FFE7FFE700F035F844F2D9
:101300001842C5F602021168C1F3032342F6141114
:10131000C0F60001CB5C03F01F03D840009000989A
:10132000126802F00F02895C01F01F01C84043F20D
:101330001001C2F200410860009843F20C01C2F2B1
:101340000041086043F21800C2F200400068FFF755
:10135000F3FC8DF80B009DF80B008DF81700FFE7EC
:101360009DF8170006B080BD8AB044F21040C5F663
:101370000200006800F0380001460191182800F2D0
:1013800069810199DFE811F01900660166016601C3
:1013900066016601660166013A0066016601660142
:1013A000660166016601660140006601660166012C
:1013B0006601660166016601460044F20040C5F61A
:1013C0000200006800F020010020B0EB511F0ED099
:1013D000FFE744F20040C5F602000068C0F3C10117
:1013E00049F20000C0F2D030C840029005E049F256
:1013F0000000C0F2D0300290FFE731E140F600106B
:10140000C0F23D0002902BE147F64000C0F27D1093
:10141000029025E144F22840C5F60200016801F07F
:10142000030108910068C0F30510079044F22C40B6
:10143000C5F60200006800F001000690069844F22C
:101440003441C5F60201096889B2C908484300EE73
:10145000100AB8EE400A8DED040A0798002800F043
:10146000F580FFE70898009048B1FFE70098012851
:1014700069D0FFE70098022800F08980ABE044F2D1
:101480000040C5F60200006800F020010020B0EB2B
:10149000511F33D0FFE744F20040C5F60200006858
:1014A000C0F3C10149F20000C0F2D030C84005903D
:1014B0009DED050AB8EE400A9DED071AB8EE411AF7
:1014C00080EE010A44F23040C5F6020000686FF376
:1014D0005F2001EE100AB8EE411A9DED042A9FED3F
:1014E000633A82EE032A31EE021AB7EE002A31EE99
:1014F000021A20EE010A8DED030A23E09DED070A92
:10150000B8EE401A9FED5B0A80EE010A44F23040CB
:10151000C5F6020000686FF35F2001EE100AB8EE16
:10152000411A9DED042A9FED513A82EE032A31EED5
:10153000021AB7EE002A31EE021A20EE010A8DEDF2
:10154000030AFFE76BE09DED070AB8EE401A9FED36
:10155000480A80EE010A44F23040C5F602000068F5
:101560006FF35F2001EE100AB8EE411A9DED042AD8
:101570009FED3E3A82EE032A31EE021AB7EE002AC0
:1015800031EE021A20EE010A8DED030A47E09DEDCF
:10159000070AB8EE401A9FED340A80EE010A44F2C1
:1015A0003040C5F6020000686FF35F2001EE100ABC
:1015B000B8EE411A9DED042A9FED2C3A82EE032AE3
:1015C00031EE021AB7EE002A31EE021A20EE010ABD
:1015D0008DED030A23E09DED070AB8EE401A9FED5A
:1015E000240A80EE010A44F23040C5F60200006889
:1015F0006FF35F2001EE100AB8EE411A9DED042A48
:101600009FED1A3A82EE032A31EE021AB7EE002A53
:1016100031EE021A20EE010A8DED030AFFE744F2D3
:101620003040C5F60200006881B2012000EB512075
:1016300009909DED030A9DED091AB8EE411A80EE5E
:10164000010ABCEEC00A8DED020A02E00020029001
:10165000FFE705E040F60010C0F23D000290FFE712
:1016600002980AB0704700BF20BCBE4B0000004685
:101670000024744A0024744C80B58CB00A900A98F7
:1016800028B9FFE701208DF82F0000F09DBD0A98D2
:101690000078C007002800F0B980FFE744F210404E
:1016A000C5F60200006800F03800069044F22840B9
:1016B000C5F6020000680590069810280AD0FFE7DA
:1016C000069818281CD1FFE7059800F003000228AF
:1016D00016D1FFE744F20040C5F60200006800F4AE
:1016E00000310020B0EB514F09D0FFE70A98406865
:1016F00028B9FFE701208DF82F0000F065BD84E0D8
:10170000FFE70A984068B0F5803F09D1FFE744F24F
:101710000041C5F60201086840F48030086032E0FC
:101720000A98406868B9FFE744F20041C5F6020133
:10173000086820F480300860086820F48020086081
:1017400020E00A984068B0F5A02F0DD1FFE744F2E1
:101750000041C5F60201086840F48020086008686E
:1017600040F4803008600CE044F20041C5F602010C
:10177000086820F480300860086820F48020086041
:10178000FFE7FFE7FFE7FFE70A984068F0B1FFE7F0
:10179000FFF77AFA0990FFE744F20040C5F602002D
:1017A000006800F400310020B0EB514F0DD1FFE78D
:1017B000FFF76AFA0999401A652805D3FFE7032065
:1017C0008DF82F0000F000BDE6E71DE0FFF75CFAA2
:1017D0000990FFE744F20040C5F60200006800F4FB
:1017E00000310020B0EB514F0DD0FFE7FFF74CFA6E
:1017F0000999401A652805D3FFE703208DF82F00CB
:1018000000F0E2BCE6E7FFE7FFE7FFE70A980078B1
:101810008007002840F11681FFE744F21040C5F62A
:101820000200006800F03800049044F22840C5F639
:10183000020000680390049850B1FFE7049818284C
:1018400078D1FFE79DF80C008007002872D1FFE7F0
:1018500044F20040C5F60200006800F004010020D8
:10186000B0EB910F09D0FFE70A98C06828B9FFE7ED
:1018700001208DF82F0000F0A7BC44F20041C5F60E
:101880000201086820F019000A9AD2681043086023
:10189000FFF7FAF90990FFE744F20040C5F60200AD
:1018A000006800F004010020B0EB910F0DD1FFE7BC
:1018B000FFF7EAF90999401A032805D3FFE7032047
:1018C0008DF82F0000F080BCE6E7FFE7FFF7D4F9C2
:1018D00041F2030188421DD8FFE70A9800694028B9
:1018E0000AD1FFE744F20441C5F60201086820224C
:1018F00062F3113008600CE044F20441C5F60201C5
:10190000086820F47C300A9A126940EA02300860C4
:10191000FFE70CE044F20441C5F60201086820F03C
:10192000FE400A9A126940EA02600860FFE7FFE79A
:10193000FFE786E00A98C06800285CD0FFE744F221
:101940000041C5F60201086820F019000A9AD26821
:1019500010430860FFF798F90990FFE744F2004050
:10196000C5F60200006800F004010020B0EB910F02
:101970000DD1FFE7FFF788F90999401A032805D32D
:10198000FFE703208DF82F0000F01EBCE6E7FFE71D
:10199000FFF772F941F2030188421DD8FFE70A9868
:1019A000006940280AD1FFE744F20441C5F602016C
:1019B0000868202262F3113008600CE044F2044110
:1019C000C5F60201086820F47C300A9A126940EAE0
:1019D00002300860FFE70CE044F20441C5F6020162
:1019E000086820F0FE400A9A126940EA0260086026
:1019F000FFE7FFE724E044F20041C5F60201086872
:101A000020F001000860FFF73FF90990FFE744F27A
:101A10000040C5F60200006800F004010020B0EBB1
:101A2000910F0CD0FFE7FFF72FF90999401A03280F
:101A300004D3FFE703208DF82F00C5E3E7E7FFE7B6
:101A4000FFE7FFE70A980078C006002840F1EB8026
:101A5000FFE744F21040C5F60200006800F03800CD
:101A6000029044F22840C5F60200006801900298F6
:101A700008280AD0FFE70298182850D1FFE70198FC
:101A800000F0030001284AD1FFE744F20040C5F608
:101A90000200006800F480710020B0EB112F09D023
:101AA000FFE70A98C069802804D0FFE701208DF87D
:101AB0002F0089E3FFE7FFF7DFF841F203018842D7
:101AC0001DD8FFE70A98006A20280AD1FFE744F2F0
:101AD0000441C5F602010868102262F39E600860A6
:101AE0000CE044F20441C5F60201086820F0F84019
:101AF0000A9A126A40EA82600860FFE70CE044F24A
:101B00000C41C5F60201086820F07C500A9A126A5E
:101B100040EA02600860FFE7FFE7FFE782E00A981B
:101B2000C069002858D0FFE744F20041C5F6020121
:101B3000086840F080000860FFF7A6F80990FFE70A
:101B400044F20040C5F60200006800F480710020F5
:101B5000B0EB112F0CD1FFE7FFF796F80999401A67
:101B6000032804D3FFE703208DF82F002CE3E7E7D9
:101B7000FFE7FFF781F841F2030188421DD8FFE734
:101B80000A98006A20280AD1FFE744F20441C5F60A
:101B900002010868102262F39E6008600CE044F2C3
:101BA0000441C5F60201086820F0F8400A9A126A5A
:101BB00040EA82600860FFE70CE044F20C41C5F6A1
:101BC0000201086820F07C500A9A126A40EA02601A
:101BD0000860FFE7FFE724E044F20041C5F6020198
:101BE000086820F080000860FFF74EF80990FFE7D2
:101BF00044F20040C5F60200006800F48071002045
:101C0000B0EB112F0CD0FFE7FFF73EF80999401A0F
:101C1000032804D3FFE703208DF82F00D4E2E7E781
:101C2000FFE7FFE7FFE70A980078000700284FD595
:101C3000FFE70A98406928B3FFE744F27441C5F60C
:101C40000201086840F001000860FFF71DF80990E4
:101C5000FFE744F27440C5F60200006800F002019C
:101C60000020B0EB510F0CD1FFE7FFF70DF80999F9
:101C7000401A032804D3FFE703208DF82F00A3E2C6
:101C8000E7E724E044F27441C5F60201086820F059
:101C900001000860FEF7F8FF0990FFE744F2744086
:101CA000C5F60200006800F002010020B0EB510F01
:101CB0000CD0FFE7FEF7E8FF0999401A032804D388
:101CC000FFE703208DF82F007EE2E7E7FFE7FFE75D
:101CD0000A980078800600284FD5FFE70A988069A7
:101CE00028B3FFE744F20041C5F60201086840F45A
:101CF00080500860FEF7C8FF0990FFE744F20040FB
:101D0000C5F60200006800F400510020B0EB513F1E
:101D10000CD1FFE7FEF7B8FF0999401A032804D356
:101D2000FFE703208DF82F004EE2E7E724E044F2BE
:101D30000041C5F60201086820F480500860FEF7F3
:101D4000A3FF0990FFE744F20040C5F602000068D7
:101D500000F400510020B0EB513F0CD0FFE7FEF73C
:101D600093FF0999401A032804D3FFE703208DF855
:101D70002F0029E2E7E7FFE7FFE70A98007840072E
:101D8000002840F1A780FFE744F60001C5F60201F4
:101D9000086840F480700860FEF776FF0990FFE75E
:101DA00044F60000C5F602000068C00500280CD407
:101DB000FFE7FEF769FF0999401A652804D3FFE79A
:101DC00003208DF82F00FFE1EAE7FFE70A9880681B
:101DD000012809D1FFE744F27041C5F60201086805
:101DE00040F00100086031E00A98806868B9FFE7B8
:101DF00044F27041C5F60201086820F00100086055
:101E0000086820F0040008601FE00A988068052830
:101E10000DD1FFE744F27041C5F60201086840F0B9
:101E200004000860086840F0010008600CE044F21B
:101E30007041C5F60201086820F0010008600868DA
:101E400020F004000860FFE7FFE7FFE7FFE70A98DC
:101E50008068F8B1FFE7FEF717FF0990FFE744F24B
:101E60007040C5F60200006800F002010020B0EBEF
:101E7000510F0ED1FFE7FEF707FF0999401A41F213
:101E80008931884204D3FFE703208DF82F009BE1BE
:101E9000E5E71EE0FEF7F8FE0990FFE744F2704028
:101EA000C5F60200006800F002010020B0EB510FFF
:101EB0000ED0FFE7FEF7E8FE0999401A41F289319A
:101EC000884204D3FFE703208DF82F007CE1E5E78B
:101ED000FFE7FFE70A98406A002800F07181FFE7FA
:101EE00044F21040C5F60200006800F038001828DF
:101EF00000F0E080FFE70A98406A022840F0B480D2
:101F0000FFE744F20041C5F60201086820F0807046
:101F10000860FEF7B9FE0990FFE744F20040C5F6FD
:101F20000200006800F000710020B0EB516F0CD08F
:101F3000FFE7FEF7A9FE0999401A032804D3FFE73B
:101F400003208DF82F003FE1E7E7FFE744F2284147
:101F5000C5F60201086840F2F33290430A9B9A6A80
:101F6000DB6A42EA0312104308600A99086BD1F851
:101F700034C08B6BCA6B01386FF35F204FF6006182
:101F8000CFF6FF7101EB4C2189B208440021CFF656
:101F9000FF7101EB034101F4FE0108444FF07F4162
:101FA00001EB026101F0FE41084444F23041C5F604
:101FB00002010860FFE744F22C41C5F602010091DE
:101FC000086820F00100086044F23442C5F60202BD
:101FD00010684FF6F87398430A9B9B6C40EAC30065
:101FE0001060086820F00C000A9A126C1043086018
:101FF000086820F002000A9A526C104308600868D2
:1020000040F480300860086840F4003008600868D8
:1020100040F480200860086840F00100086044F245
:102020000041C5F60201086840F080700860FEF7C4
:102030002BFE0990FFE744F20040C5F6020000685D
:1020400000F000710020B0EB516F0CD1FFE7FEF7FC
:102050001BFE0999401A032804D3FFE703208DF8DB
:102060002F00B1E0E7E724E044F20041C5F60201A9
:10207000086820F080700860FEF706FE0990FFE710
:1020800044F20040C5F60200006800F00071002034
:10209000B0EB516F0CD0FFE7FEF7F6FD0999401A3F
:1020A000032804D3FFE703208DF82F008CE0E7E737
:1020B000FFE784E044F22840C5F60200006808907B
:1020C00044F23040C5F60200006807900A98406A62
:1020D000012837D0FFE7089800F003000A99896AC1
:1020E00088422FD1FFE7089800F47C710A98C06AF3
:1020F000B0EB111F26D1FFE707986FF35F200A9915
:10210000096B013988421DD1FFE7BDF81C100A9800
:10211000406B0138B0EB512F14D1FFE7079800F462
:10212000FE010A98806B0138B0EB114F0AD1FFE72E
:10213000079800F0FE410A98C06B0138B0EB116FB0
:1021400004D0FFE701208DF82F003DE044F2344039
:10215000C5F60200006880B2C00808900A98806C3A
:102160000899884229D0FFE744F22C41C5F60201C4
:10217000086820F001000860FEF786FD0990FFE77F
:10218000FEF782FD0999401A08B9FFE7F8E744F223
:102190003441C5F6020108684FF6F87290430A9A76
:1021A000926C40EAC200086044F22C41C5F602017C
:1021B000086840F001000860FFE7FFE7FFE7FFE77E
:1021C00000208DF82F00FFE79DF82F000CB080BD98
:1021D00080B582B00190019800F006F902B080BD90
:1021E000FFE7FEE70000000080B594B000201390E8
:1021F0001290119010900F90FFE744F2E040C5F666
:102200000200016841F004010160006800F0040070
:102210000E900E98FFE7FFE744F2E040C5F602009B
:10222000016841F080010160006800F080000D90BD
:102230000D98FFE7FFE744F2E040C5F602000168B1
:1022400041F002010160006800F002000C900C985F
:10225000FFE7FFE744F2E040C5F60200016841F005
:1022600008010160006800F008000B900B98FFE780
:10227000FFE744F2E040C5F60200016841F040018A
:102280000160006800F040000A900A98FFE7FFE74D
:1022900044F2E040C5F60200016841F0010101602E
:1022A000006800F0010009900998FFE740F2004043
:1022B000C5F6020007904FF4435100220692FEF744
:1022C000C3FC069A40F60040C5F6020002904FF4A7
:1022D00047410191FEF7B8FC069A41F60000C5F6A9
:1022E000020005903C210391FEF7AEFC0699079889
:1022F0004FF440520F9201220492109211911291C8
:102300000FA90891FEF7BCFADDF804C00298049BFF
:10231000069A0899CDF83CC0109311921292FEF7DC
:10232000AFFADDF80CC0049B0598069A0899CDF821
:102330003CC0109311921292FEF7A2FA069A0798E7
:102340000899C0230F931123109311921292FEF754
:1023500097FA14B080BD0000FFE7FEE70000000020
:10236000FFE7FEE70000000088B0079006910592A5
:10237000079800F0070004900498C0F107000528B2
:1023800003D3FFE70420019004E00498C0F10700A4
:102390000190FFE70198039004980430062803D8C1
:1023A000FFE70020009003E0049803380090FFE767
:1023B0000098029006980399012202FA01F101396E
:1023C0000840029B984005999A40013A1140084301
:1023D00008B07047000000007047000000000000D7
:1023E000704700000000000080B582B000900098A7
:1023F0000138B0F1807F03D3FFE70120019019E09D
:10240000009801384EF21401CEF2000108604FF03E
:10241000FF300F2100F01CFA4EF21801CEF200013D
:10242000002008604EF21002CEF200020721116077
:102430000190FFE7019802B080BD0000000000009D
:1024400080B5FEF729FC80BD80B5A0B00DA84C2159
:10245000FDF7CCFF002001900C900B900A900990A2
:1024600008900790069005900220FEF7DDFCFFE73C
:102470000020049040F22C40C5F60000016821F0D5
:1024800001010160006800F00100049044F61800AA
:10249000C5F60200016841F440410160006800F4A3
:1024A000404004900498FFE7FFE744F61800C5F6A3
:1024B0000200006800F40050B0F5005F01D0FFE7B3
:1024C000F3E7FFE744F2F440C5F60200016841F08B
:1024D00002010160006800F0020003900398FFE72A
:1024E000FFE70020029044F61800C5F602000168DC
:1024F00041F440410160006800F44040029040F225
:102500002C40C5F60000016841F00101016000683F
:1025100000F0010002900298FFE7FFE744F6180080
:10252000C5F60200006800F40050B0F5005F01D06D
:10253000FFE7F3E702210D91012010904020119058
:10254000169100201790042218923C2219921A9199
:102550001B911C910C211D911E901F900DA8FFF73F
:102560008BF818B1FFE7FEF783F9FFE73F200590EE
:102570000320069000200790082008904020099032
:102580000A904FF480610B910C9005A80421FEF78E
:102590009FFC18B1FFE7FEF76BF9FFE720B080BDA5
:1025A00081B04EF68851CEF20001086840F4700008
:1025B000086042F20000C5F20020006800F00F0041
:1025C00006280AD8FFE742F20001C5F20021086898
:1025D000072262F303000860FFE744F20041C5F6FA
:1025E0000201086840F00100086044F21042C5F69C
:1025F00002020020106008684EF67F52CEF6F622E6
:102600001040086042F20000C5F20020006800F0AF
:102610000F0008280AD3FFE742F20001C5F20021AB
:102620000868072262F303000860FFE744F21841DC
:10263000C5F6020100200090086044F21C41C5F676
:102640000201086044F22041C5F60201086044F22C
:102650002842C5F6020240F20021C0F202211160B8
:1026600044F22C42C5F602020021C0F2FF111160B3
:1026700044F23042C5F6020240F28021C0F201115C
:10268000116044F23442C5F60202106044F238424E
:10269000C5F60202116044F23C42C5F60202106027
:1026A00044F24042C5F60202116044F24441C5F6CC
:1026B0000201086044F20042C5F60202116821F4EA
:1026C0008021116044F26041C5F60201086041F2C8
:1026D0000001C5F600410968B0EB517F07D1FFE763
:1026E00048F20811C5F2001101200860FFE744F22A
:1026F0000001C5F2002143F2D200086001B070472A
:10270000FFE7FEE70000000080B586B005904FF0BF
:102710000040039041F60000C5F6020008210022A7
:102720000292FEF791FA02988DF81300FFE79DF8E8
:1027300013001F2830DCFFE705980399084209D1F0
:10274000FFE741F60000C5F6020004210022FEF773
:102750007BFA08E041F60000C5F6020004210122E0
:10276000FEF772FAFFE741F60000C5F6020000909E
:10277000082101910122FEF767FA00980199039A56
:10278000520803920022FEF75FFAFFE79DF813005C
:1027900001308DF81300CAE706B080BD00000000CC
:1027A00080B584B08DF80F0080208DF80D0041F6C3
:1027B0000000C5F60200082100220292FEF744FA4A
:1027C00002988DF80E00FFE79DF80E00072834DC14
:1027D000FFE79DF80F009DF80D10084209D1FFE7B3
:1027E00041F60000C5F6020004210022FEF72CFA93
:1027F00008E041F60000C5F6020004210122FEF7C0
:1028000023FAFFE741F60000C5F602000090082118
:1028100001910122FEF718FA009801999DF80D2008
:1028200052088DF80D200022FEF70EFAFFE79DF802
:102830000E0001308DF80E00C6E704B080BD000028
:102840004EF60C50CEF200000068C0F30220704734
:1028500082B0ADF806000091BDF9060000280AD448
:10286000FFE700980001BDF906104EF20042CEF2DB
:10287000000288540BE000980001BDF8061001F03A
:102880000F014EF61452CEF200028854FFE702B058
:10289000704700000000000083B00290029800F032
:1028A000070000904EF60C51CEF20001086801902E
:1028B00001984FF6FF02104001900198009A40EAFB
:1028C00002200022C0F2FA521043019001980860E1
:1028D00003B070470000000080B582B00020019076
:1028E000FEF7EAF9FFF7B0FDFFF77EFCFDF7E4FD28
:1028F0000220FDF795FEFFE7FEE7F1EE100A4FF626
:10290000FF71C0F2C03120EA010040F04070E1EEFA
:10291000100A7047000000000102030401020304D2
:1029200006070809000000001F0000003F0000002B
:102930005F0000007F0000009F000000BF0000005B
:10294000DF000000FF0000001F0100003F01000049
:102950005F0100007F0100009F010000BF01000037
:10296000DF010000FF0100001F0200003F02000025
:102970005F0200007F0200009F020000BF02000013
:10298000DF020000FF0200001F0300003F03000001
:102990005F0300007F0300009F030000BF030000EF
:1029A000DF030000FF0300001F0400003F040000DD
:1029B0005F0400007F0400009F040000BF040000CB
:1029C000DF040000FF0400001F0500003F050000B9
:1029D0005F0500007F0500009F050000BF050000A7
:1029E000DF050000FF0500001F0600003F06000095
:1029F0005F0600007F0600009F060000BF06000083
:102A0000DF060000FF0600001F0700003F07000070
:102A10005F0700007F0700009F070000BF0700005E
:102A2000DF070000FF0700001F0800003F0800004C
:102A30005F0800007F0800009F080000BF0800003A
:102A4000DF080000FF0800001F0900003F09000028
:102A50005F0900007F0900009F090000BF09000016
:102A6000DF090000FF0900001F0A00003F0A000004
:102A70005F0A00007F0A00009F0A0000BF0A0000F2
:102A8000DF0A0000FF0A00001F0B00003F0B0000E0
:102A90005F0B00007F0B00009F0B0000BF0B0000CE
:102AA000DF0B0000FF0B00001F0C00003F0C0000BC
:102AB0005F0C00007F0C00009F0C0000BF0C0000AA
:102AC000DF0C0000FF0C00001F0D00003F0D000098
:102AD0005F0D00007F0D00009F0D0000BF0D000086
:102AE000DF0D0000FF0D00001F0E00003F0E000074
:102AF0005F0E00007F0E00009F0E0000BF0E000062
:102B0000DF0E0000FF0E00001F0F00003F0F00004F
:102B10005F0F00007F0F00009F0F0000BF0F00003D
:102B2000DF0F0000FF0F00001F1000003F1000002B
:102B30005F1000007F1000009F100000BF10000019
:102B4000DF100000FF1000001F1100003F11000007
:102B50005F1100007F1100009F110000BF110000F5
:102B6000DF110000FF1100001F1200003F120000E3
:102B70005F1200007F1200009F120000BF120000D1
:102B8000DF120000FF1200001F1300003F130000BF
:102B90005F1300007F1300009F130000BF130000AD
:102BA000DF130000FF1300001F1400003F1400009B
:102BB0005F1400007F1400009F140000BF14000089
:102BC000DF140000FF1400001F1500003F15000077
:102BD0005F1500007F1500009F150000BF15000065
:102BE000DF150000FF1500001F1600003F16000053
:102BF0005F1600007F1600009F160000BF16000041
:102C0000DF160000FF1600001F1700003F1700002E
:102C10005F1700007F1700009F170000BF1700001C
:102C2000DF170000FF1700001F1800003F1800000A
:102C30005F1800007F1800009F180000BF180000F8
:102C4000DF180000FF1800001F1900003F190000E6
:102C50005F1900007F1900009F190000BF190000D4
:102C6000DF190000FF1900001F1A00003F1A0000C2
:102C70005F1A00007F1A00009F1A0000BF1A0000B0
:102C8000DF1A0000FF1A00001F1B00003F1B00009E
:102C90005F1B00007F1B00009F1B0000BF1B00008C
:102CA000DF1B0000FF1B00001F1C00003F1C00007A
:102CB0005F1C00007F1C00009F1C0000BF1C000068
:102CC000DF1C0000FF1C00001F1D00003F1D000056
:102CD0005F1D00007F1D00009F1D0000BF1D000044
:102CE000DF1D0000FF1D00001F1E00003F1E000032
:102CF0005F1E00007F1E00009F1E0000BF1E000020
:102D0000DF1E0000FF1E00001F1F00003F1F00000D
:102D10005F1F00007F1F00009F1F0000BF1F0000FB
:102D2000DF1F0000FF1F00001F2000003F200000E9
:102D30005F2000007F2000009F200000BF200000D7
:102D4000DF200000FF2000001F2100003F210000C5
:102D50005F2100007F2100009F210000BF210000B3
:102D6000DF210000FF2100001F2200003F220000A1
:102D70005F2200007F2200009F220000BF2200008F
:102D8000DF220000FF2200001F2300003F2300007D
:102D90005F2300007F2300009F230000BF2300006B
:102DA000DF230000FF2300001F2400003F24000059
:102DB0005F2400007F2400009F240000BF24000047
:102DC000DF240000FF2400001F2500003F25000035
:102DD0005F2500007F2500009F250000BF25000023
:102DE000DF250000FF2500001F2600003F26000011
:102DF0005F2600007F2600009F260000BF260000FF
:102E0000DF260000FF2600001F2700003F270000EC
:102E10005F2700007F2700009F270000BF270000DA
:102E2000DF270000FF2700001F2800003F280000C8
:102E30005F2800007F2800009F280000BF280000B6
:102E4000DF280000FF2800001F2900003F290000A4
:102E50005F2900007F2900009F290000BF29000092
:102E6000DF290000FF2900001F2A00003F2A000080
:102E70005F2A00007F2A00009F2A0000BF2A00006E
:102E8000DF2A0000FF2A00001F2B00003F2B00005C
:102E90005F2B00007F2B00009F2B0000BF2B00004A
:102EA000DF2B0000FF2B00001F2C00003F2C000038
:102EB0005F2C00007F2C00009F2C0000BF2C000026
:102EC000DF2C0000FF2C00001F2D00003F2D000014
:102ED0005F2D00007F2D00009F2D0000BF2D000002
:102EE000DF2D0000FF2D00001F2E00003F2E0000F0
:102EF0005F2E00007F2E00009F2E0000BF2E0000DE
:102F0000DF2E0000FF2E00001F2F00003F2F0000CB
:102F10005F2F00007F2F00009F2F0000BF2F0000B9
:102F2000DF2F0000FF2F00001F3000003F300000A7
:102F30005F3000007F3000009F300000BF30000095
:102F4000DF300000FF3000001F3100003F31000083
:102F50005F3100007F3100009F310000BF31000071
:102F6000DF310000FF3100001F3200003F3200005F
:102F70005F3200007F3200009F320000BF3200004D
:102F8000DF320000FF3200001F3300003F3300003B
:102F90005F3300007F3300009F330000BF33000029
:102FA000DF330000FF3300001F3400003F34000017
:102FB0005F3400007F3400009F340000BF34000005
:102FC000DF340000FF3400001F3500003F350000F3
:102FD0005F3500007F3500009F350000BF350000E1
:102FE000DF350000FF3500001F3600003F360000CF
:102FF0005F3600007F3600009F360000BF360000BD
:10300000DF360000FF3600001F3700003F370000AA
:103010005F3700007F3700009F370000BF37000098
:10302000DF370000FF3700001F3800003F38000086
:103030005F3800007F3800009F380000BF38000074
:10304000DF380000FF3800001F3900003F39000062
:103050005F3900007F3900009F390000BF39000050
:10306000DF390000FF3900001F3A00003F3A00003E
:103070005F3A00007F3A00009F3A0000BF3A00002C
:10308000DF3A0000FF3A00001F3B00003F3B00001A
:103090005F3B00007F3B00009F3B0000BF3B000008
:1030A000DF3B0000FF3B00001F3C00003F3C0000F6
:1030B0005F3C00007F3C00009F3C0000BF3C0000E4
:1030C000DF3C0000FF3C00001F3D00003F3D0000D2
:1030D0005F3D00007F3D00009F3D0000BF3D0000C0
:1030E000DF3D0000FF3D00001F3E00003F3E0000AE
:1030F0005F3E00007F3E00009F3E0000BF3E00009C
:10310000DF3E0000FF3E00001F3F00003F3F000089
:103110005F3F00007F3F00009F3F0000BF3F000077
:10312000DF3F0000DF3F0000BF3F00009F3F000087
:103130007F3F00005F3F00003F3F00001F3F000057
:10314000FF3E0000DF3E0000BF3E00009F3E00004B
:103150007F3E00005F3E00003F3E00001F3E00003B
:10316000FF3D0000DF3D0000BF3D00009F3D00002F
:103170007F3D00005F3D00003F3D00001F3D00001F
:10318000FF3C0000DF3C0000BF3C00009F3C000013
:103190007F3C00005F3C00003F3C00001F3C000003
:1031A000FF3B0000DF3B0000BF3B00009F3B0000F7
:1031B0007F3B00005F3B00003F3B00001F3B0000E7
:1031C000FF3A0000DF3A0000BF3A00009F3A0000DB
:1031D0007F3A00005F3A00003F3A00001F3A0000CB
:1031E000FF390000DF390000BF3900009F390000BF
:1031F0007F3900005F3900003F3900001F390000AF
:10320000FF380000DF380000BF3800009F380000A2
:103210007F3800005F3800003F3800001F38000092
:10322000FF370000DF370000BF3700009F37000086
:103230007F3700005F3700003F3700001F37000076
:10324000FF360000DF360000BF3600009F3600006A
:103250007F3600005F3600003F3600001F3600005A
:10326000FF350000DF350000BF3500009F3500004E
:103270007F3500005F3500003F3500001F3500003E
:10328000FF340000DF340000BF3400009F34000032
:103290007F3400005F3400003F3400001F34000022
:1032A000FF330000DF330000BF3300009F33000016
:1032B0007F3300005F3300003F3300001F33000006
:1032C000FF320000DF320000BF3200009F320000FA
:1032D0007F3200005F3200003F3200001F320000EA
:1032E000FF310000DF310000BF3100009F310000DE
:1032F0007F3100005F3100003F3100001F310000CE
:10330000FF300000DF300000BF3000009F300000C1
:103310007F3000005F3000003F3000001F300000B1
:10332000FF2F0000DF2F0000BF2F00009F2F0000A5
:103330007F2F00005F2F00003F2F00001F2F000095
:10334000FF2E0000DF2E0000BF2E00009F2E000089
:103350007F2E00005F2E00003F2E00001F2E000079
:10336000FF2D0000DF2D0000BF2D00009F2D00006D
:103370007F2D00005F2D00003F2D00001F2D00005D
:10338000FF2C0000DF2C0000BF2C00009F2C000051
:103390007F2C00005F2C00003F2C00001F2C000041
:1033A000FF2B0000DF2B0000BF2B00009F2B000035
:1033B0007F2B00005F2B00003F2B00001F2B000025
:1033C000FF2A0000DF2A0000BF2A00009F2A000019
:1033D0007F2A00005F2A00003F2A00001F2A000009
:1033E000FF290000DF290000BF2900009F290000FD
:1033F0007F2900005F2900003F2900001F290000ED
:10340000FF280000DF280000BF2800009F280000E0
:103410007F2800005F2800003F2800001F280000D0
:10342000FF270000DF270000BF2700009F270000C4
:103430007F2700005F2700003F2700001F270000B4
:10344000FF260000DF260000BF2600009F260000A8
:103450007F2600005F2600003F2600001F26000098
:10346000FF250000DF250000BF2500009F2500008C
:103470007F2500005F2500003F2500001F2500007C
:10348000FF240000DF240000BF2400009F24000070
:103490007F2400005F2400003F2400001F24000060
:1034A000FF230000DF230000BF2300009F23000054
:1034B0007F2300005F2300003F2300001F23000044
:1034C000FF220000DF220000BF2200009F22000038
:1034D0007F2200005F2200003F2200001F22000028
:1034E000FF210000DF210000BF2100009F2100001C
:1034F0007F2100005F2100003F2100001F2100000C
:10350000FF200000DF200000BF2000009F200000FF
:103510007F2000005F2000003F2000001F200000EF
:10352000FF1F0000DF1F0000BF1F00009F1F0000E3
:103530007F1F00005F1F00003F1F00001F1F0000D3
:10354000FF1E0000DF1E0000BF1E00009F1E0000C7
:103550007F1E00005F1E00003F1E00001F1E0000B7
:10356000FF1D0000DF1D0000BF1D00009F1D0000AB
:103570007F1D00005F1D00003F1D00001F1D00009B
:10358000FF1C0000DF1C0000BF1C00009F1C00008F
:103590007F1C00005F1C00003F1C00001F1C00007F
:1035A000FF1B0000DF1B0000BF1B00009F1B000073
:1035B0007F1B00005F1B00003F1B00001F1B000063
:1035C000FF1A0000DF1A0000BF1A00009F1A000057
:1035D0007F1A00005F1A00003F1A00001F1A000047
:1035E000FF190000DF190000BF1900009F1900003B
:1035F0007F1900005F1900003F1900001F1900002B
:10360000FF180000DF180000BF1800009F1800001E
:103610007F1800005F1800003F1800001F1800000E
:10362000FF170000DF170000BF1700009F17000002
:103630007F1700005F1700003F1700001F170000F2
:10364000FF160000DF160000BF1600009F160000E6
:103650007F1600005F1600003F1600001F160000D6
:10366000FF150000DF150000BF1500009F150000CA
:103670007F1500005F1500003F1500001F150000BA
:10368000FF140000DF140000BF1400009F140000AE
:103690007F1400005F1400003F1400001F1400009E
:1036A000FF130000DF130000BF1300009F13000092
:1036B0007F1300005F1300003F1300001F13000082
:1036C000FF120000DF120000BF1200009F12000076
:1036D0007F1200005F1200003F1200001F12000066
:1036E000FF110000DF110000BF1100009F1100005A
:1036F0007F1100005F1100003F1100001F1100004A
:10370000FF100000DF100000BF1000009F1000003D
:103710007F1000005F1000003F1000001F1000002D
:10372000FF0F0000DF0F0000BF0F00009F0F000021
:103730007F0F00005F0F00003F0F00001F0F000011
:10374000FF0E0000DF0E0000BF0E00009F0E000005
:103750007F0E00005F0E00003F0E00001F0E0000F5
:10376000FF0D0000DF0D0000BF0D00009F0D0000E9
:103770007F0D00005F0D00003F0D00001F0D0000D9
:10378000FF0C0000DF0C0000BF0C00009F0C0000CD
:103790007F0C00005F0C00003F0C00001F0C0000BD
:1037A000FF0B0000DF0B0000BF0B00009F0B0000B1
:1037B0007F0B00005F0B00003F0B00001F0B0000A1
:1037C000FF0A0000DF0A0000BF0A00009F0A000095
:1037D0007F0A00005F0A00003F0A00001F0A000085
:1037E000FF090000DF090000BF0900009F09000079
:1037F0007F0900005F0900003F0900001F09000069
:10380000FF080000DF080000BF0800009F0800005C
:103810007F0800005F0800003F0800001F0800004C
:10382000FF070000DF070000BF0700009F07000040
:103830007F0700005F0700003F0700001F07000030
:10384000FF060000DF060000BF0600009F06000024
:103850007F0600005F0600003F0600001F06000014
:10386000FF050000DF050000BF0500009F05000008
:103870007F0500005F0500003F0500001F050000F8
:10388000FF040000DF040000BF0400009F040000EC
:103890007F0400005F0400003F0400001F040000DC
:1038A000FF030000DF030000BF0300009F030000D0
:1038B0007F0300005F0300003F0300001F030000C0
:1038C000FF020000DF020000BF0200009F020000B4
:1038D0007F0200005F0200003F0200001F020000A4
:1038E000FF010000DF010000BF0100009F01000098
:1038F0007F0100005F0100003F0100001F01000088
:10390000FF000000DF000000BF0000009F0000007B
:103910007F0000005F0000003F0000001F0000006B
:10392000000000004839000800000024203000009A
:10393000FC020008A851000820300024680600009E
:103940006403000800000000100D004000000100AA
:103950000000050F4150071300920D10572403007B
:1039600000B604000048060000DA0700006C0900F9
:1039700000FD0A00008F0C0000210E0000B20F00B5
:103980000043110000D512000065140000F6150078
:10399000008717000017190000A71A0000371C0045
:1039A00000C61D0000561F0000E520000073220025
:1039B00000022440100A2500001D270000AA282428
:1039C000101A2A0000C32B00004F2D0000DB2E0030
:1039D0000066300000F13100007B338C102235008E
:1039E000008E360000163800009E390000263B008D
:1039F00000AD3C0000333E0000B93F00003E413CBA
:103A0000101242000047440000CA4500004C470025
:103A100000CE484C10064A0000D04B08124D101042
:103A2000054E00004DD213CA51281253301254389B
:103A3000100A560000B8570000315984125ACC10B1
:103A40001A5C0000985D00000E5F000083600000BB
:103A5000F76100006A630000DC643C10126600003D
:103A6000BD6700002C6900009A6A0000076CC8144A
:103A7000066D0000DE6E18100E700000B1710000BF
:103A8000197300007F74E4103A7500004977000054
:103A9000AC7800000F7A00006F7B0000CF7C000044
:103AA0002E7E00008B7F0000E78000004282000035
:103AB0009B830000F38400004A860000A08700007A
:103AC000F5884C14228A0000998B0000EA8C0000D3
:103AD000398E0000868F0000D39000001E920000F7
:103AE00067930000AF946010069500003B976C143C
:103AF00006980000C1994C10069B0000419C1010D4
:103B0000069D0000BB9E2014069F00002FA14414B8
:103B100012A200009DA30000D1A4000004A6000092
:103B200035A7A0100AA8000093A90000BFAA64103E
:103B300006AB000013AD4C140AAE000060AF0000ED
:103B400085B0B01006B10000C8B2A412B33410069C
:103B5000B500001FB6881006B7000051B88016B92E
:103B60009016BA8C100ABB00009FBC0000AEBD705E
:103B700016BEDC16BF681012C00000D7C10000DD01
:103B8000C20000E1C30000E3C40412C50C12C61455
:103B900012C71C12C82412C92C12CA3416CBC01664
:103BA000CCCC140ECD00008CCE000079CF00006389
:103BB000D0B81806D1000032D2381005D30000F971
:103BC0000417DAD4A01406D5000095D64416D7B849
:103BD0001AD8301AD918110413C3DAC812DBB81670
:103BE000DC9416DD3C11041012BDDE000082DF0003
:103BF0000045E0000006E10000C4041381E2E01685
:103C0000E36811041407A9E400005DE5E012E62C66
:103C10001104100A6AE7000015E80000BE04180746
:103C200064E9000008EA081104174AEB00110414C3
:103C30000782EC00001BEDDC11041345EEC41104F7
:103C4000100667EF0000F404137FF03016F10C113A
:103C500004100612F200009404100613F300009002
:103C6000041B0AF440110412F908176CF500110442
:103C70001B4CF6AC1104100623F700008A0412F066
:103C800008100652F80000B304100611F900006D88
:103C90000412C60810061DFA0000720412C40810AF
:103CA0000613FB0000610412AB0412F40C10063A78
:103CB000FC00007D0412BE0412FD0C1B39FD8411B2
:103CC0000412AA0412DF0C1B12FE581104126F0416
:103CD000129A0412C30412E9141B0DFF7C11041282
:103CE0004D04126904128304129B0412B00412C220
:103CF0000412D20412E00412EB0412F30412FA04C8
:103D000012FD0452FF0852FA1852EB2852D23852D0
:103D1000B048528358524D68217052E980529A90AF
:103D2000219821A052DFB021B821C052FDD021D866
:103D300021E052F4F021F8250056C410251856C68B
:103D40002825302538254056F0502558256025680F
:103D50002570257856F9882590259825A025A82531
:103D6000B025B825C025C825D025D825E025E825CB
:103D7000F025F8290029082910291829202928299F
:103D8000302938294029482950295829602968298B
:103D9000702978298029882990299829A029A8297B
:103DA000B029B829C029C829D029D829E029E8296B
:103DB000F029F82D00032D08032D10032D18032DD5
:103DC00020032D28032D30032D38032D40032D48CB
:103DD000032D50032D58032D60032D68032D700310
:103DE0002D78032D80032D88032D90032D98032D0E
:103DF000A0032DA8032DB0032DB8032DC0032DC89B
:103E0000032DD0032DD8032DE0032DE8032DF0035F
:103E10002DF8032D00042D08042D10042D18042D59
:103E200020042D28042D30042D38042D40042D4865
:103E3000042D50042D58042D60042D68042D7004A9
:103E40002D78042D80042D88042D90042D98042DA8
:103E5000A0042DA8042DB0042DB8042DC0042DC835
:103E6000042DD0042DD8042DE0042DE8042DF004F9
:103E70002DF8042D00052D08052D10052D18052DF4
:103E800020052D28052D30052D38052D40052D4800
:103E9000052D50052D58052D60052D68052D700543
:103EA0002D78052D80052D88052D90052D98052D43
:103EB000A0052DA8052DB0052DB8052DC0052DC8D0
:103EC000052DD0052DD8052DE0052DE8052DF00593
:103ED0002DF8052D00062D08062D10062D18062D8F
:103EE00020062D28062D30062D38062D40062D489B
:103EF000062D50062D58062D60062D68062D7006DD
:103F00003D78064E4A88062D90062D98062DA0066F
:103F10002DA8062DB0062DB8062DC0062DC8062DDD
:103F2000D0062DD8062DE0062DE8062DF0062DF83A
:103F3000062D00072D08072D10072D18072D200727
:103F40002D28072D30072D38072D40072D48072D28
:103F500050072D58072D60072D68072D70072D7805
:103F6000072D80072D88072D90072D98072DA00776
:103F70002DA8072DB0072DB8072DC0072DC8072D78
:103F8000D0072DD8072DE0072DE8072DF0072DF8D5
:103F9000074D00081059FF7F2403FF7FB604FF7F01
:103FA0004806FF7FDA07FF7F6C09FF7FFD0AFF7F6E
:103FB0008F0CFF7F210EFF7FB20FFF7F4311FF7F2A
:103FC000D512FF7F6514FF7FF615FF7F8717FF7FF0
:103FD0001719FF7FA71AFF7F371CFF7FC61DFF7FC2
:103FE000561FFF7FE520FF7F7322FF7F02244010D2
:103FF0000A25FF7F1D27FF7FAA2824103E2AFF7F66
:10400000C32BFF7F4F2DFF7FDB2EFF7F6630FF7FAF
:10401000F131FF7F7B33FF7F0535FF7F8E36FF7FDA
:104020001638FF7F9E39FF7F263BFF7FAD3CFF7F29
:10403000333EFF7FB93FFF7F3E413C101242FF7F7E
:104040004744FF7FCA45FF7F4C47FF7FCE484C1057
:10405000064AFF7FD04B08124D1010064EFF7F4DD1
:104060005020125128125330125438100A56FF7F34
:10407000B857FF7F315984125ACC101A5CFF7F98D1
:104080005DFF7F0E5FFF7F8360FF7FF761FF7F6AC9
:1040900063FF7FDC643C101266FF7FBD67FF7F2CEF
:1040A00069FF7F9A6AFF7F076CC814066DFF7FDE89
:1040B0006E18100E70FF7FB171FF7F1973FF7F7F45
:1040C00074E4103A75FF7F4977FF7FAC78FF7F0F6C
:1040D0007AFF7F6F7BFF7FCF7CFF7F2E7EFF7F8B02
:1040E0007FFF7FE780FF7F4282FF7F9B83FF7FF31D
:1040F00084FF7F4A86FF7FA087FF7FF5884C1422CC
:104100008AFF7F998BFF7FEA8CFF7F398EFF7F8646
:104110008FFF7FD390FF7F1E92FF7F6793FF7FAF5C
:104120009460100695FF7F3B976C140698FF7FC143
:10413000994C10069BFF7F419C1010069DFF7FBB92
:104140009E2014069FFF7F2FA1441412A2FF7F9D83
:10415000A3FF7FD1A4FF7F04A6FF7F35A7A0100A8D
:10416000A8FF7F93A9FF7FBFAA641006ABFF7F1350
:10417000AD4C140AAEFF7F60AFFF7F85B0B0100674
:10418000B1FF7FC8B2A412B3341006B5FF7F1FB6CB
:10419000881006B7FF7F51B88016B99016BA8C10F8
:1041A0000ABBFF7F9FBCFF7FAEBD7016BEDC16BF93
:1041B000681012C0FF7FD7C1FF7FDDC2FF7FE1C360
:1041C000FF7FE3C40412C50C12C61412C71C12C828
:1041D0002412C92C12CA3416CBC016CCCC140ECD66
:1041E000FF7F8CCEFF7F79CFFF7F63D0B81806D1D9
:1041F000FF7F32D2381005D3FF7FF90417DAD4A03D
:104200001406D5FF7F95D64416D7B81AD8301AD9D8
:1042100018110413C3DAC812DBB816DC9416DD3C9F
:1042200011041012BDDEFF7F82DFFF7F45E0FF7FBC
:1042300006E1FF7FC4041381E2E016E36811041471
:1042400007A9E4FF7F5DE5E012E62C1104100A6A7D
:10425000E7FF7F15E8FF7FBE04180764E9FF7F08CA
:10426000EA081104174AEB001104140782ECFF7FDF
:104270001BEDDC11041345EEC41104100667EFFFBB
:104280007FF404137FF03016F10C1104100612F2C3
:10429000FF7F9404100613F3FF7F90041B0AF44081
:1042A000110412F908176CF50011041B4CF6AC113F
:1042B00004100623F7FF7F8A0412F008100652F854
:1042C000FF7FB304100611F9FF7F6D0412C60810BA
:1042D000061DFAFF7F720412C408100613FBFF7F4D
:1042E000610412AB0412F40C10063AFCFF7F7D044B
:1042F00012BE0412FD0C1B39FD84110412AA041213
:10430000DF0C1B12FE581104126F04129A0412C320
:104310000412E9141B0DFF7C1104124D04126904F0
:10432000128304129B0412B00412C20412D20412AB
:10433000E00412EB0412F30412FA0412FD0452FF1B
:104340000852FA1852EB2852D23852B048528358C9
:10435000524D68217052E980529A90219821A052C2
:10436000DFB021B821C052FDD021D821E052F4F0B5
:1043700021F8250056C410251856C62825302538A2
:10438000254056F05025582560256825702578561B
:10439000F9882590259825A025A825B025B825C001
:1043A00025C825D025D825E025E825F025F82900C1
:1043B0002908291029182920292829302938294095
:1043C0002948295029582960296829702978298085
:1043D00029882990299829A029A829B029B829C075
:1043E00029C829D029D829E029E829F029F82D0061
:1043F000032D08032D10032D18032D20032D280352
:104400002D30032D38032D40032D48032D50032D4F
:1044100058032D60032D68032D70032D78032D8024
:10442000032D88032D90032D98032DA0032DA803A1
:104430002DB0032DB8032DC0032DC8032DD0032D9F
:10444000D8032DE0032DE8032DF0032DF8032D00F4
:10445000042D08042D10042D18042D20042D2804EB
:104460002D30042D38042D40042D48042D50042DEA
:1044700058042D60042D68042D70042D78042D80BF
:10448000042D88042D90042D98042DA0042DA8043B
:104490002DB0042DB8042DC0042DC8042DD0042D3A
:1044A000D8042DE0042DE8042DF0042DF8042D008F
:1044B000052D08052D10052D18052D20052D280585
:1044C0002D30052D38052D40052D48052D50052D85
:1044D00058052D60052D68052D70052D78052D805A
:1044E000052D88052D90052D98052DA0052DA805D5
:1044F0002DB0052DB8052DC0052DC8052DD0052DD5
:10450000D8052DE0052DE8052DF0052DF8052D0029
:10451000062D08062D10062D18062D20062D28061E
:104520002D30062D38062D40062D48062D50062D1F
:1045300058062D60062D68062D70063D78064E4AF9
:1045400088062D90062D98062DA0062DA8062DB0C4
:10455000062DB8062DC0062DC8062DD0062DD8066E
:104560002DE0062DE8062DF0062DF8062D00072D6E
:1045700008072D10072D18072D20072D28072D308F
:10458000072D38072D40072D48072D50072D5807B8
:104590002D60072D68072D70072D78072D80072DBA
:1045A00088072D90072D98072DA0072DA8072DB05F
:1045B000072DB8072DC0072DC8072DD0072DD80708
:1045C0002DE0072DE8072DF0072DF80703FFFFFF6B
:1045D0000401FF0401FF0401FF0401FF0401FF04C3
:1045E00001FF0401F7044D041401FF0401FF04015D
:1045F000FF0401FF0401FF0401FF0401FF0401F1B6
:10460000041D04081D44141EFFA8131EFF74141E6D
:10461000FF88141EFF88131EFFAC141EFF7C131EA0
:10462000FFC8141EFF70131EFF6C131EFFF0141E34
:10463000FF60131EFF0C151EFF18151EFF58131EDA
:10464000FF2C151EFF38151EFF44151EFF4C131EB0
:10465000FF58151EFF64151EFF44131EFF78151E1C
:10466000FF40131EFF8C151EFF3C131EFF3C131E44
:10467000FFA8151EFF38131EFFBC151EFF34131EA6
:10468000FF34131EFF34131EFFE0151EFF30131EF0
:10469000FF30131EFF30131EFF04161EFF2C131EC7
:1046A000FF2C131EFF2C131EFF2C131EFF2C131E9A
:1046B000FF38161EFF28131EFF28131EFF28131E87
:1046C000FF28131EFF28131EFF28131EFF28131E8A
:1046D000FF28131EFF28131EFF28131EFF28131E7A
:1046E000FF28131EFF28131EFF28131EFFB0161EDF
:1046F000FFB8161EFFC0161EFFC8161EFFD0161EDE
:10470000FFD8161EFFE0161EFFE8161EFFF0161E4D
:10471000FFF8161EFF00171EFF08171EFF10171EBA
:10472000FF18171EFF20171EFF281313FFB4041DC8
:104730002C131EFF3C171EFF44171EFF4C171EFFB5
:1047400054171EFF5C171EFF2C1313FFAC041D3003
:10475000131EFF78171EFF80171EFF88171EFF907D
:10476000171EFF301313FFA5041D34131EFFAC17D3
:104770001EFFB4171EFF341313FFA0041D38131EB1
:10478000FFD0171EFFD8171EFFE0171EFF381313A8
:10479000FF9A041D3C131EFFFC171EFF3C1313FF62
:1047A00096041D40131EFF18181EFF20181EFF4000
:1047B0001313FF91041D44131EFF3C181EFF4413E6
:1047C00013FF8D041D48131EFF58181EFF481313B6
:1047D000FF89041D4C131EFF74181EFF4C1313FF9A
:1047E00085041D50131EFF90181EFF501313FF81E8
:1047F000041D541331021D541313FF7D041D58135F
:104800001EFFC8181EFF581313FF79041D5C131EEA
:10481000FF5C1313FF76041D60131EFFF8181EFFC4
:10482000601313FF72041D64131EFF641313FF6FE4
:10483000041D68131EFF28191EFF681313FF6B0465
:104840001D6C131EFF6C1313FF68041D70131EFFF5
:10485000701313FF65041D74131EFF741313FF629E
:10486000041D78131EFF80191EFF781313FF5E04CA
:104870001D7C131EFF7C1313FF5B041D80131EFFA2
:10488000801313FF58041D84131EFF841313FF5558
:10489000041D88131EFF881313FF52041D8C131E62
:1048A000FF8C1313FF4F041D90131EFF901313FF73
:1048B0004C041D0C1A1EFF141A13FF49041D201A64
:1048C0001EFF281A13FF46041D341A1EFF3C1A133C
:1048D000FF43041D481A1EFF501A13FF40041D5CBD
:1048E0001A1EFF641A13FF3D041D701A1EFF781A6A
:1048F00013FF3A041D841A1EFF8C1A13FF37041D80
:10490000981A1EFFA01A13FF34041DB41313FF32AC
:10491000041DB81A1EFFC01A13FF2F041DCC1A1E47
:10492000FFD41A13FF2C041DE01A1EFFE81A13FF10
:1049300029041DF41A1EFFFC1A13FF26041D081B70
:104940001EFF101B13FF23041DCC1313FF21041D96
:10495000281B1EFF301B13FF1E041D3C1B1EFF44A3
:104960001B13FF1B041D501B1EFF581B13FF1804B5
:104970001DDC1313FF16041D701B1EFF781B13FF95
:1049800013041D841B1EFF8C1B13FF10041D981B9A
:104990001EFFA01B13FF0D041DEC1313FF0B041DC2
:1049A000B81B1EFFC01B13FF08041DCC1B1EFFD429
:1049B0001B13FF05041DE01B1EFFE81B13FF020471
:1049C0002DFC131F00FF521D1D042021041D042473
:1049D0001FFF0210201D08241EFF08241FFF051CB6
:1049E000201D0C241EFF0C241FFF0828201D10244E
:1049F0001EFF10241FFF0B34201D541C1FFF0D3CF5
:104A0000201D18241EFF18241FFF1048201D1C24E1
:104A10001EFF1C241FFF1354201D20241EFF2024D2
:104A20001FFF1660201D9C1C1FFF1868201D2824D6
:104A30001EFF28241FFF1B74201D2C241EFF2C2466
:104A40001FFF1E80201D30241EFF30241FFF218CDD
:104A5000201DE41C1FFF2394201D38241EFF382432
:104A60001FFF26A0201D3C241EFF3C241FFF29AC55
:104A7000201D40241EFF40241FFF2CB8201D44246D
:104A80001EFF44241FFF2FC4201D48241EFF48245E
:104A90001FFF32D0201D541D1FFF34D8201D50246D
:104AA0001EFF50241FFF37E4201D54241EFF5424F2
:104AB0001FFF3AF0201D58241EFF58241FFF3DFC05
:104AC000201D5C241EFF5C241EFF10251EFF602499
:104AD0001EFF60241FFF4314211D64241EFF642455
:104AE0001FFF4620211D68241EFF68241FFF492C3C
:104AF000211D6C241EFF6C241FFF4C38211D001E3D
:104B00001EFF081E1FFF4F44211D141E1EFF1C1EEA
:104B10001FFF5250211D281E1EFF301E1FFF555C17
:104B2000211D3C1E1EFF441E1FFF5868211D501EE4
:104B30001EFF581E1FFF5B74211D641E1EFF6C1E8E
:104B40001FFF5E80211D781E1EFF88241EFF881E09
:104B50001FFF6290211D941E1EFF9C1E1FFF659C5F
:104B6000211DA81E1EFFB01E1FFF68A8211DBC1E10
:104B70001EFFC41E1FFF6BB4211DD01E1EFF9824F4
:104B80001EFFE01E1FFF6FC4211DEC1E1EFFF41E42
:104B90001FFF72D0211D001F1EFFA0241EFF101F2B
:104BA0001FFF76E0211D1C1F1EFF241F1FFF79EC35
:104BB000211D301F1EFFA8241EFF401F1FFF7DFC6C
:104BC000211D4C1F29021EFF5C1F1FFF810C221D8F
:104BD000681F1EFFB0241EFF781F1FFF851C221DAB
:104BE000841F1EFFB4241EFF941F1FFF892C221D4B
:104BF000A01F1EFFB8241EFFB01F1FFF8D3C221DEB
:104C0000BC1F1EFFBC241EFFCC1F1FFF914C221D8A
:104C1000D81F1EFFC0241EFFC0241EFFF01F1FFF51
:104C20009660221DFC1F1EFFC4241EFF0C201FFFC8
:104C30009A70221D18201EFFC8241EFFC8241EFFC4
:104C4000C8241EFF38201FFFA088221D44201EFFFD
:104C5000CC241EFFCC241EFF5C201FFFA59C221D20
:104C600068201EFFD0241EFFD0241EFFD0241EFF6C
:104C7000D0241EFF90201FFFACB8221D9C201EFFD9
:104C8000D4241EFFD4241EFFD4241EFFD4241EFFD0
:104C9000D4241EFFCC201FFFB4D8221DD8201EFF15
:104CA000D8241EFFD8241EFFD8241EFFD8241EFFA0
:104CB000D8241EFFD8241EFFD8241EFFD8241EFF90
:104CC000D8241EFFD8241EFFD8241EFFD8241EFF80
:104CD000D8241EFFD8241EFFD8241EFF58211EFFF3
:104CE00060211EFF68211EFF70211EFF78211EFF1C
:104CF00080211EFF88211EFF90211EFF98211EFF8C
:104D0000A0211EFFA8211EFFB0211EFFB8211EFFFB
:104D1000C0211EFFD8241EFFD4211EFFDC211EFF50
:104D2000E4211EFFEC211EFFF4211EFFD4241EFFF0
:104D300008221EFF10221EFF18221EFFD0241EFF75
:104D40002C221EFF34221EFF3C221EFFCC241EFFFD
:104D500050221EFFC8241EFF64221EFF6C221EFF6D
:104D6000C4241EFF80221EFFC0241EFF94221EFFAB
:104D7000BC241EFFB8241EFFB4221EFFB4241EFF55
:104D8000B0241EFFAC241EFFE0221EFFA8241EFF3D
:104D9000A4241EFF00231EFF98241EFF1C231EFFB9
:104DA00028231EFF88241EFF44231EFF7C241EFF91
:104DB00060231EFF68241EFF5C241EFF98235FFFF4
:104DC000FE7C0852FE1052FC2052FA3052F840523B
:104DD000F65052F46052F27052F08052EE9052EC63
:104DE000A052EAB052E8C052E6D052E4E052E2F0FB
:104DF00056E00056DE1056DC2056DA3056D84056C3
:104E0000D65056D46056D27056D08056CE9056CCDE
:104E1000A056CAB056C8C056C6D056C4E056C2F056
:104E20005AC0005ABE105ABC205ABA305AB8405A1A
:104E3000B6505AB4605AB2705AB0805AAE905AAC5A
:104E4000A05AAAB05AA8C05AA6D05AA4E05AA2F0B2
:104E50005EA000035E9E10035E9C20035E9A3003FA
:104E60005E9840035E9650035E9460035E9270030A
:104E70005E9080035E8E90035E8CA0035E8AB0031A
:104E80005E88C0035E86D0035E84E0035E82F0032A
:104E90005E8000045E7E10045E7C20045E7A300436
:104EA0005E7840045E7650045E7460045E72700446
:104EB0005E7080045E6E90045E6CA0045E6AB00456
:104EC0005E68C0045E66D0045E64E0045E62F00466
:104ED0005E6000055E5E10055E5C20055E5A300572
:104EE0005E5840055E5650055E5460055E52700582
:104EF0005E5080055E4E90055E4CA0055E4AB00592
:104F00005E48C0055E46D0055E44E0055E42F005A1
:104F10005E4000065E3E10065E3C20065E3A3006AD
:104F20005E3840065E3650065E3460065E327006BD
:104F30005E3080065E2E90065E2CA0065E2AB006CD
:104F40005E28C0065E26D0065E24E0065E22F006DD
:104F50005E2000075E1E10075E1C20075E1A3007E9
:104F60005E1840075E1650075E1460075E127007F9
:104F70005E1080075E0E90075E0CA0075E0AB00709
:104F80005E08C0075E06D0075E04E0075E02F00719
:104F90004DFF231D00085D10085E0220085E0430EE
:104FA000085E0640085E0850085E0A60085E0C70E5
:104FB000085E0E80085E1090085E12A0085E14B0B5
:104FC000085E16C0085E18D0085E1AE0085E1CF085
:104FD000085E1E00095E2010095E2220095E243052
:104FE000095E2640095E2850095E2A60095E2C7021
:104FF000095E2E80095E3090095E32A0095E34B0F1
:10500000095E36C0095E38D0095E3AE0095E3CF0C0
:10501000095E3E000A5E40100A5E42200A5E44308D
:105020000A5E46400A5E48500A5E4A600A5E4C705C
:105030000A5E4E800A5E50900A5E52A00A5E54B02C
:105040000A5E56C00A5E58D00A5E5AE00A5E5CF0FC
:105050000A5E5E000B5E60100B5E62200B5E6430C9
:105060000B5E66400B5E68500B5E6A600B5E6C7098
:105070000B5E6E800B5E70900B5E72A00B5E74B068
:105080000B5E76C00B5E78D00B5E7AE00B5E7CF038
:105090000B5E7E000C5E80100C5E82200C5E843005
:1050A0000C5E86400C5E88500C5E8A600C5E8C70D4
:1050B0000C5E8E800C5E90900C5E92A00C5E94B0A4
:1050C0000C5E96C00C5E98D00C5E9AE00C5E9CF074
:1050D0000C5E9E000D5EA0100D5EA2200D5EA43041
:1050E0000D5EA6400D5EA8500D5EAA600D5EAC7010
:1050F0000D5EAE800D5EB0900D5EB2A00D5EB4B0E0
:105100000D5EB6C00D5EB8D00D5EBAE00D5EBCF0AF
:105110000D5EBE000E5EC0100E5EC2200E5EC4307C
:105120000E5EC6400E5EC8500E5ECA600E5ECC704B
:105130000E5ECE800E5ED0900E5ED2A00E5ED4B01B
:105140000E5ED6C00E5ED8D00E5EDAE00E5EDCF0EB
:105150000E5EDE000F5EE0100F5EE2200F5EE430B8
:105160000F5EE6400F5EE8500F5EEA600F5EEC7087
:105170000F5EEE800F5EF0900F5EF2A00F5EF4B057
:105180000F5EF6C00F5EF8D00F5EFAE00F5EFCF027
:105190000F1D382420050090D003042D10305E1020
:0851A0001004000000000000F3
:040000050800029954
:00000001FF
