:020000040800F2
:1000000090160024A5030008812600082923000873
:100010007926000801090008092C000800000000EA
:10002000000000000000000000000000412800085F
:100030000909000800000000892700084929000874
:10004000BF030008BF030008BF030008BF03000888
:10005000BF030008BF030008BF030008BF03000878
:10006000BF030008BF030008BF030008BF03000868
:10007000BF030008BF030008BF030008BF03000858
:10008000BF030008BF030008BF030008BF03000848
:10009000BF030008BF030008BF030008BF03000838
:1000A000BF030008BF030008BF030008BF03000828
:1000B000BF030008BF030008BF030008BF03000818
:1000C000BF030008BF030008BF030008BF03000808
:1000D000BF030008BF030008BF030008BF030008F8
:1000E000BF030008BF03000800000000BF030008B2
:1000F000BF030008BF030008BF030008BF030008D8
:10010000BF030008BF030008BF030008BF030008C7
:10011000BF030008BF030008BF030008BF030008B7
:10012000BF030008BF030008BF030008BF030008A7
:10013000BF030008BF030008BF030008BF03000897
:1001400000000000000000000000000000000000AF
:10015000BF030008BF030008BF030008BF03000877
:10016000BF030008BF030008BF030008BF03000867
:10017000BF030008BF030008BF0300080000000021
:10018000BF030008BF030008BF030008BF03000847
:10019000BF030008BF030008BF030008BF03000837
:1001A000BF030008BF030008BF030008BF03000827
:1001B000BF030008BF030008BF030008BF03000817
:1001C000BF030008BF030008BF030008BF03000807
:1001D000BF030008BF030008BF030008BF030008F7
:1001E000BF030008BF030008BF030008BF030008E7
:1001F000BF030008BF030008BF030008BF030008D7
:10020000BF030008BF030008BF030008BF030008C6
:10021000BF030008BF030008BF030008BF030008B6
:10022000BF030008BF030008BF0300080000000070
:10023000BF030008BF03000800000000BF03000860
:10024000BF030008BF030008BF030008BF03000886
:10025000BF030008BF030008BF030008BF03000876
:10026000BF030008BF030008BF030008BF03000866
:10027000BF030008BF030008BF0300080000000020
:10028000BF030008BF030008BF0300080000000010
:1002900000000000BF03000800F002F800F072F850
:1002A00014A696E8000CB244B344DA4501D100F03C
:1002B00069F8BAE80F000FA696E83000A5EB040530
:1002C00004EB0607AAEB0704A7F101074FEA15158F
:1002D0004FEA3414A4F10104AC4201D300F052F807
:1002E00013F0010F18BFFB1A43F0010300F001F8EF
:1002F000DBE71847242D0000442D00000A444FF08E
:10030000000C10F8013B13F0070408BF10F8014B74
:100310001D1108BF10F8015B641E05D010F8016BB9
:10032000641E01F8016BF9D113F0080F1EBF10F81D
:10033000014BAD1C0C1B09D16D1E58BF01F801CB40
:10034000FAD505E014F8016B01F8016B6D1EF9D5C3
:100350009142D6D37047000070470000002300246C
:1003600000250026103A28BF78C1FBD8520728BFC5
:1003700030C148BF0B6070471FB502F08BFD1FBD39
:1003800010B510BD00F058F81146FFF7F5FF02F068
:1003900063FD00F076F803B4FFF7F2FF03BC00F052
:1003A0007DF800000948804709480047FEE7FEE75E
:1003B000FEE7FEE7FEE7FEE7FEE7FEE7FEE7FEE715
:1003C00004480549054A064B70470000A92A000861
:1003D0009902000890100024901600249012002426
:1003E000901200244FF0000200B513469446964642
:1003F000203922BFA0E80C50A0E80C50B1F1200138
:10040000BFF4F7AF090728BFA0E80C5048BF0CC0E5
:100410005DF804EB890028BF40F8042B08BF704743
:1004200048BF20F8022B11F0804F18BF00F8012BB5
:100430007047704770477047754600F02BF8AE461E
:1004400005006946534620F00700854618B020B5E0
:10045000FFF7B6FFBDE820404FF000064FF0000761
:100460004FF000084FF0000BAC46ACE8C009ACE818
:10047000C009ACE8C009ACE8C00921F007018D460D
:10048000704710B50446AFF300802046BDE8104029
:10049000FFF781BF00487047201000240149182051
:1004A000ABBEFEE72600020070470000000000001F
:1004B00080B582B08DED010A02F01EF902F044FC15
:1004C0009DED010A02F0C0F902B080BD00000000FD
:1004D00080B58CB041F60000C5F6020009902021DD
:1004E0000891012200F054FC0899099800220A9210
:1004F00000F04EFC09980A9A102100F049FC0220F5
:1005000002F0D2FB0A980B90FFE70B9803280DDC52
:10051000FFE70B9940F20800C2F20040405C02F095
:10052000C3FBFFE70B9801300B90EEE741F60000AC
:10053000C5F60200059010210691012200F028FC6A
:100540000A2000F0E5F9059806990022079200F0CC
:100550001FFC032002F0A8FB07980B90FFE70B9805
:1005600003280DDCFFE70B9940F20000C2F20040C7
:10057000405C02F099FBFFE70B9801300B90EEE72F
:1005800041F60000C5F6020010210122009200F0A1
:10059000FFFB0A20019000F0BBF940F60040C5F6D1
:1005A000020002904FF4004103910022049200F0F7
:1005B000EFFB019800F0ACF9009A0298039900F063
:1005C000E7FB019800F0A4F902980399049A00F05F
:1005D000DFFB0CB080BD000080B592B04FF48040CE
:1005E000109044F20100C2F208000F9000220C9219
:1005F0000E924FF63F700D9041F60000C5F60200D6
:10060000102100F0C5FB0C9802F04EFB0C981190E5
:10061000FFE7119803280ADCFFE7119910A8405C56
:1006200002F042FBFFE7119801301190F1E741F62B
:100630000000C5F6020008901021099101220A92DB
:1006400000F0A6FB0A2000F063F90898099900223F
:100650000B9200F09DFB0A9802F026FB0B9811907C
:10066000FFE7119803280ADCFFE711990FA8405C07
:1006700002F01AFBFFE7119801301190F1E741F603
:100680000000C5F60200059010210691012200F03D
:100690007FFB0A2000F03CF905980699002207929A
:1006A00000F076FB0E2002F0FFFA07981190FFE7AA
:1006B000119807280ADCFFE711990DA8405C02F0A9
:1006C000F3FAFFE7119801301190F1E741F60000CD
:1006D000C5F6020010210122009200F059FB0A2009
:1006E000019000F015F940F60040C5F602000290B6
:1006F0004FF4004103910022049200F049FB01985D
:1007000000F006F9009A0298039900F041FB019865
:1007100000F0FEF802980399049A00F039FB12B039
:1007200080BD00000000000080B58EB04FF4804016
:100730000C9044F20010C2F208000B9041F6000049
:10074000C5F60200102100220A9200F021FB0A984F
:1007500002F0AAFA0A980D90FFE70D9803280ADC28
:10076000FFE70D990CA8405C02F09EFAFFE70D9898
:1007700001300D90F1E741F60000C5F60200069049
:10078000102107910122089200F002FB0A2000F0DC
:10079000BFF8069807990022099200F0F9FA089824
:1007A00002F082FA09980D90FFE70D9803280ADC01
:1007B000FFE70D990BA8405C02F076FAFFE70D9871
:1007C00001300D90F1E741F60000C5F6020010215E
:1007D0000122019200F0DCFA0A20029000F098F861
:1007E00040F60040C5F6020003904FF4004104912A
:1007F0000022059200F0CCFA029800F089F8019AE4
:100800000398049900F0C4FA029800F081F8039864
:100810000499059A00F0BCFA0EB080BD00000000FB
:1008200080B58AB009900020CCF2A76008909DEDB9
:10083000090AB8EE400B9FED301B20EE010BBCEE19
:10084000C00B8DED060A06988DF823000698000A65
:100850008DF82200BDF81A008DF821009DF81B00CC
:100860008DF8200041F60000C5F60200102100229C
:10087000059200F08DFA072002F016FA059807900D
:10088000FFE7079803280ADCFFE7079908A8405C00
:1008900002F00AFAFFE7079801300790F1E741F606
:1008A0000000C5F6020010210122009200F070FA4B
:1008B0000A20019000F02CF840F60040C5F6020036
:1008C00002904FF4004103910022049200F060FA7C
:1008D000019800F01DF8009A0298039900F058FA68
:1008E000019800F015F802980399049A00F050FA64
:1008F0000AB080BD00BF00BF95D626E80B2E114080
:10090000FFE7FEE700000000704700000000000065
:1009100081B08DF80300FFE7FFE79DF80300013881
:100920008DF8030000060028F6D1FFE701B07047FC
:1009300081B0EFF3108072B60090FFE7FEE7000091
:1009400086B005900598C0EB0010400104904EF26F
:100950001800CEF2000000680390002001904EF2D3
:100960001400CEF2000000680090FFE74EF218007D
:10097000CEF20000006802900298039988421ED0CF
:10098000FFE702980399884207D2FFE7039802998C
:10099000411A01980844019008E000980299401A11
:1009A00003990144019808440190FFE702980390DD
:1009B00001980499884201D3FFE701E0FFE7D5E7FA
:1009C00006B070470000000090B00F900E9100201C
:1009D0000D908020C5F600000A90FFE70E98006891
:1009E0000D99C840002800F0CF81FFE70E980068FD
:1009F0000D9A0121914008400C900C98002800F0BD
:100A0000BF81FFE70E98406800F00300012807D07F
:100A1000FFE70E98406800F0030002282FD1FFE79F
:100A20000F9880680B900D984100032000FA01F1A7
:100A30000B9888430B900E98C0680D99490000FAF6
:100A400001F10B9808430B900B980F9988600F9851
:100A500040680B900D99012000FA01F10B98884332
:100A60000B900E984068C0F300100D9900FA01F148
:100A70000B9808430B900B980F994860FFE70E986E
:100A8000406800F00300032818D0FFE70F98C06803
:100A90000B900D984100032000FA01F10B98884358
:100AA0000B900E9880680D99490000FA01F10B989F
:100AB00008430B900B980F99C860FFE70E984068A9
:100AC00000F00300022826D1FFE70F980D996FF080
:100AD000030202EA51010844006A0B900D9800F0ED
:100AE000070081000F2000FA01F10B9888430B905A
:100AF0000E9800690D9901F00701890000FA01F1D3
:100B00000B9808430B900B980F990D9B02EA530228
:100B100011440862FFE70F9800680B900D984100A0
:100B2000032000FA01F10B9888430B900E9840685F
:100B300000F003000D99490000FA01F10B980843F9
:100B40000B900B980F9908600E9880798007002809
:100B500000F01581FFE7FFE744F2F440C5F602001C
:100B6000016841F002010160006800F00200099094
:100B70000998FFE70D9820F0030040F20841C5F600
:100B8000000140580B900D9800F0030081000F20E9
:100B900000FA01F10B9888430B900F980021C5F6DD
:100BA0000201884203D1FFE7002008907AE00F9805
:100BB00040F20041C5F60201884203D1FFE701205F
:100BC00007906CE00F9840F60001C5F602018842DC
:100BD00003D1FFE7022006905EE00F9840F6004147
:100BE000C5F60201884203D1FFE70320059050E0DB
:100BF0000F9841F20001C5F60201884203D1FFE7D8
:100C00000420049042E00F9841F20041C5F6020131
:100C1000884203D1FFE70520039034E00F9841F6A6
:100C20000001C5F60201884203D1FFE706200290C9
:100C300026E00F9841F60041C5F60201884203D133
:100C4000FFE70720019018E00F9842F20001C5F677
:100C50000201884203D1FFE7082000900AE00F99C3
:100C600042F20042C5F602020A20914208BF092062
:100C70000090FFE700980190FFE701980290FFE7DE
:100C800002980390FFE703980490FFE7049805900B
:100C9000FFE705980690FFE706980790FFE707989B
:100CA0000890FFE708980D9901F00301890000FA08
:100CB00001F10B9808430B900B980D9921F003015B
:100CC00040F20842C5F6000288504FF0B04000687C
:100CD0000B900C990B9888430B900E988079C00666
:100CE000002805D5FFE70C990B9808430B90FFE708
:100CF0000B984FF0B04108600420C5F60000006872
:100D00000B900C990B9888430B900E988079800675
:100D1000002805D5FFE70C990B9808430B90FFE7D7
:100D20000B980421C5F6000108600A9840680B90F2
:100D30000C990B9888430B900E98807980070028B7
:100D400005D5FFE70C990B9808430B90FFE70B982C
:100D50000A9948600A9800680B900C990B98884390
:100D60000B900E988079C00728B1FFE70C990B987B
:100D700008430B90FFE70B980A990860FFE7FFE72D
:100D80000D9801300D9029E610B07047000000006A
:100D900082B00190ADF802108DF801209DF801009D
:100DA00028B1FFE7BDF802000199886105E0BDF8B0
:100DB0000200000401998861FFE702B0704700005B
:100DC00041F20000C5F600400068000C70470000CA
:100DD00041F28800C2F20040006870470000000045
:100DE00041F21400C2F20040027841F28801C2F2DE
:100DF00000410868104408607047000000000000CF
:100E000080B582B0032000F0ABF800F051FB44F253
:100E10001842C5F602021168C1F3032342F6AE611F
:100E2000C0F60001CB5C03F01F03D840009000988F
:100E3000126802F00F02895C01F01F01C84041F204
:100E40001001C2F200410860009841F20C01C2F2A8
:100E5000004108600F2000F013F820B1FFE70120E7
:100E60008DF8070005E000F04FF800208DF807002E
:100E7000FFE79DF8070002B080BD00000000000001
:100E800080B582B0009041F21400C2F200400078B8
:100E900020B9FFE701208DF8070030E041F20C0097
:100EA000C2F20040006841F21401C2F200410A7827
:100EB0004FF47A71B1FBF2F1B0FBF1F001F02CFAD2
:100EC00020B1FFE701208DF8070018E000980F28F7
:100ED0000DD8FFE700994FF0FF30002200F028F80E
:100EE000009841F21801C2F20041086003E00120BD
:100EF0008DF8070003E000208DF80700FFE79DF85C
:100F0000070002B080BD000081B0FFE744F2F4406A
:100F1000C5F60200016841F002010160006800F0BE
:100F2000020000900098FFE701B070470000000049
:100F300080B586B0ADF816000491039201F034FF3D
:100F40000290BDF91600019002980499039A01F0ED
:100F50009BFB0146019801F02FFF06B080BD000009
:100F600080B582B00190019801F04AFF02B080BDC7
:100F700080B584B0029044F60C00C5F6020000680B
:100F800000F004010020B0EB910F13D1FFE744F60D
:100F90000C00C5F60200006800F0070002998842C4
:100FA00004D0FFE701208DF80F002EE000208DF81F
:100FB0000F002AE044F60C01C5F60201086820F093
:100FC0000700029A10430860FFF702FF0190FFE755
:100FD00044F60400C5F60200006800F40051002049
:100FE000B0EB513F0DD1FFE7FFF7F2FE0199401A38
:100FF000B0F57A7F04D9FFE701208DF80F0004E0F7
:10100000E6E700208DF80F00FFE79DF80F0004B021
:1010100080BD00000000000080B586B00490039100
:10102000049820B9FFE701208DF817003CE20398EF
:1010300042F20001C5F20021096801F00F01884267
:1010400016D9FFE742F20000C5F20020016821F046
:101050000F01039A11430160006800F00F0003992B
:10106000884204D0FFE701208DF817001CE2FFE75B
:10107000049800784007002819D5FFE70498006914
:1010800044F21841C5F60201096801F07001884276
:101090000CD9FFE744F21841C5F60201086820F0B8
:1010A0007000049A126910430860FFE7FFE7049894
:1010B00000780007002819D5FFE70498406944F23A
:1010C0001C41C5F60201096801F0700188420CD983
:1010D000FFE744F21C41C5F60201086820F07000E9
:1010E000049A526910430860FFE7FFE7049800780C
:1010F000C006002819D5FFE70498806944F21C4116
:10110000C5F60201096801F4E06188420CD9FFE7E5
:1011100044F21C41C5F60201086820F4E060049A1C
:10112000926910430860FFE7FFE7049800788006A3
:10113000002819D5FFE70498C06944F22041C5F69C
:101140000201096801F0700188420CD9FFE744F2FE
:101150002041C5F60201086820F07000049AD269A7
:1011600010430860FFE7FFE7049800788007002835
:1011700019D5FFE70498C06844F21841C5F602018A
:10118000096801F00F0188420CD9FFE744F21841C9
:10119000C5F60201086820F00F00049AD2681043D7
:1011A0000860FFE7FFE704980078C007002800F018
:1011B0008C80FFE744F21841C5F60201086820F46C
:1011C0007060049A9268104308600498406802288E
:1011D00011D1FFE744F20040C5F60200006800F4B8
:1011E00000310020B0EB514F04D1FFE701208DF812
:1011F000170059E13EE004984068032811D1FFE749
:1012000044F20040C5F60200006800F000710020C2
:10121000B0EB516F04D1FFE701208DF8170043E1D7
:1012200027E004984068012811D1FFE744F200400C
:10123000C5F60200006800F480710020B0EB112FA9
:1012400004D1FFE701208DF817002DE110E044F2F2
:101250000040C5F60200006800F004010020B0EB79
:10126000910F04D1FFE701208DF817001CE1FFE783
:10127000FFE7FFE744F21041C5F60201086820F0DD
:101280000700049A526810430860FFF7A1FD01901F
:10129000FFE744F21040C5F60200006800F0380095
:1012A00004994968B0EBC10F0ED0FFE7FFF790FD3E
:1012B0000199401A41F28931884204D3FFE70320A3
:1012C0008DF81700F0E0E4E7FFE704980078800766
:1012D000002819D5FFE70498C06844F21841C5F604
:1012E0000201096801F00F0188420CD2FFE744F2C5
:1012F0001841C5F60201086820F00F00049AD26870
:1013000010430860FFE7FFE7039842F20001C5F2CF
:101310000021096801F00F01884216D2FFE742F26E
:101320000000C5F20020016821F00F01039A11436B
:101330000160006800F00F000399884204D0FFE7C5
:1013400001208DF81700AFE0FFE704980078400710
:10135000002819D5FFE70498006944F21841C5F642
:101360000201096801F0700188420CD2FFE744F2E3
:101370001841C5F60201086820F07000049A12694D
:1013800010430860FFE7FFE7049800780007002893
:1013900019D5FFE70498406944F21C41C5F60201E3
:1013A000096801F0700188420CD2FFE744F21C4149
:1013B000C5F60201086820F07000049A52691043D3
:1013C0000860FFE7FFE704980078C006002819D5F9
:1013D000FFE70498806944F21C41C5F602010968E0
:1013E00001F4E06188420CD2FFE744F21C41C5F6EB
:1013F0000201086820F4E060049A926910430860D2
:10140000FFE7FFE7049800788006002819D5FFE77A
:101410000498C06944F22041C5F60201096801F050
:10142000700188420CD2FFE744F22041C5F6020168
:10143000086820F07000049AD26910430860FFE742
:10144000FFE700F035F844F21842C5F602021168D1
:10145000C1F3032342F6AE61C0F60001CB5C03F09A
:101460001F03D84000900098126802F00F02895CB8
:1014700001F01F01C84041F21001C2F200410860B2
:10148000009841F20C01C2F20041086041F21800DC
:10149000C2F200400068FFF7F3FC8DF80B009DF8E6
:1014A0000B008DF81700FFE79DF8170006B080BD10
:1014B0008AB044F21040C5F60200006800F038001F
:1014C00001460191182800F269810199DFE811F0C5
:1014D0001900660166016601660166016601660122
:1014E0003A006601660166016601660166016601F1
:1014F00040006601660166016601660166016601DB
:10150000460044F20040C5F60200006800F02001E9
:101510000020B0EB511F0ED0FFE744F20040C5F6AB
:1015200002000068C0F3C10149F20000C0F2D030EF
:10153000C840029005E049F20000C0F2D0300290AD
:10154000FFE731E140F60010C0F23D0002902BE1D0
:1015500047F64000C0F27D10029025E144F2284099
:10156000C5F60200016801F0030108910068C0F3AC
:101570000510079044F22C40C5F60200006800F008
:1015800001000690069844F23441C5F6020109684C
:1015900089B2C908484300EE100AB8EE400A8DED42
:1015A000040A0798002800F0F580FFE708980090EB
:1015B00048B1FFE70098012869D0FFE700980228AA
:1015C00000F08980ABE044F20040C5F602000068FC
:1015D00000F020010020B0EB511F33D0FFE744F2B0
:1015E0000040C5F602000068C0F3C10149F20000E6
:1015F000C0F2D030C84005909DED050AB8EE400A13
:101600009DED071AB8EE411A80EE010A44F230400F
:10161000C5F6020000686FF35F2001EE100AB8EE15
:10162000411A9DED042A9FED633A82EE032A31EEC2
:10163000021AB7EE002A31EE021A20EE010A8DEDF1
:10164000030A23E09DED070AB8EE401A9FED5B0AFE
:1016500080EE010A44F23040C5F6020000686FF3E4
:101660005F2001EE100AB8EE411A9DED042A9FEDAD
:10167000513A82EE032A31EE021AB7EE002A31EE19
:10168000021A20EE010A8DED030AFFE76BE09DEDE3
:10169000070AB8EE401A9FED480A80EE010A44F2AC
:1016A0003040C5F6020000686FF35F2001EE100ABB
:1016B000B8EE411A9DED042A9FED3E3A82EE032AD0
:1016C00031EE021AB7EE002A31EE021A20EE010ABC
:1016D0008DED030A47E09DED070AB8EE401A9FED35
:1016E000340A80EE010A44F23040C5F60200006878
:1016F0006FF35F2001EE100AB8EE411A9DED042A47
:101700009FED2C3A82EE032A31EE021AB7EE002A40
:1017100031EE021A20EE010A8DED030A23E09DED61
:10172000070AB8EE401A9FED240A80EE010A44F23F
:101730003040C5F6020000686FF35F2001EE100A2A
:10174000B8EE411A9DED042A9FED1A3A82EE032A63
:1017500031EE021AB7EE002A31EE021A20EE010A2B
:101760008DED030AFFE744F23040C5F60200006841
:1017700081B2012000EB512009909DED030A9DEDFF
:10178000091AB8EE411A80EE010ABCEEC00A8DEDCE
:10179000020A02E000200290FFE705E040F6001098
:1017A000C0F23D000290FFE702980AB0704700BF08
:1017B00020BCBE4B000000460024744A0024744C38
:1017C00080B58CB00A900A9828B9FFE701208DF8FF
:1017D0002F0000F09DBD0A980078C007002800F097
:1017E000B980FFE744F21040C5F60200006800F03F
:1017F0003800069044F22840C5F6020000680590C3
:10180000069810280AD0FFE7069818281CD1FFE791
:10181000059800F00300022816D1FFE744F20040CB
:10182000C5F60200006800F400310020B0EB514F13
:1018300009D0FFE70A98406828B9FFE701208DF832
:101840002F0000F065BD84E0FFE70A984068B0F51E
:10185000803F09D1FFE744F20041C5F60201086864
:1018600040F48030086032E00A98406868B9FFE7C9
:1018700044F20041C5F60201086820F48030086097
:10188000086820F48020086020E00A984068B0F5DD
:10189000A02F0DD1FFE744F20041C5F60201086810
:1018A00040F480200860086840F4803008600CE054
:1018B00044F20041C5F60201086820F48030086057
:1018C000086820F480200860FFE7FFE7FFE7FFE7F4
:1018D0000A984068F0B1FFE7FFF77AFA0990FFE74E
:1018E00044F20040C5F60200006800F40031002018
:1018F000B0EB514F0DD1FFE7FFF76AFA0999401A93
:10190000652805D3FFE703208DF82F0000F000BD08
:10191000E6E71DE0FFF75CFA0990FFE744F20040BC
:10192000C5F60200006800F400310020B0EB514F12
:101930000DD0FFE7FFF74CFA0999401A652805D347
:10194000FFE703208DF82F0000F0E2BCE6E7FFE799
:10195000FFE7FFE70A9800788007002840F116812A
:10196000FFE744F21040C5F60200006800F03800BE
:10197000049044F22840C5F60200006803900498E1
:1019800050B1FFE70498182878D1FFE79DF80C00C4
:101990008007002872D1FFE744F20040C5F602003C
:1019A000006800F004010020B0EB910F09D0FFE7C0
:1019B0000A98C06828B9FFE701208DF82F0000F0D1
:1019C000A7BC44F20041C5F60201086820F01900E6
:1019D0000A9AD26810430860FFF7FAF90990FFE706
:1019E00044F20040C5F60200006800F00401002047
:1019F000B0EB910F0DD1FFE7FFF7EAF90999401A13
:101A0000032805D3FFE703208DF82F0000F080BCEA
:101A1000E6E7FFE7FFF7D4F941F2030188421DD85A
:101A2000FFE70A98006940280AD1FFE744F2044121
:101A3000C5F602010868202262F3113008600CE04C
:101A400044F20441C5F60201086820F47C300A9A89
:101A5000126940EA02300860FFE70CE044F20441FA
:101A6000C5F60201086820F0FE400A9A126940EAB1
:101A700002600860FFE7FFE7FFE786E00A98C068BA
:101A800000285CD0FFE744F20041C5F60201086877
:101A900020F019000A9AD26810430860FFF798F9FD
:101AA0000990FFE744F20040C5F60200006800F02C
:101AB00004010020B0EB910F0DD1FFE7FFF788F98B
:101AC0000999401A032805D3FFE703208DF82F005A
:101AD00000F01EBCE6E7FFE7FFF772F941F20301F1
:101AE00088421DD8FFE70A98006940280AD1FFE71D
:101AF00044F20441C5F602010868202262F3113065
:101B000008600CE044F20441C5F60201086820F4C4
:101B10007C300A9A126940EA02300860FFE70CE064
:101B200044F20441C5F60201086820F0FE400A9A1A
:101B3000126940EA02600860FFE7FFE724E044F230
:101B40000041C5F60201086820F001000860FFF7B7
:101B50003FF90990FFE744F20040C5F60200006833
:101B600000F004010020B0EB910F0CD0FFE7FFF76D
:101B70002FF90999401A032804D3FFE703208DF8B1
:101B80002F00C5E3E7E7FFE7FFE7FFE70A980078E4
:101B9000C006002840F1EB80FFE744F21040C5F694
:101BA0000200006800F03800029044F22840C5F6B8
:101BB000020000680190029808280AD0FFE7029806
:101BC000182850D1FFE7019800F0030001284AD1FE
:101BD000FFE744F20040C5F60200006800F480719F
:101BE0000020B0EB112F09D0FFE70A98C0698028C8
:101BF00004D0FFE701208DF82F0089E3FFE7FFF70E
:101C0000DFF841F2030188421DD8FFE70A98006A15
:101C100020280AD1FFE744F20441C5F60201086812
:101C2000102262F39E6008600CE044F20441C5F6A5
:101C30000201086820F0F8400A9A126A40EA8260BD
:101C40000860FFE70CE044F20C41C5F602010868A9
:101C500020F07C500A9A126A40EA02600860FFE7AE
:101C6000FFE7FFE782E00A98C069002858D0FFE745
:101C700044F20041C5F60201086840F080000860A7
:101C8000FFF7A6F80990FFE744F20040C5F602000E
:101C9000006800F480710020B0EB112F0CD1FFE739
:101CA000FFF796F80999401A032804D3FFE70320A9
:101CB0008DF82F002CE3E7E7FFE7FFF781F841F20B
:101CC000030188421DD8FFE70A98006A20280AD13C
:101CD000FFE744F20441C5F602010868102262F3EE
:101CE0009E6008600CE044F20441C5F602010868F9
:101CF00020F0F8400A9A126A40EA82600860FFE722
:101D00000CE044F20C41C5F60201086820F07C505A
:101D10000A9A126A40EA02600860FFE7FFE724E0DF
:101D200044F20041C5F60201086820F08000086016
:101D3000FFF74EF80990FFE744F20040C5F60200B5
:101D4000006800F480710020B0EB112F0CD0FFE789
:101D5000FFF73EF80999401A032804D3FFE7032050
:101D60008DF82F00D4E2E7E7FFE7FFE7FFE70A98E7
:101D70000078000700284FD5FFE70A98406928B38C
:101D8000FFE744F27441C5F60201086840F0010023
:101D90000860FFF71DF80990FFE744F27440C5F6AC
:101DA0000200006800F002010020B0EB510F0CD1DE
:101DB000FFE7FFF70DF80999401A032804D3FFE75E
:101DC00003208DF82F00A3E2E7E724E044F27441FA
:101DD000C5F60201086820F001000860FEF7F8FF70
:101DE0000990FFE744F27440C5F60200006800F075
:101DF00002010020B0EB510F0CD0FFE7FEF7E8FF27
:101E00000999401A032804D3FFE703208DF82F0017
:101E10007EE2E7E7FFE7FFE70A9800788006002800
:101E20004FD5FFE70A98806928B3FFE744F20041E5
:101E3000C5F60201086840F480500860FEF7C8FF4C
:101E40000990FFE744F20040C5F60200006800F484
:101E500000510020B0EB513F0CD1FFE7FEF7B8FF77
:101E60000999401A032804D3FFE703208DF82F00B7
:101E70004EE2E7E724E044F20041C5F602010868BB
:101E800020F480500860FEF7A3FF0990FFE744F2BA
:101E90000040C5F60200006800F400510020B0EBDD
:101EA000513F0CD0FFE7FEF793FF0999401A032832
:101EB00004D3FFE703208DF82F0029E2E7E7FFE7CF
:101EC000FFE70A9800784007002840F1A780FFE765
:101ED00044F60001C5F60201086840F4807008600D
:101EE000FEF776FF0990FFE744F60000C5F6020012
:101EF0000068C00500280CD4FFE7FEF769FF0999C8
:101F0000401A652804D3FFE703208DF82F00FFE176
:101F1000EAE7FFE70A988068012809D1FFE744F261
:101F20007041C5F60201086840F00100086031E028
:101F30000A98806868B9FFE744F27041C5F602016B
:101F4000086820F001000860086820F004000860BC
:101F50001FE00A98806805280DD1FFE744F2704120
:101F6000C5F60201086840F004000860086840F007
:101F7000010008600CE044F27041C5F602010868F7
:101F800020F001000860086820F004000860FFE706
:101F9000FFE7FFE7FFE70A988068F8B1FFE7FEF781
:101FA00017FF0990FFE744F27040C5F60200006891
:101FB00000F002010020B0EB510F0ED1FFE7FEF759
:101FC00007FF0999401A41F28931884204D3FFE79B
:101FD00003208DF82F009BE1E5E71EE0FEF7F8FEF9
:101FE0000990FFE744F27040C5F60200006800F077
:101FF00002010020B0EB510F0ED0FFE7FEF7E8FE24
:102000000999401A41F28931884204D3FFE703203D
:102010008DF82F007CE1E5E7FFE7FFE70A98406ACB
:10202000002800F07181FFE744F21040C5F602007D
:10203000006800F03800182800F0E080FFE70A98F8
:10204000406A022840F0B480FFE744F20041C5F640
:102050000201086820F080700860FEF7B9FE099060
:10206000FFE744F20040C5F60200006800F000718E
:102070000020B0EB516F0CD0FFE7FEF7A9FE0999E5
:10208000401A032804D3FFE703208DF82F003FE117
:10209000E7E7FFE744F22841C5F60201086840F28D
:1020A000F33290430A9B9A6ADB6A42EA03121043B6
:1020B00008600A99086BD1F834C08B6BCA6B013881
:1020C0006FF35F204FF60061CFF6FF7101EB4C21FB
:1020D00089B208440021CFF6FF7101EB034101F4FE
:1020E000FE0108444FF07F4101EB026101F0FE4127
:1020F000084444F23041C5F602010860FFE744F2AB
:102100002C41C5F602010091086820F0010008602A
:1021100044F23442C5F6020210684FF6F873984351
:102120000A9B9B6C40EAC3001060086820F00C001A
:102130000A9A126C10430860086820F002000A9A9C
:10214000526C10430860086840F4803008600868EA
:1021500040F400300860086840F480200860086897
:1021600040F00100086044F20041C5F60201086831
:1021700040F080700860FEF72BFE0990FFE744F204
:102180000040C5F60200006800F000710020B0EBCE
:10219000516F0CD1FFE7FEF71BFE0999401A032887
:1021A00004D3FFE703208DF82F00B1E0E7E724E038
:1021B00044F20041C5F60201086820F08070086012
:1021C000FEF706FE0990FFE744F20040C5F6020064
:1021D000006800F000710020B0EB516F0CD0FFE7F9
:1021E000FEF7F6FD0999401A032804D3FFE7032000
:1021F0008DF82F008CE0E7E7FFE784E044F2284009
:10220000C5F602000068089044F23040C5F60200AE
:10221000006807900A98406A012837D0FFE70898BD
:1022200000F003000A99896A88422FD1FFE70898D5
:1022300000F47C710A98C06AB0EB111F26D1FFE749
:1022400007986FF35F200A99096B013988421DD105
:10225000FFE7BDF81C100A98406B0138B0EB512F16
:1022600014D1FFE7079800F4FE010A98806B01384B
:10227000B0EB114F0AD1FFE7079800F0FE410A9832
:10228000C06B0138B0EB116F04D0FFE701208DF86F
:102290002F003DE044F23440C5F60200006880B2F1
:1022A000C00808900A98806C0899884229D0FFE7F6
:1022B00044F22C41C5F60201086820F001000860D4
:1022C000FEF786FD0990FFE7FEF782FD0999401AA7
:1022D00008B9FFE7F8E744F23441C5F6020108689F
:1022E0004FF6F87290430A9A926C40EAC200086076
:1022F00044F22C41C5F60201086840F00100086074
:10230000FFE7FFE7FFE7FFE700208DF82F00FFE77B
:102310009DF82F000CB080BD80B582B0019001986F
:1023200000F0E6FA02B080BDFFE7FEE70000000023
:1023300080B588B08DF81F0000200690FFE7069852
:1023400007283FDCFFE740F20040C5F6020080218D
:102350000022FEF71DFD9DF81F000006002803D592
:10236000FFE7012018B90BE0012048B9FFE740F270
:102370000040C5F6020040210122FEF709FD08E0F9
:1023800040F20040C5F6020040210022FEF700FDA9
:10239000FFE79DF81F0040008DF81F0064200590A6
:1023A00000F04EFD40F20040C5F6020080210122FF
:1023B000FEF7EEFC059800F043FDFFE706980130BC
:1023C0000690BCE740F20040C5F602000290802172
:1023D000039100220492FEF7DBFC029840210122C7
:1023E0000092FEF7D5FC6420019000F029FD009AD0
:1023F00002980399FEF7CCFC019800F021FD0298A9
:102400000399049AFEF7C4FC08B080BD00000000E8
:1024100080B582B08DF807008DF8061000F01CF82A
:10242000C820009000F00CFDC020FFF781FF00984D
:1024300000F006FD9DF80700FFF77AFF009800F016
:10244000FFFC9DF80600FFF773FF009800F0F8FC12
:1024500000F02AF802B080BD80B586B040F200409E
:10246000C5F6020002904021019101220092FEF780
:102470008FFC009A029880210391FEF789FC019954
:10248000029800220492FEF783FC6420059000F07D
:10249000D7FC02980399049AFEF77AFC059800F09D
:1024A000CFFC06B080BD000080B586B040F2004091
:1024B000C5F6020002908021019100220092FEF7F1
:1024C00067FC6420059000F0BBFC009A0298402154
:1024D0000391FEF75DFC059800F0B2FC01990298AB
:1024E00001220492FEF754FC059800F0A9FC029822
:1024F0000399049AFEF74CFC059800F0A1FC06B085
:1025000080BD00000000000080B594B00020139052
:102510001290119010900F90FFE744F2E040C5F642
:102520000200016841F004010160006800F004004D
:102530000E900E98FFE7FFE744F2E040C5F6020078
:10254000016841F080010160006800F080000D909A
:102550000D98FFE7FFE744F2E040C5F6020001688E
:1025600041F002010160006800F002000C900C983C
:10257000FFE7FFE744F2E040C5F60200016841F0E2
:1025800008010160006800F008000B900B98FFE75D
:10259000FFE744F2E040C5F60200016841F0400167
:1025A0000160006800F040000A900A98FFE7FFE72A
:1025B00044F2E040C5F60200016841F0010101600B
:1025C000006800F0010009900998FFE740F2004020
:1025D000C5F6020007904FF4435100220692FEF721
:1025E000D7FB069A40F60040C5F6020002904FF471
:1025F00047410191FEF7CCFB069A41F60000C5F673
:10260000020005903C210391FEF7C2FB0699079852
:102610004FF440520F9201220492109211911291A4
:102620000FA90891FEF7D0F9DDF804C00298049BC9
:10263000069A0899CDF83CC0109311921292FEF7B9
:10264000C3F9DDF80CC0049B0598069A0899CDF8EB
:102650003CC0109311921292FEF7B6F9069A0798B1
:102660000899C0230F931123109311921292FEF731
:10267000ABF914B080BD0000FFE7FEE700000000EA
:10268000FFE7FEE70000000088B007900691059282
:10269000079800F0070004900498C0F1070005288F
:1026A00003D3FFE70420019004E00498C0F1070081
:1026B0000190FFE70198039004980430062803D89E
:1026C000FFE70020009003E0049803380090FFE744
:1026D0000098029006980399012202FA01F101394B
:1026E0000840029B984005999A40013A11400843DE
:1026F00008B070470000000080B586B044F260006A
:102700000590C02004900020CFF6017003900020B7
:102710000290FFE7029803280DDCFFE7029A05A864
:10272000805C40F20401C2F200418854FFE7029845
:1027300001300290EEE700200190FFE701980728A2
:102740000DDCFFE7019A03A8805C41F28001C2F230
:1027500000418854FFE7019801300190EEE740F214
:102760000402C2F200420020042100F035F841F2D8
:102770008002C2F200420E20082100F02DF800F085
:1027800007F806B080BD00007047000000000000A0
:1027900080B584B040F60040C5F6020000904FF4CA
:1027A0000041019100220292FEF7F2FA64200390A8
:1027B000FEF7AEF8009801990122FEF7E9FA0398B6
:1027C000FEF7A6F800980199029AFEF7E1FA03983D
:1027D000FEF79EF804B080BD80B584B08DF80F0080
:1027E0008DF80E10029241F60000C5F6020010218D
:1027F00000220092FEF7CCFA9DF80F0000F054FA88
:1028000000980190FFE701989DF80E1088420ADABF
:10281000FFE702980199405C00F046FAFFE7019853
:1028200001300190EFE741F60000C5F602001021EB
:102830000122FEF7ADFA6420FEF76AF804B080BD0D
:10284000704700000000000080B584B08DED030AE1
:102850009DED030AB7EEC01A9FED130B80EE010B3E
:10286000BCEEC00B8DED020A40F20402C2F200423F
:10287000E02010700298000A41F28001C2F200418B
:10288000019148700298887000200421FFF7A4FF8E
:10289000019A0E200821FFF79FFFFFF779FF04B090
:1028A00080BD00BF00BF00BF0000000065CD0D412E
:1028B00080B582B000200190FFE701982A2811DC42
:1028C000FFE7019A42F6C060C0F6000000EBC201CB
:1028D00010F832000979FFF79BFDFFE701980130FE
:1028E0000190EAE703200021FFF792FD02B080BDCE
:1028F00080B582B0009000980138B0F1807F03D39A
:10290000FFE70120019019E0009801384EF2140110
:10291000CEF2000108604FF0FF300F2100F04CFABA
:102920004EF21801CEF20001002008604EF21002B3
:10293000CEF20002072111600190FFE7019802B07A
:1029400080BD00000000000080B5FEF749FA80BDA0
:1029500080B5A0B00DA84C21FDF744FD00200190EA
:102960000C900B900A9009900890079006900590A3
:102970000220FEF7FDFAFFE70020049040F22C4011
:10298000C5F60000016821F001010160006800F057
:102990000100049044F61800C5F60200016841F4F5
:1029A00040410160006800F4404004900498FFE753
:1029B000FFE744F61800C5F60200006800F4005076
:1029C000B0F5005F01D0FFE7F3E7FFE744F2F44022
:1029D000C5F60200016841F002010160006800F0E4
:1029E000020003900398FFE7FFE70020029044F6FF
:1029F0001800C5F60200016841F44041016000681A
:102A000000F44040029040F22C40C5F600000168FE
:102A100041F001010160006800F00100029002989D
:102A2000FFE7FFE744F61800C5F60200006800F46F
:102A30000050B0F5005F01D0FFE7F3E702210D91F0
:102A40000120109040201190169100201790042230
:102A500018923C2219921A911B911C910C211D91E4
:102A60001E901F900DA8FEF7ABFE18B1FFE7FDF713
:102A70005FFFFFE73F2005900320069000200790AE
:102A800008200890402009900A904FF480610B9133
:102A90000C9005A80421FEF7BFFA18B1FFE7FDF777
:102AA00047FFFFE720B080BD81B04EF68851CEF2DF
:102AB0000001086840F47000086042F20000C5F2AE
:102AC0000020006800F00F0006280AD8FFE742F255
:102AD0000001C5F200210868072262F303000860C4
:102AE000FFE744F20041C5F60201086840F001002A
:102AF000086044F21042C5F6020200201060086827
:102B00004EF67F52CEF6F6221040086042F20000E8
:102B1000C5F20020006800F00F0008280AD3FFE784
:102B200042F20001C5F200210868072262F30300A7
:102B30000860FFE744F21841C5F60201002000904A
:102B4000086044F21C41C5F60201086044F22041CD
:102B5000C5F60201086044F22842C5F6020240F2BE
:102B60000021C0F20221116044F22C42C5F602029B
:102B70000021C0F2FF11116044F23042C5F602029A
:102B800040F28021C0F20111116044F23442C5F6D6
:102B90000202106044F23842C5F60202116044F2AB
:102BA0003C42C5F60202106044F24042C5F6020201
:102BB000116044F24441C5F60201086044F200424B
:102BC000C5F60202116821F48021116044F26041CF
:102BD000C5F60201086041F20001C5F6004109682E
:102BE000B0EB517F07D1FFE748F20811C5F20011A1
:102BF00001200860FFE744F20001C5F2002143F222
:102C0000D200086001B07047FFE7FEE70000000057
:102C100080B586B005904FF00040039041F600006B
:102C2000C5F60200082100220292FEF7B1F80298D0
:102C30008DF81300FFE79DF813001F2830DCFFE735
:102C400005980399084209D1FFE741F60000C5F64F
:102C5000020004210022FEF79BF808E041F6000084
:102C6000C5F6020004210122FEF792F8FFE741F6C3
:102C70000000C5F602000090082101910122FEF734
:102C800087F800980199039A520803920022FEF7F0
:102C90007FF8FFE79DF8130001308DF81300CAE7B5
:102CA00006B080BD0000000080B584B08DF80F0034
:102CB00080208DF80D0041F60000C5F602000821C5
:102CC00000220292FEF764F802988DF80E00FFE7EA
:102CD0009DF80E00072834DCFFE79DF80F009DF8F3
:102CE0000D10084209D1FFE741F60000C5F60200C9
:102CF00004210022FEF74CF808E041F60000C5F67A
:102D0000020004210122FEF743F8FFE741F600002C
:102D1000C5F602000090082101910122FEF738F863
:102D2000009801999DF80D2052088DF80D20002281
:102D3000FEF72EF8FFE79DF80E0001308DF80E002B
:102D4000C6E704B080BD000080B582B041F6000047
:102D5000C5F60200102100220092FEF719F8162095
:102D6000FFF7A2FF00980190FFE70198B0F5806F90
:102D70000EDAFFE7019940F20C00C2F2004050F871
:102D80002100FFF745FFFFE7019801300190ECE7D4
:102D900041F60000C5F6020010210122FDF7F8FF00
:102DA000FFF7F6FC02B080BD4EF60C50CEF20000EC
:102DB0000068C0F30220704782B0ADF806000091B1
:102DC000BDF9060000280AD4FFE700980001BDF90C
:102DD00006104EF20042CEF2000288540BE000983A
:102DE0000001BDF8061001F00F014EF61452CEF2AC
:102DF00000028854FFE702B07047000000000000A6
:102E000083B00290029800F0070000904EF60C513B
:102E1000CEF200010868019001984FF6FF021040C1
:102E200001900198009A40EA02200022C0F2FA5272
:102E3000104301900198086003B070470000000043
:102E400080B582B0ADF80600BDF80600FDF778FD4C
:102E500002B080BD0000000080B582B0002000906C
:102E60000190FDF7CDFFFFF773FDFFF74DFBFFF777
:102E70001FFDFDF72DFBFDF7AFFBFDF755FC00989F
:102E8000FDF7CEFC9FED020AFDF712FBFFE7FEE720
:102E900000007A44F1EE100A4FF6FF71C0F2C03123
:102EA00020EA010040F04070E1EE100A7047000097
:102EB00000000102030401020304060708090000E0
:102EC00002000000530000000300000000000000AA
:102ED00004000000200000000700000000000000C7
:102EE0000F00000000000000100000004F00000074
:102EF000110000008C000000120000008C00000097
:102F0000130000008C000000140000008C00000082
:102F1000150000008C000000160000008C0000006E
:102F2000170000008C0000001A00000000000000E4
:102F30001B0000001B0000001C000000000000003F
:102F40001D0000000C0000001E000000D00000006A
:102F50001F00000000000000200000000000000032
:102F600021000000100000002A0000000000000006
:102F70002B000000010000002C0000000C000000ED
:102F80002D000000000000002E00000000000000E6
:102F90002F000000000000003000000000000000D2
:102FA00031000000000000005A0000000000000096
:102FB0005B00000000000000950000000000000021
:102FC00096000000000000009700000000000000D4
:102FD00098000000000000009900000000000000C0
:102FE0009A000000000000009B00000000000000AC
:102FF000A200000000000000A3000000000000008C
:10300000A400000000000000A50000000000000077
:10301000B7000000920000003830000800000024D3
:1030200020100000FC020008883000082010002456
:10303000700600005C03000831127F224027050F54
:103040004150FCFF09FD0409FD0409FD0409FD04CC
:1030500009FD0409FD0409FD0409FD0449040BFDF3
:10306000FF7F0409FD0409FD0409FD0409FD0409AD
:10307000FD0409FD0409FD042904112C90D003046A
:08308000320172100000000093
:040000050800029954
:00000001FF
