:020000040800F2
:10000000B8A80024AD02000819B5000849AC0008E2
:1000100011B50008810F000879CD0008000000002C
:1000200000000000000000000000000089B9000886
:10003000B91C00080000000091B5000869BA00086A
:10004000C7020008C7020008C7020008C70200086C
:10005000C7020008C7020008C7020008C70200085C
:10006000C7020008C7020008C7020008F91100080B
:100070000912000819120008C7020008C702000888
:10008000C7020008C7020008C7020008C70200082C
:10009000C7020008C7020008C7020008C70200081C
:1000A000C7020008C7020008C7020008C70200080C
:1000B000C7020008C7020008C7020008C7020008FC
:1000C000C7020008C7020008C7020008C7020008EC
:1000D000C7020008C7020008C7020008C7020008DC
:1000E000C7020008C702000800000000C70200089D
:1000F000C7020008C7020008C7020008C7020008BC
:10010000C7020008C7020008B9BC0008C7020008FF
:10011000C7020008C7020008C7020008C70200089B
:10012000C702000829120008C7020008C702000819
:10013000C7020008C7020008C7020008C70200087B
:1001400000000000000000000000000000000000AF
:10015000C7020008C7020008C7020008C70200085B
:10016000C7020008C7020008C7020008C70200084B
:10017000C7020008C7020008C7020008000000000C
:10018000C7020008C7020008C7020008C70200082B
:10019000C7020008C7020008C7020008C70200081B
:1001A000C7020008C7020008C7020008C70200080B
:1001B000C7020008C7020008C7020008C7020008FB
:1001C000C7020008C7020008C7020008C7020008EB
:1001D000C7020008C7020008C7020008C7020008DB
:1001E000C7020008C7020008C7020008C7020008CB
:1001F000C7020008C7020008C7020008C7020008BB
:10020000C7020008C7020008C7020008C7020008AA
:10021000C7020008C7020008C7020008C70200089A
:10022000C7020008C7020008C7020008000000005B
:10023000C7020008C702000800000000C70200084B
:10024000C7020008C7020008C7020008C70200086A
:10025000C7020008C7020008C7020008C70200085A
:10026000C7020008C7020008C7020008C70200084A
:10027000C7020008C7020008C7020008000000000B
:10028000C7020008C7020008C702000800000000FB
:1002900000000000C7020008DFF80CD000F048FAA8
:1002A0000048004759ED0008B8A8002406488047D8
:1002B00006480047FEE7FEE7FEE7FEE7FEE7FEE74B
:1002C000FEE7FEE7FEE7FEE759BB000899020008DB
:1002D0002DE9F05F0546002092469B46884606467B
:1002E000814640241BE0284641464746224600F00E
:1002F00057F853465A46C01A914110D31146184632
:10030000224600F03EF82D1A67EB01084F462246C0
:100310000120002100F035F817EB00094E41201EA6
:10032000A4F10104DFDC484631462A464346BDE8D5
:10033000F09FD2B201E000F8012B491EFBD27047BA
:100340000022F6E710B513460A4604461946FFF7A1
:10035000F0FF204610BD30B50B460146002020229C
:10036000012409E021FA02F59D4205D303FA02F5C2
:10037000491B04FA02F52844151EA2F10102F1DC22
:1003800030BD202A04DB203A00FA02F10020704739
:100390009140C2F1200320FA03F3194390407047C3
:1003A000202A04DB203A21FA02F00021704721FACA
:1003B00002F3D040C2F12002914008431946704731
:1003C0002DE9FE4F804681EA0300C00F0C460090E5
:1003D00021F0004123F00045B8EB0200A94105D20D
:1003E0004046214690461C460B46024623F00040FC
:1003F000104347D0270DC7F30A00C3F30A510290F8
:10040000401A019040286BDAC3F3130040F4801BBC
:100410000098924620B10023D2EB030A63EB0B0B4A
:1004200001985946C0F140025046FFF7AAFF064620
:100430000D4650465946019A00F092F910EB08001B
:100440006141002487EA115284EAE7731A4340D0DD
:10045000009A62B3019A012A4FEA075215DC001B89
:1004600061EB02014FF0004202EA0752CDE900427F
:10047000001C41F5801132462B4600F092F903B082
:10048000BDE8F08F40462146F9E7001B61EB020111
:10049000001C41F5801300185B412018A2F50017DD
:1004A00047EB030140EAD570B6196D4111E06D08C4
:1004B0004FEA360645EAC0754FEA0752001B61EB6A
:1004C0000201001C41F5801149084FEA3000001973
:1004D000514132462B4603B0BDE8F04F00F052B90F
:1004E0000098012240000023D0EB020263EBE0738E
:1004F000009821464FEAE074B8EB000061EB04017C
:10050000E9E783F000435BE781F0004158E72DE91C
:10051000FE4F81EA030404F0004421F000410094FE
:100520004FF0000B23F0004350EA01045ED052EA82
:1005300003045BD0C3F30A54C1F30A552C44A4F25C
:10054000F3340194A0FB0254C1F3130141F4801170
:10055000C3F3130343F4801301FB024400FB034E77
:10056000840A970A44EA815447EA8357A4FB076840
:1005700002958D0A05FB07854FEA932C04FB0C546A
:100580002705029D4FEA065847EA1637B5EB0805DE
:100590006EEB070C870E920E47EA811742EA831230
:1005A000A7FB0201B6EB0B0164EB00042B0D43EA41
:1005B0000C335E1844EB1C50DA465146E7FB02014F
:1005C000C5F313044FEA0B3343EA14534FEA0432E2
:1005D000019C43EA0603A4F10C040294009CCDE9BB
:1005E00000B400F0DEF803B0BDE8F08F0020014653
:1005F000F9E72DE9F04D81EA030404F0004B21F006
:10060000004514464FF0000A23F0004150EA05026D
:1006100020D054EA01021DD0C5F30A570246C5F3A3
:100620001303C1F31300C1F30A5640F4801543F4D9
:100630008013A7EB0608101BD64608F2FD3873EBB3
:10064000050002D308F1010801E092185B41B8F1FE
:10065000000F03DA00200146BDE8F08D00204FF4C2
:100660008011064684460EE0171B73EB050705D381
:10067000121B63EB050306434CEA010C49084FEAE1
:10068000300092185B4150EA0107EDD152EA0300B5
:1006900012D082EA040083EA0501084305D0101B4A
:1006A000AB4106D20122002306E000224FF00043B6
:1006B00002E06FF0010253101AEB06004CEB0851F8
:1006C00010EB0A0041EB0B01BDE8F04D00F05AB809
:1006D000C1F30A52C1F3130140F2FF3341F4801118
:1006E0009A4202DA00200146704740F233439A42B0
:1006F000A2F2334202DC5242FFF752BEFFF741BE84
:1007000030B5041E71F1000404DB4FF00044404298
:1007100064EB0101141E73F1000405DB1C464FF06D
:100720000043524263EB0403994208BF904230BD3C
:100730001CB509480090094801900546009C06E058
:10074000E06840F0010394E8070098471034AC4299
:10075000F6D3FFF7A5FD0000E42A0108042B0108E9
:10076000202A06DBCB17203A41FA02F043EAE07375
:1007700006E041FA02F3D040C2F120029140084362
:100780001946704710B5141E73F1000408DA401CB6
:1007900041F1000192185B411A4301D120F00100A0
:1007A00010BD2DE9F04D92469B4611B1B1FA81F290
:1007B00002E0B0FA80F220329046FFF7E2FD0446F4
:1007C0000F4640EA0A0041EA0B0153465A460843E5
:1007D00013D0114653EA010019D0C8F14002504627
:1007E000FFF7DEFD05460E46504659464246FFF7E6
:1007F000C8FD084305D0012004E020463946BDE885
:10080000F08D0020054346EAE0762C4337430A98F2
:100810006305E40AA0EB08000022FD0A44EA4754FD
:100820000A3002D500200146E9E7010510196941A7
:10083000DDE9084500196941BDE8F04DA2E770B552
:100840008D1810F8014B14F0030201D110F8012BA0
:10085000231106D110F8013B03E010F8016B01F8F9
:10086000016B521EF9D1ABB110F8012B04F00C044E
:100870008A1A0C2C03D0A2EB84129B1C08E010F8FF
:10088000014BA2EB0422F8E712F8014B01F8014BEF
:100890005B1EF9D5A942D4D3002070BD0000000032
:1008A00080B584B003900398006842F20001C4F25E
:1008B0000201884209D0FFE70398006842F2001164
:1008C000C4F20201884209D1FFE742F20830C4F2C3
:1008D0000200006810F4403F09D129E046F20830D8
:1008E000C5F60200006810F4403F21D0FFE708F091
:1008F0003FFB0290039840680190B0F5803F0AD01A
:10090000FFE70198B0F5003F05D0FFE70198B0F58B
:10091000403F07D00AE00398C1880298B0FBF1F08D
:10092000029004E002988008029000E0FFE75FE098
:100930004FF40020002106F057FA02900398406817
:100940000090B0F5802F32D0FFE70098B0F5002F6F
:100950002DD0FFE70098B0F5402F28D0FFE7009892
:10096000B0F5801F23D0FFE70098B0F5A01F1ED080
:10097000FFE70098B0F5C01F19D0FFE70098B0F569
:10098000E01F1FD0FFE70098B0F5001F1ED0FFE763
:100990000098B0F5101F1DD0FFE70098B0F5201F9C
:1009A0001CD0FFE70098B0F5301F1BD01EE0039865
:1009B00041686FF0010000EA51410298B0FBF1F08C
:1009C000029014E002980009029010E00298400999
:1009D00002900CE002988009029008E00298C00999
:1009E000029004E00298000A029000E0FFE7FFE7AF
:1009F00005F0A6FC41F20301884217D8FFE70298F0
:100A000042F60151C0F23111884207D3FFE7039843
:100A10000168886840F48070886006E00398016887
:100A2000886820F480708860FFE743E002984008FF
:100A30000290029845F61061C0F25F01884209D821
:100A4000FFE703980068806820F440700399096804
:100A500088602EE002984BF62041C0F2BE01884229
:100A60000AD8FFE7039800688068012161F3092034
:100A70000399096888601BE0029847F64001C0F2BC
:100A80007D1188420AD8FFE7039800688068022138
:100A900061F3092003990968886008E003980068F9
:100AA000806840F44070039909688860FFE7FFE7B9
:100AB000FFE7FFE704B080BD80B58AB008900791DA
:100AC0000020059007980490089800680AF054F9EF
:100AD0000290089800680AF007F90190029828B976
:100AE000FFE70198002800F0A880FFE70898006859
:100AF000C0688001002836D5FFE70898407D0128AE
:100B000031D1FFE70898007D01282CD1FFE70120B3
:100B10000490FFE708980068006800F0400100209A
:100B2000B0EB911F1AD1FFE705984DF60041C0F2D6
:100B30000C0188420ED3FFE70899486D40F0100081
:100B400048650899886D40F00100886501208DF89E
:100B5000270076E0059801300590DBE708980168EA
:100B600040200860FFE70498022813D0FFE70898A8
:100B700000680AF001F960B1FFE7089800680AF020
:100B8000DBF828B9FFE7089800680AF051F9FFE799
:100B9000FFE7FFE70498012813D0FFE708980068F3
:100BA0000AF0A2F860B1FFE7089800680AF0C4F8FC
:100BB00028B9FFE7089800680AF09EF8FFE7FFE70A
:100BC000FFE704980090022807D0FFE70098032869
:100BD00006D1FFE70C20039005E00820039002E017
:100BE00004200390FFE705F0B3FB0690FFE70898A9
:100BF00000688068039908421ED0FFE705F0A8FB53
:100C00000699401A062816D3FFE7089800688068FE
:100C1000039908420ED0FFE70899486D40F0100094
:100C200048650899886D40F00100886501208DF8BD
:100C3000270006E0FFE7DAE7FFE700208DF827004E
:100C4000FFE79DF827000AB080BD0000000000000B
:100C500080B582B001900198806B00900098406D43
:100C600010F0500F4AD1FFE70099486D40F4007032
:100C700048650098006800680007002821D5FFE754
:100C8000009800680AF088F8D0B1FFE70098006883
:100C9000C0688004002812D4FFE70099486D20F452
:100CA000807048650098406DC004002806D4FFE7B6
:100CB0000099486D40F001004865FFE7FFE7FFE756
:100CC00018E000980068C068800790B9FFE70099B5
:100CD000486D20F4807048650098406DC00400287D
:100CE00006D4FFE70099486D40F001004865FFE732
:100CF000FFE7FFE7009802F0DFF810E00098406D92
:100D0000C006002804D5FFE7009802F001F905E0CD
:100D10000098C06CC16C01988847FFE7FFE702B0FC
:100D200080BD00000000000080B582B001900198F5
:100D3000806B00900099486D40F040004865009934
:100D4000886D40F004008865009802F0E1F802B078
:100D500080BD00000000000080B582B001900198C5
:100D6000806B0090009802F0CFF802B080BD0000C8
:100D700080B584B002900298006809F0DDFF009011
:100D80000298006809F0E0FF00284BD0FFE70098C8
:100D9000002847D1FFE702980068806800F00D0046
:100DA000012809D1FFE70298006809F051FF029875
:100DB0000168032008600DE00299486D40F01000C2
:100DC00048650299886D40F00100886501208DF822
:100DD0000F002BE005F0BCFA0190FFE702980068D5
:100DE0008068C007E8B1FFE705F0B2FA0199401A40
:100DF000032815D3FFE7029800688068C00770B128
:100E0000FFE70299486D40F0100048650299886D2F
:100E100040F00100886501208DF80F0006E0FFE733
:100E2000DCE7FFE700208DF80F00FFE79DF80F00DB
:100E300004B080BD0000000080B586B00490049826
:100E4000006809F081FF002840F09280FFE70498D5
:100E5000006880683F21C8F2000108420ED0FFE719
:100E60000499486D40F0100048650499886D40F081
:100E70000100886501208DF817007DE00498006866
:100E800009F002FF05F064FA03900498016801205C
:100E900042F20002C4F20202914201900CD0FFE73C
:100EA000049800684DF60071CBF6FD710844B0FA65
:100EB00080F040090190FFE70198C10746F2003039
:100EC000C5F6020000291CBF42F20030C4F2020045
:100ED00009F002FF02900498006842F20011C4F287
:100EE0000201884206D1FFE742F20000C4F202008C
:100EF000009003E0049800680090FFE700980499D0
:100F00000968884203D0FFE7029880BBFFE7FFE74C
:100F1000049800680068C00740BBFFE704980068B9
:100F200009F012FF28B9FFE70498006809F0ACFE49
:100F3000FFE705F00DFA0399401A032815D3FFE7E0
:100F4000049800680068C00770B9FFE70499486D0D
:100F500040F0100048650499886D40F001008865F4
:100F600001208DF8170007E0FFE7D1E7FFE7FFE773
:100F700000208DF81700FFE79DF8170006B080BD30
:100F8000FFE7FEE70000000080B582B00190019805
:100F9000806B0090009802F01FFD009901200871FD
:100FA00002B080BD0000000080B582B001900198C1
:100FB000806B0090009802F0A7FB00990120087157
:100FC00002B080BD0000000080B582B001900198A1
:100FD000806B00900099086940F004000861009857
:100FE00002F012FD00990120087102B080BD0000DE
:100FF00080B582B001900198806B009000990869DB
:1010000040F004000861009802F086FB009901207E
:10101000087102B080BD000080B582B001900198D7
:10102000806B0090009802F0E3FC02B080BD0000ED
:1010300080B582B001900198806B0090009802F01A
:1010400067FB02B080BD0000B0B586B0059048F2E5
:101050002800C2F2004090ED020AB7EEC00A9FEDF0
:10106000361B20EE010BBCEEC00B48F25801C2F259
:10107000004181ED000A90ED080AB7EEC00A20EEAB
:10108000010BBCEEC00B48F25C00C2F2004080EDE8
:10109000000A00200490FFE70498012849DCFFE7DC
:1010A000049D05EB450148F22800C2F20040039080
:1010B00000EBC10E50F83100DEF80410DEF8082015
:1010C000DEF80C30DEF810C0DEF81440EE46CEF844
:1010D0000850CEF80440CEF800C000F031F8039973
:1010E000049800EB400001EBC00292ED020ABDEE55
:1010F000C00A10EE100A0A3048F6AD33C6F6DB031C
:1011000050FB03F3D81200EBD3700238D060049880
:1011100000EB400001EBC00200201061049A02EBDA
:10112000420201EBC2014861FFE7049801300490DC
:10113000B2E706B0B0BD00BF8DEDB5A0F7C6A040C8
:1011400010B589B0DDF830E0DDF82CC00D9CCDF88D
:1011500020E0CDF81CC00693059204910390002076
:1011600002909DF80C2041F21201C2F2004140F2BF
:101170001200C2F20040012A08BF084602900D98F2
:10118000C0B9FFE700200190FFE70198B0F5006FBC
:101190000FDAFFE70298019A30F8120043F22001BB
:1011A000C2F2004121F81200FFE7019801300190DE
:1011B000EBE71CE00D98012818D1FFE70020009014
:1011C000FFE70098B0F5006F0FDAFFE70298009A8A
:1011D00030F8120044F22001C2F2004121F812005E
:1011E000FFE7009801300090EBE7FFE7FFE709B069
:1011F00010BD00000000000080B548F24010C2F2AF
:10120000004002F0A1FD80BD80B548F23020C2F25E
:10121000004002F099FD80BD80B548F2B810C2F2DE
:10122000004002F091FD80BD80B548F2A820C2F2D6
:10123000004002F089FD80BD83B0029002980168F1
:1012400001201022C4F202029142009000F0A3801B
:10125000FFE70298016801202822C4F202029142AD
:10126000009000F09880FFE702980168012040227A
:10127000C4F202029142009000F08D80FFE70298D4
:10128000016801205822C4F202029142009000F04D
:101290008280FFE70298016801207022C4F20202F6
:1012A0009142009077D0FFE70298016801208822E0
:1012B000C4F20202914200906DD0FFE702980168EB
:1012C0000120A022C4F202029142009063D0FFE705
:1012D000029801680120B822C4F2020291420090F3
:1012E00059D0FFE702980168012040F21042C4F291
:1012F0000202914200904ED0FFE70298016801205F
:1013000040F22842C4F202029142009043D0FFE72B
:1013100002980168012040F24042C4F20202914268
:10132000009038D0FFE702980168012040F258424F
:10133000C4F20202914200902DD0FFE702980168AA
:10134000012040F27042C4F202029142009022D089
:10135000FFE702980168012040F28842C4F20202CD
:101360009142009017D0FFE702980168012040F2F7
:10137000A042C4F20202914200900CD0FFE7029812
:1013800000684FF64831CBF6FD710844B0FA80F0A2
:1013900040090090FFE70098C00740B3FFE70298BC
:1013A000007810384AF6AB21CAF6AA21A0FB01103A
:1013B00000090190019800F007014FF68A40C0F63D
:1013C0000000405C0299C8650198042807D3FFE734
:1013D00002990868042262F30900886506E0029910
:1013E000086840F2FF3290438865FFE705E0029904
:1013F000086820F0FF008865FFE70298806D03B061
:10140000704700000000000084B00390039800685B
:10141000019003980168012045F20842C5F60202D6
:10142000914200904ED0FFE703980168012045F2F9
:101430001C42C5F602029142009043D0FFE7039898
:101440000168012045F23042C5F602029142009047
:1014500038D0FFE703980168012045F24442C5F601
:101460000202914200902DD0FFE70398016801200D
:1014700045F25842C5F602029142009022D0FFE7A1
:1014800003980168012045F26C42C5F602029142C0
:10149000009017D0FFE703980168012045F28042D1
:1014A000C5F60202914200900CD0FFE70398006855
:1014B0004AF66C31CAF2FD710844B0FA80F0400976
:1014C0000090FFE70098C00710B3FFE7039800788B
:1014D00008384CF6CD41CCF6CC41A0FB01100009F8
:1014E0000290029945F60000C5F6020000EB81006B
:1014F00003990866039945F68000C5F60200486620
:10150000029800F01F01012088400399886635E0A9
:101510000398007810384AF6AB21CAF6AA21A0FB3E
:10152000011000090290019840F2B841C4F2020192
:1015300088420CD8FFE7019840F21041C4F2020142
:10154000884204D3FFE7029808300290FFE702992F
:1015500040F60000C4F2020000EB81000399086627
:10156000039940F68000C4F202004866029800F039
:101570001F010120884003998866FFE704B0704787
:1015800083B002900298007901900198002800F041
:101590008A80FFE70198082800F28580FFE702981B
:1015A0000168012045F20842C5F60202914200900E
:1015B0004ED0FFE702980168012045F21C42C5F6B3
:1015C00002029142009043D0FFE702980168012097
:1015D00045F23042C5F602029142009038D0FFE752
:1015E00002980168012045F24442C5F60202914288
:1015F00000902DD0FFE702980168012045F2584283
:10160000C5F602029142009022D0FFE702980168DD
:10161000012045F26C42C5F602029142009017D0BB
:10162000FFE702980168012045F28042C5F60202F8
:10163000914200900CD0FFE7029800684AF66C31A6
:10164000CAF2FD710844B0FA80F040090090FFE74B
:101650000098C00780B1FFE7019945F6FC00C5F688
:10166000020000EB81000299C866029945F640101D
:10167000C5F6020008670FE0019940F6FC00C4F2CD
:10168000020000EB81000299C866029940F6401002
:10169000C4F202000867FFE70198411E012088405C
:1016A00002994867FFE703B07047000000000000A0
:1016B00085B0049000208DF80F000498806918BB55
:1016C000FFE70498806A029003281BD80299DFE89C
:1016D00001F0020D0218049890F82F00C00720B105
:1016E000FFE701208DF80F00FFE70CE00498C06AC7
:1016F000B0F1C07F04D1FFE701208DF80F00FFE7B4
:1017000001E000E0FFE747E004988069B0F5005F82
:1017100026D1FFE70498806A019003281ED801991A
:10172000DFE801F00206021101208DF80F0016E03B
:10173000049890F82F00C00720B1FFE701208DF832
:101740000F00FFE70BE00498C06AB0F1C07F04D13E
:10175000FFE701208DF80F00FFE700E0FFE71AE048
:101760000498806A0090032804D3FFE700980328B8
:1017700004D00EE001208DF80F000BE0049890F8E3
:101780002F00C00720B1FFE701208DF80F00FFE711
:1017900000E0FFE7FFE7FFE79DF80F0005B07047A7
:1017A00089B008900791069205930898806D04907F
:1017B0000898806D03900898016801201022C4F2F7
:1017C00002029142029000F00381FFE7089801684D
:1017D00001202822C4F202029142029000F0F88017
:1017E000FFE70898016801204022C4F202029142FA
:1017F000029000F0ED80FFE7089801680120582270
:10180000C4F202029142029000F0E280FFE70898E1
:10181000016801207022C4F202029142029000F09D
:10182000D780FFE70898016801208822C4F20202ED
:101830009142029000F0CC80FFE7089801680120F7
:10184000A022C4F202029142029000F0C180FFE7A0
:10185000089801680120B822C4F202029142029065
:1018600000F0B680FFE708980168012040F21042BE
:10187000C4F202029142029000F0AA80FFE70898A9
:101880000168012040F22842C4F202029142029013
:1018900000F09E80FFE708980168012040F2404276
:1018A000C4F202029142029000F09280FFE7089891
:1018B0000168012040F25842C4F2020291420290B3
:1018C00000F08680FFE708980168012040F270422E
:1018D000C4F20202914202907AD0FFE708980168B0
:1018E000012040F28842C4F20202914202906FD07D
:1018F000FFE708980168012040F2A042C4F202020A
:101900009142029064D0FFE708980168012040F2FC
:10191000B842C4F202029142029059D0FFE70898FF
:101920000168012045F20842C5F602029142029088
:101930004ED0FFE708980168012045F21C42C5F629
:1019400002029142029043D0FFE70898016801200B
:1019500045F23042C5F602029142029038D0FFE7CC
:1019600008980168012045F24442C5F602029142FE
:1019700002902DD0FFE708980168012045F25842F7
:10198000C5F602029142029022D0FFE70898016852
:10199000012045F26C42C5F602029142029017D036
:1019A000FFE708980168012045F28042C5F602026F
:1019B000914202900CD0FFE7089800684AF66C311B
:1019C000CAF2FD710844B0FA80F040090290FFE7C6
:1019D0000298C00770B1FFE70898416E806E4860BA
:1019E0000898C06E28B1FFE70898016F406F486003
:1019F000FFE7FFE70898016801201022C4F2020205
:101A00009142019000F0A380FFE70898016801204F
:101A10002822C4F202029142019000F09880FFE770
:101A20000898016801204022C4F20202914201900C
:101A300000F08D80FFE70898016801205822C4F269
:101A400002029142019000F08280FFE7089801684D
:101A500001207022C4F202029142019077D0FFE788
:101A60000898016801208822C4F202029142019084
:101A70006DD0FFE7089801680120A022C4F202029D
:101A80009142019063D0FFE7089801680120B822D5
:101A9000C4F202029142019059D0FFE70898016810
:101AA000012040F21042C4F20202914201904ED055
:101AB000FFE708980168012040F22842C4F20202C0
:101AC0009142019043D0FFE708980168012040F25D
:101AD0004042C4F202029142019038D0FFE70898D8
:101AE0000168012040F25842C4F202029142019082
:101AF0002DD0FFE708980168012040F27042C4F23F
:101B000002029142019022D0FFE70898016801206B
:101B100040F28842C4F202029142019017D0FFE7DE
:101B200008980168012040F2A042C4F202029142EA
:101B300001900CD0FFE7089800684FF64831CBF6CB
:101B4000FD710844B0FA80F040090190FFE7019868
:101B5000C00750B3FFE70898C06D00F01F013F2099
:101B600088400499886008980168086820F48020FB
:101B700008600598089909684860089880684028B6
:101B800009D1FFE7069808990968886007980899BD
:101B90000968C86008E0079808990968886006988D
:101BA00008990968C860FFE782E008980168012089
:101BB00045F20842C5F60202914200904ED0FFE77E
:101BC00008980168012045F21C42C5F602029142C4
:101BD000009043D0FFE708980168012045F23042A9
:101BE000C5F602029142009038D0FFE708980168DC
:101BF000012045F24442C5F60202914200902DD0E8
:101C0000FFE708980168012045F25842C5F6020234
:101C10009142009022D0FFE708980168012045F228
:101C20006C42C5F602029142009017D0FFE7089877
:101C30000168012045F28042C5F6020291420090FF
:101C40000CD0FFE7089800684AF66C31CAF2FD71C3
:101C50000844B0FA80F040090090FFE70098C00700
:101C600020B3FFE70898C06D00F01F0101208840F5
:101C70000399486005980899096848600898806841
:101C8000402809D1FFE706980899096888600798F5
:101C900008990968C86008E0079808990968886089
:101CA000069808990968C860FFE700E0FFE7FFE7CA
:101CB00009B07047000000007047000000000000FD
:101CC0008DB00B900B9947F22400C2F2004050F8FF
:101CD00021000A900B9800EB400009900B9800EB54
:101CE000800008900020079006900998B0F5007FCA
:101CF00009DAFFE7099947F22400C2F2004050F8E0
:101D000021000790FFE70898B0F5007F09DAFFE7A8
:101D1000089947F22400C2F2004050F821000690D2
:101D2000FFE743F21C00C2F2004000880B99884292
:101D300007D1FFE743F21C00C2F200404088029046
:101D400006E043F21C00C2F2004000880290FFE768
:101D50000298059005980B9901EB4101884207D044
:101D6000FFE70B98059901EB4101884238D1FFE765
:101D70009DED0A0A9FED381AB4EE410AF1EE10FA11
:101D800009DDFFE79DED060A9DED0A1A80EE010AC6
:101D90008DED010A04E09FED310A8DED010AFFE7A8
:101DA0009DED010A8DED040A9DED040A9FED2E1AAA
:101DB000B4EE410AF1EE10FA0EDDFFE79DED040AE4
:101DC0009FED2A1AB4EE410AF1EE10FA04DAFFE7A9
:101DD00001208DF833003BE000208DF8330037E020
:101DE0009DED0A0A9FED1C1AB4EE410AF1EE10FABD
:101DF00009DDFFE79DED070A9DED0A1A80EE010A55
:101E00008DED000A04E09FED150A8DED000AFFE755
:101E10009DED000A8DED030A9DED030A9FED101A5A
:101E2000B4EE410AF1EE10FA0EDDFFE79DED030A74
:101E30009FED0C1AB4EE410AF1EE10FA04DAFFE756
:101E400001208DF8330003E000208DF83300FFE718
:101E50009DF833000DB07047BD3786350000000097
:101E60000AD7A33D9A99193E0AD7233DCDCCCC3D44
:101E700081B0EFF3108072B60090FFE7FEE700003C
:101E800080B584B0039000200290FFE70298B0F57F
:101E9000806F1ADAFFE70398029930F8110000EE1C
:101EA000100AB8EE400A45F22400C2F2004000EBEE
:101EB000C10181ED000A029900EBC10100204860D8
:101EC000FFE7029801300290E0E740F6CC20C0F630
:101ED000010045F22401C2F20041019100220123D8
:101EE0000BF00AF8019847F22401C2F200414FF4C6
:101EF00080620BF0D5FF04B080BD00000000000040
:101F000086B0002005900490039002900320019079
:101F1000FFE70198B0F5007F21DAFFE7019947F26A
:101F20002400C2F2004000EB810090ED000A9DED1C
:101F3000051AB4EE410AF1EE10FA0BDDFFE7019944
:101F400047F22400C2F2004050F8210005900198A9
:101F50000390FFE7FFE7019801300190D9E70320E4
:101F60000090FFE70098B0F5007F2EDAFFE70098B9
:101F700003990239884207DBFFE700980399023191
:101F8000884201DCFFE71CE0009947F22400C2F21E
:101F9000004000EB810090ED000A9DED041AB4EEC4
:101FA000410AF1EE10FA0BDDFFE7009947F2240039
:101FB000C2F2004050F82100049000980290FFE720
:101FC000FFE7009801300090CCE7039843F21C0132
:101FD000C2F2004108800298488006B070470000B5
:101FE00080B586B048F22800C2F2004090ED050AA4
:101FF000B5EE400AF1EE10FA6ED0FFE748F2280085
:10200000C2F20040019090ED040A90ED051A9FED98
:10201000682A81EE023A9FED671A23EE013ABDEE7F
:10202000C33A13EE101A80EE020A20EE010ABDEE4A
:10203000C00A10EE102A40F6DC20C0F601000DF0B8
:1020400027F8019890ED040A90ED051A30EE410A48
:10205000B7EEC00A8DED040B9DED040B9FED4C1BFC
:10206000B4EE410BF1EE10FA09DDFFE79DED040B34
:102070009FED491B30EE010B8DED040BFFE79DED4D
:10208000040B9FED471BB4EE410BF1EE10FA09DA99
:10209000FFE79DED040B9FED441B30EE010B8DED32
:1020A000040BFFE748F22801C2F2004191ED020A59
:1020B000B7EEC00A9DED041B9FED3B2B81EE021B8A
:1020C000BAEE042BA1EE020BB7EEC00B81ED020AB3
:1020D000002008614861FFE748F22800C2F2004092
:1020E00090ED0B0AB5EE400AF1EE10FA4ED0FFE784
:1020F00048F22800C2F2004090ED0A0A90ED0B1A57
:1021000030EE410AB7EEC00A8DED020B9DED020BD9
:102110009FED1F1BB4EE410BF1EE10FA09DDFFE756
:102120009DED020B9FED1C1B30EE010B8DED020BA4
:10213000FFE79DED020B9FED1A1BB4EE410BF1EE94
:1021400010FA09DAFFE79DED020B9FED171B30EE49
:10215000010B8DED020BFFE748F22801C2F20041AE
:1021600091ED080AB7EEC00A9DED021B9FED0E2B04
:1021700081EE021BBAEE042BA1EE020BB7EEC00BF0
:1021800081ED080A00208862C862FFE706B080BDC2
:1021900000000060FB21094000000060FB2119C025
:1021A00000000060FB2109C000000060FB21194015
:1021B000DB0FC94000C8AF4880B588B042F21A00B2
:1021C000C2F20040FFF75CFE00200790FFE707988F
:1021D000012831DCFFE7079943F21C00C2F20040FE
:1021E00030F81100ADF81A00BDF81A00F8B1FFE799
:1021F000BDF81A1045F22400C2F2004050F8311028
:102200000591BDF81A1000EBC100406804909DEDE7
:10221000040ADDED050A0CF05FFF07994AF29840C9
:10222000C2F2004000EB810080ED000AFFE7FFE70B
:10223000079801300790CAE742F61A00C2F2004040
:10224000FFF71EFE43F21C01C2F200410A8845F26C
:102250002400C2F2004050F832200392098800EBBB
:10226000C100406802909DED020ADDED030A0CF00A
:1022700033FF4AF2A040C2F2004080ED000A4AF269
:102280009841C2F2004191ED000A90ED001A30EE43
:10229000410A8DED010A9DED010A9FED171AB4EE7A
:1022A000410AF1EE10FA09DDFFE79DED010A9FED0D
:1022B000131A30EE010A8DED010AFFE79DED010AC8
:1022C0009FED0F1AB4EE410AF1EE10FA09DAFFE7BA
:1022D0009DED010A9FED0B1A30EE010A8DED010A0A
:1022E000FFE748F22801C2F20041086948610198FD
:1022F000086108B080BD00BFDB0F4940DB0FC9C0DB
:10230000DB0F49C0DB0FC94080B586B00490039154
:10231000029200200090FFE7049890F850000128F6
:1023200004D1FFE702208DF817005BE0049901203B
:1023300081F85000FFE7FFE70498FEF719FD8DF8DC
:1023400007009DF80700E0BBFFE70498406D40F0F0
:10235000020020F4885004994865049800680399A5
:10236000029A08F011FEFFE70498006808F0D4FC18
:10237000F0B1FFE700980130009000984FF600019F
:10238000C2F2C351884212D3FFE70498406D40F077
:10239000100020F0020004994865FFE7049900202E
:1023A00081F85000FFE701208DF817001AE0DBE705
:1023B0000498406D40F0010020F002000499486547
:1023C00005E00499486D40F010004865FFE7FFE71D
:1023D0000499002081F85000FFE79DF807008DF870
:1023E0001700FFE79DF8170006B080BD0000000051
:1023F00080B5A6B02490239100208DF88B002398FF
:10240000006808B1FFE7FFE7FFE7249890F8500065
:10241000012804D1FFE702208DF897002DE12499CF
:10242000012081F85000FFE7FFE700201D901E907B
:102430002498006842F20001C4F20201884206D1E9
:10244000FFE742F20010C4F20200089002E0002010
:102450000890FFE7089878B9FFE72499486D40F0A5
:1024600020004865FFE72499002081F85000FFE72D
:1024700001208DF8970000E1089808F085FC07908E
:102480002498006808F080FC002840F0E280FFE714
:102490000798002840F0DD80FFE7249801680120BC
:1024A00042F20002C4F20202914206900CD0FFE711
:1024B000249800684DF60071CBF6FD710844B0FA1F
:1024C00080F040090690FFE70698C10746F2003009
:1024D000C5F6020000291CBF42F20030C4F202001F
:1024E00021902398006800285ED0FFE7219880683B
:1024F00020F4404023994968084321998860249832
:102500000168012042F20002C4F2020291420590E9
:102510000CD0FFE7249800684DF60071CBF6FD71F2
:102520000844B0FA80F040090590FFE70598C1071C
:1025300046F20030C5F6020000291CBF42F200300E
:10254000C4F2020042F20031C4F20201884212D108
:10255000FFE742F20000C4F2020008F0FDFB039026
:1025600042F20010C4F2020008F0F6FB01460398A4
:102570000843049007E046F20000C5F6020008F0A8
:10258000EBFB0490FFE7049868B9FFE721988068A7
:1025900040F61F718843239A1168926811430843DB
:1025A00021998860FFE753E02199886820F4404032
:1025B000886024980168012042F20002C4F20202FD
:1025C000914202900CD0FFE7249800684DF600710C
:1025D000CBF6FD710844B0FA80F040090290FFE7A5
:1025E0000298C10746F20030C5F6020000291CBF60
:1025F00042F20030C4F2020042F20031C4F20201A1
:10260000884212D1FFE742F20000C4F2020008F053
:10261000A3FB009042F20010C4F2020008F09CFB01
:10262000014600980843019007E046F20000C5F615
:10263000020008F091FB0190FFE7019838B9FFE72D
:102640002199886840F61F7290438860FFE7FFE792
:1026500008E02499486D40F02000486501208DF87D
:102660008B00FFE7FFE72499002081F85000FFE787
:102670009DF88B008DF89700FFE79DF8970026B036
:1026800080BD00000000000080B5B0B01E901D911C
:1026900000208DF8730019901E9890F838000128DA
:1026A00001D1FFE700E0FFE71D98C0680021C4F2F8
:1026B000FF71884201D0FFE71EE01E98006842F2D9
:1026C0000001C4F20201884201D1FFE7FFE71E9832
:1026D000006842F20011C4F20201884201D1FFE712
:1026E000FFE71E98006846F20001C5F60201884225
:1026F00001D1FFE7FFE7FFE7FFE71E9890F85000E2
:10270000012804D1FFE702208DF87F00CDE31E9958
:10271000012081F85000FFE7FFE71E98006808F0ED
:102720002BFB002840F0AD83FFE71D98C078000622
:1027300000282DD4FFE71D980068000330B9FFE79B
:102740001D980068C0F38460169015E01D9800681D
:1027500090FAA0F02E902E9820B9FFE720208DF857
:10276000BF0005E02E98B0FA80F08DF8BF00FFE7BB
:102770009DF8BF001690FFE7169800F01F0101209A
:1027800000FA01F21E980168C8691043C861FFE7AA
:102790001E9800681D990A68496808F019FB1E9880
:1027A000006808F0E9FA18901E98006808F09CFA92
:1027B00017901898002840F0B580FFE71798002878
:1027C00040F0B080FFE71E9800681D9A116892687B
:1027D00008F03EFB41F20000C5F60040006800F042
:1027E0007040B0F1805F0BD1FFE71D9840691E99E2
:1027F0000968C96801F01C014908884015901FE06C
:102800001E980068C068C00600280BD4FFE71D981A
:1028100040691E990968C96801F01C01490888408F
:1028200014900AE01D9840691E990968C96801F072
:102830001001490888401490FFE714981590FFE7AD
:1028400015981B901D980069042821D0FFE71E9859
:1028500000681D990A6809691B9B08F065FB1E98B2
:1028600000681D9A1169527E013AB2FA82F2520949
:10287000D20708F075FB1E9800681D9A1169127E38
:10288000013AB2FA82F25209D20208F039FB48E06A
:102890001E980068006E00F0F8401D990968B0EBC2
:1028A000816F07D1FFE71E980168086E20F0004095
:1028B0000866FFE71E980068406E00F0F8401D991A
:1028C0000968B0EB816F07D1FFE71E980168486E79
:1028D00020F000404866FFE71E980068806E00F018
:1028E000F8401D990968B0EB816F07D1FFE71E988A
:1028F0000168886E20F000408866FFE71E98006837
:10290000C06E00F0F8401D990968B0EB816F07D1E7
:10291000FFE71E980168C86E20F00040C866FFE718
:10292000FFE7FFE71E98006808F00EFA002840F065
:10293000A782FFE71E9800681D9A1168D26808F008
:10294000A3FA1D98C0680021C4F2FF71884240F0CC
:102950003381FFE71E98006813901D9800680003FC
:1029600030B9FFE71D980068C0F38460129015E04D
:102970001D98006890FAA0F02C902C9820B9FFE7E1
:1029800020208DF8B70005E02C98B0FA80F08DF883
:10299000B700FFE79DF8B7001290FFE712980130EB
:1029A00000F01F0009287DD8FFE71D98006800038C
:1029B00030B9FFE71D980068C0F38460119015E0FE
:1029C0001D98006890FAA0F02A902A9820B9FFE795
:1029D00020208DF8AF0005E02A98B0FA80F08DF83D
:1029E000AF00FFE79DF8AF001190FFE711980130AD
:1029F00000F01F00800610901D980068000330B999
:102A0000FFE71D980068C0F384600F9015E01D98E3
:102A1000006890FAA0F02890289820B9FFE72020BD
:102A20008DF8A70005E02898B0FA80F08DF8A7008F
:102A3000FFE79DF8A7000F90FFE710980F9901316D
:102A400001F01F020121914008430E901D9800687B
:102A5000000330B9FFE71D980068C0F384600D9053
:102A600015E01D98006890FAA0F02690269820B9ED
:102A7000FFE720208DF89F0005E02698B0FA80F04F
:102A80008DF89F00FFE79DF89F000D90FFE70E98DF
:102A90000D99013101F01F0101EB410140EA0150A4
:102AA0000C9082E01D980068000330B9FFE71D9884
:102AB0000068C0F384600B9015E01D98006890FAE0
:102AC000A0F02490249820B9FFE720208DF89700EB
:102AD00005E02498B0FA80F08DF89700FFE79DF8A4
:102AE00097000B90FFE70B98013000F01F00800665
:102AF0000A901D980068000330B9FFE71D98006830
:102B0000C0F38460099015E01D98006890FAA0F069
:102B10002290229820B9FFE720208DF88F0005E051
:102B20002298B0FA80F08DF88F00FFE79DF88F00B3
:102B30000990FFE70A980999013101F01F0201216C
:102B40009140084308901D980068000330B9FFE7E2
:102B50001D980068C0F38460079015E01D98006818
:102B600090FAA0F02090209820B9FFE720208DF85F
:102B7000870005E02098B0FA80F08DF88700FFE725
:102B80009DF887000790FFE708990798013000F04B
:102B90001F0000EB40020020CFF6206000EB025047
:102BA000084340F000700C90FFE713980C991D9AB1
:102BB000926808F04DF9FFE71D98C07800060028DC
:102BC00040F15D81FFE71E980168012042F200029A
:102BD000C4F20202914206900CD0FFE71E980068F2
:102BE0004DF60071CBF6FD710844B0FA80F0400953
:102BF0000690FFE70698C10746F20030C5F60200CE
:102C000000291CBF42F20030C4F2020008F05CF858
:102C10001A901E9801684FF0010042F20002C4F2BF
:102C20000202914205900CD0FFE71E9800684DF615
:102C30000071CBF6FD710844B0FA80F040090590B0
:102C4000FFE70598C10746F20030C5F602000029EB
:102C50001CBF42F20030C4F2020042F20031C4F262
:102C60000201884212D1FFE742F20000C4F20200E2
:102C700008F06AF8039042F20010C4F2020008F073
:102C800063F8014603980843049007E046F2000009
:102C9000C5F6020008F058F80490FFE704980028F1
:102CA00040F0E380FFE71D9800680021CCF68431F6
:102CB000884255D1FFE79DF86A00000600284FD4EE
:102CC000FFE71E98006846F20001C5F6020188423F
:102CD00045D1FFE71E980168012042F20002C4F2CC
:102CE0000202914202900CD0FFE71E9800684DF658
:102CF0000071CBF6FD710844B0FA80F040090290F3
:102D0000FFE70298C10746F20030C5F6020000292D
:102D10001CBF42F20030C4F202001A9941F40001D3
:102D200008F0DEF840F20800C2F2004000684FEA06
:102D3000901042F66351C0F23E51A0FB01104FEAE1
:102D400090114FF0020000EB41001990FFE7199835
:102D500020B1FFE7199801381990F8E7FFE783E001
:102D60001D9800680021CCF25271884238D1FFE7EB
:102D70009DF86B00C00798BBFFE71E98006846F2FD
:102D80000001C5F60201884229D1FFE71E980168BB
:102D9000012042F20002C4F20202914201900CD0E2
:102DA000FFE71E9800684DF60071CBF6FD710844F0
:102DB000B0FA80F040090190FFE70198C10746F2A0
:102DC0000030C5F6020000291CBF42F20030C4F2F8
:102DD00002001A9941F0807108F082F8FFE742E0A2
:102DE0001D9800680021CCF6B871884239D1FFE700
:102DF0009DF86A004006002833D4FFE71E9800685B
:102E000046F20001C5F60201884229D1FFE71E986B
:102E10000168012042F20002C4F2020291420090D5
:102E20000CD0FFE71E9800684DF60071CBF6FD71DF
:102E30000844B0FA80F040090090FFE70098C1070D
:102E400046F20030C5F6020000291CBF42F20030F5
:102E5000C4F202001A9941F4800108F041F8FFE73A
:102E600000E0FFE7FFE7FFE708E01E99486D40F04C
:102E70002000486501208DF87300FFE7FFE7FFE7BA
:102E800008E01E99486D40F02000486501208DF84B
:102E90007300FFE7FFE71E99002081F85000FFE76D
:102EA0009DF873008DF87F00FFE79DF87F0030B03C
:102EB00080BD00000000000081B000900098006814
:102EC00042F20001C4F20201884207D1FFE743F257
:102ED0001A01C2F200410120087010E00098006859
:102EE00042F20011C4F20201884207D1FFE742F228
:102EF0001801C2F2004101200870FFE7FFE701B0AE
:102F0000704700000000000081B0009001B07047E1
:102F100081B0009001B0704710B58CB00A900020CD
:102F20008DF8270006900A9820B9FFE701208DF858
:102F30002F00D1E10A98C06838B1FFE70A98007FF6
:102F4000012801D1FFE7FFE7FFE70A98406D50B97C
:102F5000FFE70A9800F0C4F90A99002088650A99E9
:102F600081F85000FFE70A98006807F0DDFE28B1FD
:102F7000FFE70A98006807F07BFEFFE70A98006801
:102F800007F0F2FEE8B9FFE70A98006807F08CFE48
:102F900040F20800C2F200400068800942F6635126
:102FA000C0F23E51A0FB0101012000EB9110069000
:102FB000FFE7069820B1FFE7069801380690F8E78A
:102FC000FFE70A98006807F0CFFE70B9FFE70A999B
:102FD000486D40F0100048650A99886D40F0010086
:102FE000886501208DF82700FFE70A98006807F040
:102FF000C3FE07900A98406DC006002800F15E816C
:10300000FFE70798002840F05981FFE70A98406DD4
:1030100040F0020020F480700A9948650A98006820
:1030200007F092FE002870D1FFE70A98016801209E
:1030300042F20002C4F20202914203900CD0FFE778
:103040000A9800684DF60071CBF6FD710844B0FA9D
:1030500080F040090390FFE70398C10746F2003073
:10306000C5F6020000291CBF42F20030C4F2020083
:1030700042F20031C4F20201884212D1FFE742F26B
:103080000000C4F2020007F05FFE019042F200105F
:10309000C4F2020007F058FE01460198084302906E
:1030A00007E046F20000C5F6020007F04DFE029070
:1030B000FFE7029840BBFFE70A980168012042F24F
:1030C0000002C4F20202914200900CD0FFE70A987D
:1030D00000684DF60071CBF6FD710844B0FA80F03F
:1030E00040090090FFE70098C10746F20030C5F69E
:1030F000020000291CBF42F20030C4F202000A990B
:10310000496807F0DDFEFFE7FFE703F019F941F238
:103110000401884213D3FFE70A98806810280ED173
:10312000FFE70A994A7D086B40EA42308A681043FB
:10313000097F40EA014040F00C0008900BE00A993A
:103140004A7D086B40EA42308A681043097F40EAB2
:1031500001400890FFE70A98007F01280BD1FFE7A4
:103160000A98016A0020CFF6FE7000EB41410898F2
:1031700008430890FFE70A98406A50B1FFE70A99B0
:10318000486A896A00F478700143089808430890F7
:10319000FFE70A980068C0684CF20301CFF6F071AF
:1031A0000840089908430A990968C8600A980068A5
:1031B00007F0E2FD05900A98006807F095FD04907D
:1031C0000598002859D1FFE70498002855D1FFE75A
:1031D0000A98017DC06A40EA813008900A98006828
:1031E000C06844F203018843089908430A990968B2
:1031F000C8600A9890F83800012829D1FFE70A989A
:10320000406A20B1FFE70A98806A08B9FFE7FFE744
:103210000A98006800694FF61E01CFF6004100EAE7
:1032200001020A9B1968DC6BD3F840E0D3F844C074
:103230000020CFF6FF7000EB044040EA0E0040EAA9
:103240000C009B6C1843104340F00100086106E03D
:103250000A980168086920F001000861FFE70A98F0
:103260000068006920F070400A9A1168526B1043A0
:1032700008610A98FDF714FBFFE70A98C068012867
:103280000CD1FFE70A980068006B20F00F000A9A43
:1032900011689269013A1043086306E00A980168D0
:1032A000086B20F00F000863FFE70A98406D40F0BC
:1032B000010020F002000A99486508E00A99486D6B
:1032C00040F01000486501208DF82700FFE79DF8C9
:1032D00027008DF82F00FFE79DF82F000CB010BDE0
:1032E00080B58EB00D9000200C900B900A90099044
:1032F00008900D98006842F20001C4F20201884271
:1033000063D1FFE748F22400C2F2004001680131B6
:1033100001600068012810D1FFE7FFE744F2D840C0
:10332000C5F60200016841F020010160006800F06C
:10333000200007900798FFE7FFE7FFE744F2E0402F
:10334000C5F60200016841F001010160006800F06B
:10335000010006900698FFE70120089003200990DD
:10336000002002900A900020C5F6020008A902F091
:1033700003FE029948F24010C2F20040039010226E
:10338000C4F202020260092242608160C1604FF40F
:10339000806202614FF4006242614FF40052826128
:1033A000C1610162416201F0AFFD18B1FFE7FEF7B4
:1033B0005FFDFFE7FFE70D9848F24011C2F20041C0
:1033C000C1640D988863FFE76CE00D98006842F2D5
:1033D0000011C4F20201884263D1FFE748F22400E1
:1033E000C2F200400168013101600068012810D17B
:1033F000FFE7FFE744F2D840C5F60200016841F05C
:1034000020010160006800F0200005900598FFE7AA
:10341000FFE7FFE744F2E040C5F60200016841F033
:1034200001010160006800F0010004900498FFE7CA
:103430000420089003200990002000900A900020AA
:10344000C5F6020008A902F097FD009948F2B810ED
:10345000C2F2004001904022C4F2020202600A223D
:1034600042608160C1604FF4806202614FF400628B
:1034700042614FF400528261C1610162416201F018
:1034800043FD18B1FFE7FEF7F3FCFFE7FFE70D98F8
:1034900048F2B811C2F20041C1640D988863FFE799
:1034A000FFE7FFE70EB080BD80B588B006900591BC
:1034B000049206980168012042F20002C4F202025E
:1034C000914201900CD0FFE7069800684DF600711C
:1034D000CBF6FD710844B0FA80F040090190FFE797
:1034E0000198C10746F20030C5F6020000291CBF52
:1034F00042F20030C4F2020007F0EEFB02900698A0
:10350000006807F039FC002840F0AF80FFE7FFE7D4
:10351000069890F85000012804D1FFE702208DF8AA
:103520001F00ABE00699012081F85000FFE7FFE79C
:10353000029848B1FFE70298052805D0FFE70298F6
:10354000092840F08780FFE70698FDF775FC8DF8A5
:103550000F009DF80F00002874D1FFE70698406D1A
:1035600040F4807040F601618843069948650698EA
:10357000006842F20011C4F20201884206D1FFE75E
:1035800042F20000C4F20200009003E006980068D6
:103590000090FFE7009806990968884203D0FFE78A
:1035A000029830B9FFE70699486D20F4801048650D
:1035B000FFE70698406DC004002806D5FFE706998E
:1035C000886D20F00600886503E006990020886574
:1035D000FFE70698C16C40F65140C0F60000C86392
:1035E0000698C16C40F65950C0F600000864069871
:1035F000C16C40F62950C0F60000C8640698016806
:103600001C200860FFE70699002081F85000FFE7C2
:1036100006980168486840F01000486006990868FC
:10362000C96A07F0C5FB06980168C06C4031059A6D
:10363000049B02F01DF98DF80F000698006807F052
:10364000E7FB06E0FFE70699002081F85000FFE75E
:10365000FFE709E001208DF80F00FFE70699002041
:1036600081F85000FFE7FFE703E002208DF80F002C
:10367000FFE79DF80F008DF81F00FFE79DF81F0082
:1036800008B080BD0000000080B584B00290FFE764
:10369000029890F85000012804D1FFE702208DF82D
:1036A0000F002DE00299012081F85000FFE7FFE7AD
:1036B00002980321FDF700FA8DF807009DF8070036
:1036C00098B9FFE70298FDF753FB8DF807009DF8C6
:1036D000070048B9FFE70298406D40F0010020F470
:1036E000885002994865FFE7FFE7FFE7029900204D
:1036F00081F85000FFE79DF807008DF80F00FFE705
:103700009DF80F0004B080BD81B0009001B07047FB
:1037100081B0009001B0704781B0009001B0704757
:1037200080B58AB008900791069200208DF81700A6
:10373000089818B1FFE7079820B9FFE701208DF836
:10374000270042E107980069012801D1FFE7FFE760
:1037500007980068042801D1FFE7FFE7FFE7089812
:103760004079012804D1FFE702208DF827002CE1E1
:10377000089901204871FFE7FFE7089902200871C6
:103780000798006804287ED1FFE702F0E1FD02906F
:10379000069878BBFFE7FFE708980068406B48F29F
:1037A0000001C2F2000108421ED0FFE702F0D0FD86
:1037B0000299401A022816D3FFE708980068406B68
:1037C00048F20001C2F2000108420BD0FFE708995D
:1037D000086940F0080008610899032008718DF815
:1037E0002700F2E0FFE7D7E70798806908990968A2
:1037F000086426E0FFE708980068406BC00FD0B16E
:10380000FFE702F0A5FD0299401A022812D3FFE754
:1038100008980068406BC00F58B1FFE70899086925
:1038200040F0080008610899032008718DF827000E
:10383000CBE0FFE7DFE707988069089909684864EB
:10384000FFE708980068806C069901F0100240F2CA
:10385000FF31914088430799C9699140084308990D
:103860000968886408980068C06C069901F0100225
:10387000FF21914088430799096A914008430899BC
:103880000968C864FFE70798006901281ED1FFE7AF
:1038900008980068806B0490069800F010011F20C3
:1038A00000FA01F104988843049007984069039056
:1038B0000398069901F0100100FA01F104980843F9
:1038C00004900498089909688863FFE708980068DD
:1038D000C06B0490069800F01001072000FA01F177
:1038E0000498884304900798C068012803D1FFE733
:1038F0000020019013E00798C068022803D1FFE779
:10390000012001900AE00798806818B9FFE70120BC
:10391000019002E000200190FFE7FFE7FFE7079931
:103920000868896808430199084303900398069939
:1039300001F0100100FA01F1049808430490049882
:1039400008990968C863069800F010014FF4804098
:1039500000FA01F208980168086890430860089826
:10396000006800680490069800F0100140F6FE70B0
:1039700000FA01F104988843049007984068039086
:103980000398069901F0100100FA01F10498084328
:1039900004900498089909680860069800F01001DE
:1039A000C02000FA01F20898016808689043086096
:1039B000089901200871FFE7089900204871FFE786
:1039C0009DF817008DF82700FFE79DF827000AB043
:1039D00080BD00000000000081B0009045F2200191
:1039E000C2F200410120087001B0704700000000E1
:1039F00081B0009045F22101C2F20041012008701F
:103A000001B070470000000081B0009001B0704725
:103A100080B582B00090009820B9FFE701208DF8B2
:103A2000070016E00098007938B9FFE700990020F8
:103A30004871009800F014F8FFE70099022008711F
:103A4000009900200861009A012111718DF807008A
:103A5000FFE79DF8070002B080BD000000000000F5
:103A600080B58CB00B9000200A90099008900790C8
:103A700006900B98006847F20041C4F200018842AA
:103A800040F08A80FFE7FFE744F2E840C5F6020015
:103A9000016841F000510160006800F0005005909D
:103AA0000598FFE7FFE744F2E040C5F60200016831
:103AB00041F001010160006800F0010004900498E9
:103AC000FFE7302006900320079000200290089026
:103AD0000020C5F6020006A902F04EFA029948F24B
:103AE0003020C2F2004003902822C4F20202026099
:103AF0004322426040228260C1604FF480620261D2
:103B00004FF4006242614FF4005282614FF48072C0
:103B1000C2610162416201F0F7F918B1FFE7FEF7F7
:103B2000A7F9FFE7FFE70B9848F23021C2F2004106
:103B300081600B988863FFE748F2A820C2F200403A
:103B4000019040F22841C4F2020101604421416029
:103B5000402181600021C1604FF4806202614FF416
:103B6000006242614FF4005282614FF48072C26180
:103B70000162416201F0C8F918B1FFE7FEF778F978
:103B8000FFE7FFE70B9848F2A821C2F20041C160AD
:103B90000B988863FFE7FFE70CB080BD00000000D2
:103BA00080B58AB0DDF830C0089007910692059381
:103BB000089820B9FFE701208DF82700BDE0FFE756
:103BC00008984079012804D1FFE702208DF82700EA
:103BD000B3E0089901204871FFE7FFE70899022048
:103BE0000871079898BBFFE70898816840F68970CC
:103BF000C0F60000C8630898816841F21900C0F659
:103C0000000008640898816840F6C970C0F600009A
:103C1000C86408980168086840F4805008600C98EF
:103C2000029020B1FFE70298042805D009E0089827
:103C300000680830039009E0089800680C30039091
:103C400004E00898006810300390FFE732E008981D
:103C5000C16840F6A970C0F60000C8630898C16842
:103C600041F23100C0F6000008640898C16840F6CF
:103C7000F170C0F60000C86408980168086840F058
:103C8000805008600C98019020B1FFE7019804284B
:103C900005D009E0089800681430039009E00898FE
:103CA00000681830039004E0089800681C30039006
:103CB000FFE7FFE7079880B9FFE708980168086801
:103CC00040F400500860089880680699039A059BA4
:103CD00001F0CEFD8DF813000FE008980168086828
:103CE00040F0005008600898C0680699039A059B48
:103CF00001F0BEFD8DF81300FFE7FFE708990020F3
:103D00004871FFE79DF8130060B9FFE7079800F0DE
:103D10001001012000FA01F20898016808681043B8
:103D2000086005E00899086940F004000861FFE7B1
:103D30009DF813008DF82700FFE79DF827000AB0D3
:103D400080BD00000000000080B590B00F90002002
:103D50000B9040F20800C2F20040006848F2B51132
:103D6000C1F64E31A0FB0110800A0A900F98806DB9
:103D700009900F98806D0890099800680E90089837
:103D800000680D900F98016801201022C4F2020211
:103D90009142079000F0A380FFE70F98016801208F
:103DA0002822C4F202029142079000F09880FFE7B7
:103DB0000F98016801204022C4F20202914207904C
:103DC00000F08D80FFE70F98016801205822C4F2AF
:103DD00002029142079000F08280FFE70F9801688D
:103DE00001207022C4F202029142079077D0FFE7CF
:103DF0000F98016801208822C4F2020291420790C4
:103E00006DD0FFE70F9801680120A022C4F20202E2
:103E10009142079063D0FFE70F9801680120B82214
:103E2000C4F202029142079059D0FFE70F9801684F
:103E3000012040F21042C4F20202914207904ED09B
:103E4000FFE70F980168012040F22842C4F2020205
:103E50009142079043D0FFE70F980168012040F29C
:103E60004042C4F202029142079038D0FFE70F9817
:103E70000168012040F25842C4F2020291420790C8
:103E80002DD0FFE70F980168012040F27042C4F284
:103E900002029142079022D0FFE70F9801680120AB
:103EA00040F28842C4F202029142079017D0FFE725
:103EB0000F980168012040F2A042C4F20202914230
:103EC00007900CD0FFE70F9800684FF64831CBF60B
:103ED000FD710844B0FA80F040090790FFE70798A9
:103EE000C007002800F01385FFE70E980F99C96DF1
:103EF00001F01F01C8400007002840F1B080FFE733
:103F00000F9800681021C4F20201884200F08180FD
:103F1000FFE70F9800682821C4F20201884278D098
:103F2000FFE70F9800684021C4F20201884270D078
:103F3000FFE70F9800685821C4F20201884268D058
:103F4000FFE70F9800687021C4F20201884260D038
:103F5000FFE70F9800688821C4F20201884258D018
:103F6000FFE70F980068A021C4F20201884250D0F8
:103F7000FFE70F980068B821C4F20201884248D0D8
:103F8000FFE70F98006840F21041C4F20201884236
:103F90003FD0FFE70F98006840F22841C4F20201C9
:103FA000884236D0FFE70F98006840F24041C4F2E3
:103FB000020188422DD0FFE70F98006840F2584177
:103FC000C4F20201884224D0FFE70F98006840F253
:103FD0007041C4F2020188421BD0FFE70F980068CD
:103FE00040F28841C4F20201884212D0FFE70F98E4
:103FF000006840F2A041C4F20201884209D0FFE704
:104000000F98006840F2B841C4F20201884207D11B
:10401000FFE70F980068006800F00400069006E0D3
:104020000F980068006800F008000690FFE7069807
:10403000A0B1FFE70F980168086820F0040008604D
:104040000F98C06D00F01F01082088400999886012
:104050000F99486D40F001004865FFE7FFE70E98B3
:104060000F99C96D01F01F01C840C007002800F07A
:10407000A980FFE70F9800681021C4F2020188426E
:1040800000F08180FFE70F9800682821C4F2020148
:10409000884278D0FFE70F9800684021C4F20201FF
:1040A000884270D0FFE70F9800685821C4F20201DF
:1040B000884268D0FFE70F9800687021C4F20201BF
:1040C000884260D0FFE70F9800688821C4F202019F
:1040D000884258D0FFE70F980068A021C4F202017F
:1040E000884250D0FFE70F980068B821C4F202015F
:1040F000884248D0FFE70F98006840F21041C4F2B0
:10410000020188423FD0FFE70F98006840F2284143
:10411000C4F20201884236D0FFE70F98006840F2EF
:104120004041C4F2020188422DD0FFE70F98006899
:1041300040F25841C4F20201884224D0FFE70F98B0
:10414000006840F27041C4F2020188421BD0FFE7D0
:104150000F98006840F28841C4F20201884212D0F0
:10416000FFE70F98006840F2A041C4F202018842C4
:1041700009D0FFE70F98006840F2B841C4F202018D
:10418000884207D1FFE70F980068406900F080007F
:10419000059005E00F980068006800200590FFE793
:1041A000059870B1FFE70F98C06D00F01F01012066
:1041B0008840099988600F99486D40F00200486571
:1041C000FFE7FFE70E980F99C96D01F01F01C84086
:1041D0004007002840F1A980FFE70F9800681021F0
:1041E000C4F20201884200F08180FFE70F98006866
:1041F0002821C4F20201884278D0FFE70F980068B6
:104200004021C4F20201884270D0FFE70F98006895
:104210005821C4F20201884268D0FFE70F98006875
:104220007021C4F20201884260D0FFE70F98006855
:104230008821C4F20201884258D0FFE70F98006835
:10424000A021C4F20201884250D0FFE70F98006815
:10425000B821C4F20201884248D0FFE70F980068F5
:1042600040F21041C4F2020188423FD0FFE70F98AC
:10427000006840F22841C4F20201884236D0FFE7CC
:104280000F98006840F24041C4F2020188422DD0EC
:10429000FFE70F98006840F25841C4F202018842DB
:1042A00024D0FFE70F98006840F27041C4F2020189
:1042B00088421BD0FFE70F98006840F28841C4F2A3
:1042C0000201884212D0FFE70F98006840F2A04137
:1042D000C4F20201884209D0FFE70F98006840F25B
:1042E000B841C4F20201884207D1FFE70F98006885
:1042F000006800F00200049005E00F980068006874
:1043000000200490FFE7049870B1FFE70F98C06D9C
:1043100000F01F0104208840099988600F99486DBA
:1043200040F004004865FFE7FFE70E980F99C96D5C
:1043300001F01F01C840C006002840F1DE80FFE701
:104340000F9800681021C4F20201884200F08180B9
:10435000FFE70F9800682821C4F20201884278D054
:10436000FFE70F9800684021C4F20201884270D034
:10437000FFE70F9800685821C4F20201884268D014
:10438000FFE70F9800687021C4F20201884260D0F4
:10439000FFE70F9800688821C4F20201884258D0D4
:1043A000FFE70F980068A021C4F20201884250D0B4
:1043B000FFE70F980068B821C4F20201884248D094
:1043C000FFE70F98006840F21041C4F202018842F2
:1043D0003FD0FFE70F98006840F22841C4F2020185
:1043E000884236D0FFE70F98006840F24041C4F29F
:1043F000020188422DD0FFE70F98006840F2584133
:10440000C4F20201884224D0FFE70F98006840F20E
:104410007041C4F2020188421BD0FFE70F98006888
:1044200040F28841C4F20201884212D0FFE70F989F
:10443000006840F2A041C4F20201884209D0FFE7BF
:104440000F98006840F2B841C4F20201884207D1D7
:10445000FFE70F980068006800F00800039006E08E
:104460000F980068006800F004000390FFE70398CD
:10447000002841D0FFE70F98C06D00F01F01102009
:104480008840099988600F980068006840030028F8
:104490001AD5FFE70F98006800680003002809D4C8
:1044A000FFE70F98006C20B1FFE70F98016C884779
:1044B000FFE708E00F98806C20B1FFE70F98816C50
:1044C0008847FFE7FFE716E00F9800680068C0051F
:1044D000002807D4FFE70F980168086820F008005B
:1044E0000860FFE70F98006C20B1FFE70F98016CA0
:1044F0008847FFE7FFE7FFE7FFE70E980F99C96DD1
:1045000001F01F01C8408006002840F12681FFE726
:104510000F9800681021C4F20201884200F08180E7
:10452000FFE70F9800682821C4F20201884278D082
:10453000FFE70F9800684021C4F20201884270D062
:10454000FFE70F9800685821C4F20201884268D042
:10455000FFE70F9800687021C4F20201884260D022
:10456000FFE70F9800688821C4F20201884258D002
:10457000FFE70F980068A021C4F20201884250D0E2
:10458000FFE70F980068B821C4F20201884248D0C2
:10459000FFE70F98006840F21041C4F20201884220
:1045A0003FD0FFE70F98006840F22841C4F20201B3
:1045B000884236D0FFE70F98006840F24041C4F2CD
:1045C000020188422DD0FFE70F98006840F2584161
:1045D000C4F20201884224D0FFE70F98006840F23D
:1045E0007041C4F2020188421BD0FFE70F980068B7
:1045F00040F28841C4F20201884212D0FFE70F98CE
:10460000006840F2A041C4F20201884209D0FFE7ED
:104610000F98006840F2B841C4F20201884207D105
:10462000FFE70F980068006800F01000029006E0B5
:104630000F980068006800F002000290FFE70298FF
:10464000002800F08980FFE70F98C06D00F01F017F
:1046500020208840099988600F9890F83500042838
:1046600037D1FFE70F980168086820F0160008604E
:104670000F980168486920F0800048610F98006C2D
:1046800020B9FFE70F98806C38B1FFE70F980168F9
:10469000086820F008000860FFE70F98C06D00F080
:1046A0001F013F208840099988600F99012081F8F7
:1046B0003500FFE70F99002081F83400FFE70F98DD
:1046C000006D20B1FFE70F98016D8847FFE700F00C
:1046D00019BC0F9800680068400300281AD5FFE74E
:1046E0000F98006800680003002809D4FFE70F98BE
:1046F000406C20B1FFE70F98416C8847FFE708E066
:104700000F98C06B20B1FFE70F98C16B8847FFE798
:10471000FFE720E00F9800680068C005002811D46A
:10472000FFE70F980168086820F0100008600F99F3
:10473000012081F83500FFE70F99002081F834004F
:10474000FFE7FFE70F98C06B20B1FFE70F98C16B41
:104750008847FFE7FFE7FFE7FFE70F98406D002876
:1047600000F0D480FFE70F98406DC007002800F0EC
:10477000C480FFE70F99042081F835000F98006886
:104780001021C4F20201884200F08180FFE70F98F7
:1047900000682821C4F20201884278D0FFE70F9810
:1047A00000684021C4F20201884270D0FFE70F98F0
:1047B00000685821C4F20201884268D0FFE70F98D0
:1047C00000687021C4F20201884260D0FFE70F98B0
:1047D00000688821C4F20201884258D0FFE70F9890
:1047E0000068A021C4F20201884250D0FFE70F9870
:1047F0000068B821C4F20201884248D0FFE70F9850
:10480000006840F21041C4F2020188423FD0FFE745
:104810000F98006840F22841C4F20201884236D065
:10482000FFE70F98006840F24041C4F2020188425D
:104830002DD0FFE70F98006840F25841C4F2020102
:10484000884224D0FFE70F98006840F27041C4F21C
:10485000020188421BD0FFE70F98006840F28841B0
:10486000C4F20201884212D0FFE70F98006840F2BC
:10487000A041C4F20201884209D0FFE70F98006806
:1048800040F2B841C4F20201884207D1FFE70F9815
:104890000168086820F00100086006E00F980168D0
:1048A000086820F001000860FFE7FFE70B9801307F
:1048B0000B900A99884201D9FFE707E0FFE70F98BC
:1048C00000680068C0070028F0D1FFE70F98006873
:1048D0000068C00728B1FFE70F99032081F8350071
:1048E00004E00F99012081F83500FFE7FFE70F99F9
:1048F000002081F83400FFE7FFE70F98C06C20B17B
:10490000FFE70F98C16C8847FFE7FFE7FAE20F98CF
:104910000168012045F20842C5F602029142019069
:104920004ED0FFE70F980168012045F21C42C5F602
:1049300002029142019043D0FFE70F9801680120E5
:1049400045F23042C5F602029142019038D0FFE7AD
:104950000F980168012045F24442C5F602029142D7
:1049600001902DD0FFE70F980168012045F25842D1
:10497000C5F602029142019022D0FFE70F9801682C
:10498000012045F26C42C5F602029142019017D017
:10499000FFE70F980168012045F28042C5F6020248
:1049A000914201900CD0FFE70F9800684AF66C31F5
:1049B000CAF2FD710844B0FA80F040090190FFE7A7
:1049C0000198C007002800F09B82FFE70F9800685D
:1049D00000680C900D980F99C96D01F01F01C84037
:1049E0004007002840F1D780FFE79DF830004007DE
:1049F000002840F1D080FFE70F98C06D00F01F0144
:104A000004208840089948609DF83100000600287D
:104A100018D5FFE79DF83200C00748B9FFE70F98A7
:104A2000806C20B1FFE70F98816C8847FFE708E0B2
:104A30000F98006C20B1FFE70F98016C8847FFE7E3
:104A4000FFE7A7E09DF830008006002800F199807C
:104A5000FFE70F9800681021C4F20201884200F0BD
:104A60008180FFE70F9800682821C4F20201884284
:104A700078D0FFE70F9800684021C4F20201884215
:104A800070D0FFE70F9800685821C4F202018842F5
:104A900068D0FFE70F9800687021C4F202018842D5
:104AA00060D0FFE70F9800688821C4F202018842B5
:104AB00058D0FFE70F980068A021C4F20201884295
:104AC00050D0FFE70F980068B821C4F20201884275
:104AD00048D0FFE70F98006840F21041C4F202018D
:104AE00088423FD0FFE70F98006840F22841C4F2A7
:104AF0000201884236D0FFE70F98006840F240413B
:104B0000C4F2020188422DD0FFE70F98006840F2FE
:104B10005841C4F20201884224D0FFE70F98006890
:104B200040F27041C4F2020188421BD0FFE70F98A7
:104B3000006840F28841C4F20201884212D0FFE7C7
:104B40000F98006840F2A041C4F20201884209D0E7
:104B5000FFE70F98006840F2B841C4F202018842B2
:104B600007D1FFE70F980168086820F00800086087
:104B700006E00F980168086820F004000860FFE76D
:104B8000FFE70F98006C20B1FFE70F98016C884792
:104B9000FFE7FFE7B3E10D980F99C96D01F01F0121
:104BA000C8408007002840F1E180FFE79DF8300011
:104BB0008007002840F1DA80FFE70F98C06D00F011
:104BC0001F0102208840089948609DF831000006C6
:104BD000002818D5FFE79DF83200C00748B9FFE765
:104BE0000F98406C20B1FFE70F98416C8847FFE7B2
:104BF00008E00F98C06B20B1FFE70F98C16B8847A2
:104C0000FFE7FFE7B1E09DF830008006002800F1E3
:104C1000A380FFE70F9800681021C4F202018842C8
:104C200000F08180FFE70F9800682821C4F202019C
:104C3000884278D0FFE70F9800684021C4F2020153
:104C4000884270D0FFE70F9800685821C4F2020133
:104C5000884268D0FFE70F9800687021C4F2020113
:104C6000884260D0FFE70F9800688821C4F20201F3
:104C7000884258D0FFE70F980068A021C4F20201D3
:104C8000884250D0FFE70F980068B821C4F20201B3
:104C9000884248D0FFE70F98006840F21041C4F204
:104CA000020188423FD0FFE70F98006840F2284198
:104CB000C4F20201884236D0FFE70F98006840F244
:104CC0004041C4F2020188422DD0FFE70F980068EE
:104CD00040F25841C4F20201884224D0FFE70F9805
:104CE000006840F27041C4F2020188421BD0FFE725
:104CF0000F98006840F28841C4F20201884212D045
:104D0000FFE70F98006840F2A041C4F20201884218
:104D100009D0FFE70F98006840F2B841C4F20201E1
:104D2000884207D1FFE70F980168086820F0140057
:104D3000086006E00F980168086820F00A00086023
:104D4000FFE70F99012081F83500FFE70F99002058
:104D500081F83400FFE7FFE70F98C06B20B1FFE751
:104D60000F98C16B8847FFE7FFE7C7E00D980F99E1
:104D7000C96D01F01F01C8400007002840F1BC8048
:104D8000FFE79DF830000007002840F1B580FFE7FD
:104D90000F9800681021C4F20201884200F081805F
:104DA000FFE70F9800682821C4F20201884278D0FA
:104DB000FFE70F9800684021C4F20201884270D0DA
:104DC000FFE70F9800685821C4F20201884268D0BA
:104DD000FFE70F9800687021C4F20201884260D09A
:104DE000FFE70F9800688821C4F20201884258D07A
:104DF000FFE70F980068A021C4F20201884250D05A
:104E0000FFE70F980068B821C4F20201884248D039
:104E1000FFE70F98006840F21041C4F20201884297
:104E20003FD0FFE70F98006840F22841C4F202012A
:104E3000884236D0FFE70F98006840F24041C4F244
:104E4000020188422DD0FFE70F98006840F25841D8
:104E5000C4F20201884224D0FFE70F98006840F2B4
:104E60007041C4F2020188421BD0FFE70F9800682E
:104E700040F28841C4F20201884212D0FFE70F9845
:104E8000006840F2A041C4F20201884209D0FFE765
:104E90000F98006840F2B841C4F20201884207D17D
:104EA000FFE70F980168086820F01C00086006E022
:104EB0000F980168086820F00E000860FFE70F985F
:104EC000C06D00F01F01012000FA01F1089A516045
:104ED0000F9948650F9981F83500FFE70F99002079
:104EE00081F83400FFE70F98C06C20B1FFE70F98FE
:104EF000C16C8847FFE700E0FFE7FFE7FFE700E05E
:104F0000FFE7FFE710B080BD10B58EB00C9001F048
:104F10001FFA0A900C9828B9FFE701208DF8370096
:104F200000F09FBC0C98016801201022C4F202021C
:104F30009142079000F0A380FFE70C9801680120E0
:104F40002822C4F202029142079000F09880FFE705
:104F50000C98016801204022C4F20202914207909D
:104F600000F08D80FFE70C98016801205822C4F200
:104F700002029142079000F08280FFE70C980168DE
:104F800001207022C4F202029142079077D0FFE71D
:104F90000C98016801208822C4F202029142079015
:104FA0006DD0FFE70C9801680120A022C4F2020234
:104FB0009142079063D0FFE70C9801680120B82266
:104FC000C4F202029142079059D0FFE70C980168A1
:104FD000012040F21042C4F20202914207904ED0EA
:104FE000FFE70C980168012040F22842C4F2020257
:104FF0009142079043D0FFE70C980168012040F2EE
:105000004042C4F202029142079038D0FFE70C9868
:105010000168012040F25842C4F202029142079016
:105020002DD0FFE70C980168012040F27042C4F2D5
:1050300002029142079022D0FFE70C9801680120FC
:1050400040F28842C4F202029142079017D0FFE773
:105050000C980168012040F2A042C4F20202914281
:1050600007900CD0FFE70C9800684FF64831CBF65C
:10507000FD710844B0FA80F040090790FFE70798F7
:10508000C007002800F07981FFE70C98406A08B15A
:10509000FFE7FFE70C99022081F83500FFE70C9944
:1050A000002081F83400FFE70C9800681021C4F25A
:1050B0000201884200F08180FFE70C9800682821F7
:1050C000C4F20201884278D0FFE70C9800684021C2
:1050D000C4F20201884270D0FFE70C9800685821A2
:1050E000C4F20201884268D0FFE70C980068702182
:1050F000C4F20201884260D0FFE70C980068882162
:10510000C4F20201884258D0FFE70C980068A02141
:10511000C4F20201884250D0FFE70C980068B82121
:10512000C4F20201884248D0FFE70C98006840F2C0
:105130001041C4F2020188423FD0FFE70C9800689A
:1051400040F22841C4F20201884236D0FFE70C98B1
:10515000006840F24041C4F2020188422DD0FFE7CE
:105160000C98006840F25841C4F20201884224D0F1
:10517000FFE70C98006840F27041C4F202018842D7
:105180001BD0FFE70C98006840F28841C4F202018E
:10519000884212D0FFE70C98006840F2A041C4F2A8
:1051A0000201884209D0FFE70C98006840F2B8413C
:1051B000C4F20201884207D1FFE70C980168086831
:1051C00020F00100086006E00C980168086820F0F3
:1051D00001000860FFE7FFE70C9800680068C0075F
:1051E00098B1FFE701F0B4F80A99401A06280BD3EA
:1051F000FFE70C99202048650C99032081F83500C1
:1052000001208DF837002CE3E6E70C980068006871
:105210000B900B9848F23F01CFF6106108400B90BD
:105220000C998868D1F80CC00B694A6940EA0C00F7
:10523000184310438A691043CA691043096A01433D
:105240000B9808430B900C98406A042808D1FFE79C
:105250000C99C86A096B01430B9808430B90FFE750
:1052600041F20000C5F6004000684FF6FF71884328
:10527000B0F1005F40D3FFE70C984068292807D3BE
:10528000FFE70C98416801202F2906902AD3FFE7F9
:105290000C9840683F2807D3FFE70C98416801202D
:1052A000432906901ED3FFE70C984068472807D390
:1052B000FFE70C98416801204929069012D3FFE7C7
:1052C0000C98416800204F29059008D3FFE70C98FF
:1052D00041680020532938BF01200590FFE7059859
:1052E0000690FFE70698C00728B1FFE70B9840F447
:1052F00080100B90FFE7FFE70B980C990968086096
:105300000C98006840690B900B9820F007000B90F8
:105310000C98416A0B9808430B900C98406A04283B
:105320001AD1FFE70C98816A0B9808430B900C98F0
:10533000C06A80B1FFE70C98FCF7BAF950B1FFE7FB
:105340000C99402048650C99012081F835008DF8B2
:10535000370086E2FFE7FFE70B980C990968486180
:105360000C98FBF769FF09900C98C06D00F01F01C5
:105370003F2088400999886026E10C980168012047
:1053800045F20842C5F60202914204904ED0FFE772
:105390000C980168012045F21C42C5F602029142B8
:1053A000049043D0FFE70C980168012045F2304299
:1053B000C5F602029142049038D0FFE70C980168CC
:1053C000012045F24442C5F60202914204902DD0DC
:1053D000FFE70C980168012045F25842C5F6020229
:1053E0009142049022D0FFE70C980168012045F219
:1053F0006C42C5F602029142049017D0FFE70C9868
:105400000168012045F28042C5F6020291420490F3
:105410000CD0FFE70C9800684AF66C31CAF2FD71B7
:105420000844B0FA80F040090490FFE70498C007F0
:10543000002800F0BD80FFE70C980168012045F2CC
:105440000842C5F60202914203904ED0FFE70C9845
:105450000168012045F21C42C5F602029142039008
:1054600043D0FFE70C980168012045F23042C5F6B1
:1054700002029142039038D0FFE70C9801680120A6
:1054800045F24442C5F60202914203902DD0FFE757
:105490000C980168012045F25842C5F6020291427B
:1054A000039022D0FFE70C980168012045F26C427E
:1054B000C5F602029142039017D0FFE70C980168ED
:1054C000012045F28042C5F60202914203900CD0C1
:1054D000FFE70C9800684AF66C31CAF2FD71084487
:1054E000B0FA80F040090390FFE70398C00708B1C5
:1054F000FFE7FFE70C99022081F83500FFE70C99E0
:10550000002081F83400FFE70C98006800680B90D9
:105510000B986FF310100B900C988068402803D103
:10552000FFE71020029008E00C9880688038B0FAFD
:1055300080F0400980030290FFE702980C99CA6846
:105540000B69D1F814C0D1F818E0CC694EEA040E0A
:105550004CEA0E0C43EA0C031A4340EAD200096AF3
:1055600040EA11110B9808430B900B980C990968AD
:1055700008600C9908684AF6F832CAF2FD721044C5
:105580004CF6CD42CCF6CC42A0FB02026FF00300F9
:1055900000EA9200C8650C98FBF74EFE08900C9844
:1055A000C06D00F01F0101208840089948600AE0A2
:1055B0000C99402048650C99032081F835000120A2
:1055C0008DF837004DE1FFE70C98016801201022AB
:1055D000C4F202029142019000F00381FFE70C98AF
:1055E000016801202822C4F202029142019000F0D9
:1055F000F880FFE70C98016801204022C4F2020203
:105600009142019000F0ED80FFE70C9801680120C5
:105610005822C4F202029142019000F0E280FFE7BA
:105620000C98016801207022C4F20202914201909C
:1056300000F0D780FFE70C98016801208822C4F2AF
:1056400002029142019000F0CC80FFE70C980168C3
:105650000120A022C4F202029142019000F0C18018
:10566000FFE70C9801680120B822C4F202029142BF
:10567000019000F0B680FFE70C980168012040F22D
:105680001042C4F202029142019000F0AA80FFE7AA
:105690000C980168012040F22842C4F202029142B3
:1056A000019000F09E80FFE70C980168012040F215
:1056B0004042C4F202029142019000F09280FFE762
:1056C0000C980168012040F25842C4F20202914253
:1056D000019000F08680FFE70C980168012040F2FD
:1056E0007042C4F20202914201907AD0FFE70C9816
:1056F0000168012040F28842C4F202029142019006
:105700006FD0FFE70C980168012040F2A042C4F27C
:1057100002029142019064D0FFE70C9801680120D9
:1057200040F2B842C4F202029142019059D0FFE720
:105730000C980168012045F20842C5F60202914228
:1057400001904ED0FFE70C980168012045F21C4201
:10575000C5F602029142019043D0FFE70C98016820
:10576000012045F23042C5F602029142019038D044
:10577000FFE70C980168012045F24442C5F6020299
:10578000914201902DD0FFE70C980168012045F26D
:105790005842C5F602029142019022D0FFE70C98D0
:1057A0000168012045F26C42C5F602029142019067
:1057B00017D0FFE70C980168012045F28042C5F63A
:1057C0000202914201900CD0FFE70C9800684AF663
:1057D0006C31CAF2FD710844B0FA80F040090190C2
:1057E000FFE70198C00790B3FFE70C98FBF70CFEAA
:1057F0000C988068802804D1FFE70C99002048604D
:10580000FFE70C990879096E08600C98416E806E6C
:1058100048600C98406888B1FFE70C9840680828F9
:105820000CD8FFE70C98FBF7ABFE0C98C16E00207C
:1058300008600C98016F406F486007E00C990020E9
:10584000C8660C9908670C994867FFE7FFE70C9951
:10585000002048650C9A012182F835108DF8370038
:10586000FFE79DF837000EB010BD000000000000FB
:1058700080B588B0069005910492039300208DF8BE
:105880000B00069820B9FFE701208DF81F006CE39C
:10589000FFE7069890F83400012804D1FFE70220C2
:1058A0008DF81F0061E30699012081F83400FFE7BD
:1058B000FFE7069890F83500012840F04383FFE7A2
:1058C0000699022081F8350006990020486506985F
:1058D00000681021C4F20201884200F08180FFE7D5
:1058E000069800682821C4F20201884278D0FFE7B8
:1058F000069800684021C4F20201884270D0FFE798
:10590000069800685821C4F20201884268D0FFE777
:10591000069800687021C4F20201884260D0FFE757
:10592000069800688821C4F20201884258D0FFE737
:1059300006980068A021C4F20201884250D0FFE717
:1059400006980068B821C4F20201884248D0FFE7F7
:105950000698006840F21041C4F2020188423FD02C
:10596000FFE70698006840F22841C4F2020188422D
:1059700036D0FFE70698006840F24041C4F20201C9
:1059800088422DD0FFE70698006840F25841C4F2E3
:105990000201884224D0FFE70698006840F2704177
:1059A000C4F2020188421BD0FFE70698006840F26B
:1059B0008841C4F20201884212D0FFE706980068CD
:1059C00040F2A041C4F20201884209D0FFE70698E4
:1059D000006840F2B841C4F20201884207D1FFE7F3
:1059E00006980168086820F00100086006E0069843
:1059F0000168086820F001000860FFE70698059933
:105A0000049A039BFBF7CCFE069801680120102244
:105A1000C4F202029142019000F0A380FFE70698D1
:105A2000016801202822C4F202029142019000F094
:105A30009880FFE70698016801204022C4F2020224
:105A40009142019000F08D80FFE7069801680120E7
:105A50005822C4F202029142019000F08280FFE7D6
:105A60000698016801207022C4F20202914201905E
:105A700077D0FFE70698016801208822C4F202026D
:105A8000914201906DD0FFE7069801680120A022A5
:105A9000C4F202029142019063D0FFE706980168C8
:105AA0000120B822C4F202029142019059D0FFE7CE
:105AB00006980168012040F21042C4F202029142AD
:105AC00001904ED0FFE706980168012040F228427D
:105AD000C4F202029142019043D0FFE706980168A8
